{
	"Project.sol": {
		"CrowdFunding": {
			"abi": [
				{
					"inputs": [
						{
							"internalType": "uint256",
							"name": "_deadline",
							"type": "uint256"
						},
						{
							"internalType": "uint256",
							"name": "_target",
							"type": "uint256"
						},
						{
							"internalType": "uint256",
							"name": "_minContribution",
							"type": "uint256"
						}
					],
					"stateMutability": "nonpayable",
					"type": "constructor"
				},
				{
					"inputs": [
						{
							"internalType": "address",
							"name": "",
							"type": "address"
						}
					],
					"name": "contributors",
					"outputs": [
						{
							"internalType": "uint256",
							"name": "",
							"type": "uint256"
						}
					],
					"stateMutability": "view",
					"type": "function"
				},
				{
					"inputs": [
						{
							"internalType": "string",
							"name": "_description",
							"type": "string"
						},
						{
							"internalType": "address payable",
							"name": "_recepient",
							"type": "address"
						},
						{
							"internalType": "uint256",
							"name": "_value",
							"type": "uint256"
						}
					],
					"name": "createRequest",
					"outputs": [],
					"stateMutability": "nonpayable",
					"type": "function"
				},
				{
					"inputs": [],
					"name": "deadline",
					"outputs": [
						{
							"internalType": "uint256",
							"name": "",
							"type": "uint256"
						}
					],
					"stateMutability": "view",
					"type": "function"
				},
				{
					"inputs": [],
					"name": "getBalance",
					"outputs": [
						{
							"internalType": "uint256",
							"name": "",
							"type": "uint256"
						}
					],
					"stateMutability": "view",
					"type": "function"
				},
				{
					"inputs": [],
					"name": "manager",
					"outputs": [
						{
							"internalType": "address",
							"name": "",
							"type": "address"
						}
					],
					"stateMutability": "view",
					"type": "function"
				},
				{
					"inputs": [],
					"name": "minContribution",
					"outputs": [
						{
							"internalType": "uint256",
							"name": "",
							"type": "uint256"
						}
					],
					"stateMutability": "view",
					"type": "function"
				},
				{
					"inputs": [],
					"name": "noofContributors",
					"outputs": [
						{
							"internalType": "uint256",
							"name": "",
							"type": "uint256"
						}
					],
					"stateMutability": "view",
					"type": "function"
				},
				{
					"inputs": [
						{
							"internalType": "uint256",
							"name": "",
							"type": "uint256"
						}
					],
					"name": "noofrequest",
					"outputs": [
						{
							"internalType": "string",
							"name": "description",
							"type": "string"
						},
						{
							"internalType": "address payable",
							"name": "recepient",
							"type": "address"
						},
						{
							"internalType": "uint256",
							"name": "value",
							"type": "uint256"
						},
						{
							"internalType": "bool",
							"name": "compeleted",
							"type": "bool"
						},
						{
							"internalType": "uint256",
							"name": "noofVoters",
							"type": "uint256"
						}
					],
					"stateMutability": "view",
					"type": "function"
				},
				{
					"inputs": [],
					"name": "numrequest",
					"outputs": [
						{
							"internalType": "uint256",
							"name": "",
							"type": "uint256"
						}
					],
					"stateMutability": "view",
					"type": "function"
				},
				{
					"inputs": [],
					"name": "raisedAmount",
					"outputs": [
						{
							"internalType": "uint256",
							"name": "",
							"type": "uint256"
						}
					],
					"stateMutability": "view",
					"type": "function"
				},
				{
					"inputs": [],
					"name": "refund",
					"outputs": [],
					"stateMutability": "nonpayable",
					"type": "function"
				},
				{
					"inputs": [],
					"name": "sendEthertocontract",
					"outputs": [],
					"stateMutability": "payable",
					"type": "function"
				},
				{
					"inputs": [],
					"name": "target",
					"outputs": [
						{
							"internalType": "uint256",
							"name": "",
							"type": "uint256"
						}
					],
					"stateMutability": "view",
					"type": "function"
				},
				{
					"inputs": [
						{
							"internalType": "uint256",
							"name": "_numrequest",
							"type": "uint256"
						}
					],
					"name": "voteRequest",
					"outputs": [],
					"stateMutability": "nonpayable",
					"type": "function"
				}
			],
			"devdoc": {
				"kind": "dev",
				"methods": {},
				"version": 1
			},
			"evm": {
				"assembly": "    /* \"Project.sol\":65:5947  contract CrowdFunding {... */\n  mstore(0x40, 0x80)\n    /* \"Project.sol\":431:729  constructor(... */\n  callvalue\n  dup1\n  iszero\n  tag_1\n  jumpi\n  0x00\n  dup1\n  revert\ntag_1:\n  pop\n  mload(0x40)\n  sub(codesize, bytecodeSize)\n  dup1\n  bytecodeSize\n  dup4\n  codecopy\n  dup2\n  dup2\n  add\n  0x40\n  mstore\n  dup2\n  add\n  swap1\n  tag_2\n  swap2\n  swap1\n  tag_3\n  jump\t// in\ntag_2:\n    /* \"Project.sol\":594:604  msg.sender */\n  caller\n    /* \"Project.sol\":584:591  manager */\n  0x01\n  0x00\n    /* \"Project.sol\":584:604  manager = msg.sender */\n  0x0100\n  exp\n  dup2\n  sload\n  dup2\n  0xffffffffffffffffffffffffffffffffffffffff\n  mul\n  not\n  and\n  swap1\n  dup4\n  0xffffffffffffffffffffffffffffffffffffffff\n  and\n  mul\n  or\n  swap1\n  sstore\n  pop\n    /* \"Project.sol\":643:652  _deadline */\n  dup3\n    /* \"Project.sol\":625:640  block.timestamp */\n  timestamp\n    /* \"Project.sol\":625:652  block.timestamp + _deadline */\n  tag_6\n  swap2\n  swap1\n  tag_7\n  jump\t// in\ntag_6:\n    /* \"Project.sol\":614:622  deadline */\n  0x04\n    /* \"Project.sol\":614:652  deadline = block.timestamp + _deadline */\n  dup2\n  swap1\n  sstore\n  pop\n    /* \"Project.sol\":671:678  _target */\n  dup2\n    /* \"Project.sol\":662:668  target */\n  0x03\n    /* \"Project.sol\":662:678  target = _target */\n  dup2\n  swap1\n  sstore\n  pop\n    /* \"Project.sol\":706:722  _minContribution */\n  dup1\n    /* \"Project.sol\":688:703  minContribution */\n  0x02\n    /* \"Project.sol\":688:722  minContribution = _minContribution */\n  dup2\n  swap1\n  sstore\n  pop\n    /* \"Project.sol\":431:729  constructor(... */\n  pop\n  pop\n  pop\n    /* \"Project.sol\":65:5947  contract CrowdFunding {... */\n  jump(tag_8)\n    /* \"#utility.yul\":88:205   */\ntag_10:\n    /* \"#utility.yul\":197:198   */\n  0x00\n    /* \"#utility.yul\":194:195   */\n  dup1\n    /* \"#utility.yul\":187:199   */\n  revert\n    /* \"#utility.yul\":334:411   */\ntag_12:\n    /* \"#utility.yul\":371:378   */\n  0x00\n    /* \"#utility.yul\":400:405   */\n  dup2\n    /* \"#utility.yul\":389:405   */\n  swap1\n  pop\n    /* \"#utility.yul\":334:411   */\n  swap2\n  swap1\n  pop\n  jump\t// out\n    /* \"#utility.yul\":417:539   */\ntag_13:\n    /* \"#utility.yul\":490:514   */\n  tag_22\n    /* \"#utility.yul\":508:513   */\n  dup2\n    /* \"#utility.yul\":490:514   */\n  tag_12\n  jump\t// in\ntag_22:\n    /* \"#utility.yul\":483:488   */\n  dup2\n    /* \"#utility.yul\":480:515   */\n  eq\n    /* \"#utility.yul\":470:533   */\n  tag_23\n  jumpi\n    /* \"#utility.yul\":529:530   */\n  0x00\n    /* \"#utility.yul\":526:527   */\n  dup1\n    /* \"#utility.yul\":519:531   */\n  revert\n    /* \"#utility.yul\":470:533   */\ntag_23:\n    /* \"#utility.yul\":417:539   */\n  pop\n  jump\t// out\n    /* \"#utility.yul\":545:688   */\ntag_14:\n    /* \"#utility.yul\":602:607   */\n  0x00\n    /* \"#utility.yul\":633:639   */\n  dup2\n    /* \"#utility.yul\":627:640   */\n  mload\n    /* \"#utility.yul\":618:640   */\n  swap1\n  pop\n    /* \"#utility.yul\":649:682   */\n  tag_25\n    /* \"#utility.yul\":676:681   */\n  dup2\n    /* \"#utility.yul\":649:682   */\n  tag_13\n  jump\t// in\ntag_25:\n    /* \"#utility.yul\":545:688   */\n  swap3\n  swap2\n  pop\n  pop\n  jump\t// out\n    /* \"#utility.yul\":694:1357   */\ntag_3:\n    /* \"#utility.yul\":782:788   */\n  0x00\n    /* \"#utility.yul\":790:796   */\n  dup1\n    /* \"#utility.yul\":798:804   */\n  0x00\n    /* \"#utility.yul\":847:849   */\n  0x60\n    /* \"#utility.yul\":835:844   */\n  dup5\n    /* \"#utility.yul\":826:833   */\n  dup7\n    /* \"#utility.yul\":822:845   */\n  sub\n    /* \"#utility.yul\":818:850   */\n  slt\n    /* \"#utility.yul\":815:934   */\n  iszero\n  tag_27\n  jumpi\n    /* \"#utility.yul\":853:932   */\n  tag_28\n  tag_10\n  jump\t// in\ntag_28:\n    /* \"#utility.yul\":815:934   */\ntag_27:\n    /* \"#utility.yul\":973:974   */\n  0x00\n    /* \"#utility.yul\":998:1062   */\n  tag_29\n    /* \"#utility.yul\":1054:1061   */\n  dup7\n    /* \"#utility.yul\":1045:1051   */\n  dup3\n    /* \"#utility.yul\":1034:1043   */\n  dup8\n    /* \"#utility.yul\":1030:1052   */\n  add\n    /* \"#utility.yul\":998:1062   */\n  tag_14\n  jump\t// in\ntag_29:\n    /* \"#utility.yul\":988:1062   */\n  swap4\n  pop\n    /* \"#utility.yul\":944:1072   */\n  pop\n    /* \"#utility.yul\":1111:1113   */\n  0x20\n    /* \"#utility.yul\":1137:1201   */\n  tag_30\n    /* \"#utility.yul\":1193:1200   */\n  dup7\n    /* \"#utility.yul\":1184:1190   */\n  dup3\n    /* \"#utility.yul\":1173:1182   */\n  dup8\n    /* \"#utility.yul\":1169:1191   */\n  add\n    /* \"#utility.yul\":1137:1201   */\n  tag_14\n  jump\t// in\ntag_30:\n    /* \"#utility.yul\":1127:1201   */\n  swap3\n  pop\n    /* \"#utility.yul\":1082:1211   */\n  pop\n    /* \"#utility.yul\":1250:1252   */\n  0x40\n    /* \"#utility.yul\":1276:1340   */\n  tag_31\n    /* \"#utility.yul\":1332:1339   */\n  dup7\n    /* \"#utility.yul\":1323:1329   */\n  dup3\n    /* \"#utility.yul\":1312:1321   */\n  dup8\n    /* \"#utility.yul\":1308:1330   */\n  add\n    /* \"#utility.yul\":1276:1340   */\n  tag_14\n  jump\t// in\ntag_31:\n    /* \"#utility.yul\":1266:1340   */\n  swap2\n  pop\n    /* \"#utility.yul\":1221:1350   */\n  pop\n    /* \"#utility.yul\":694:1357   */\n  swap3\n  pop\n  swap3\n  pop\n  swap3\n  jump\t// out\n    /* \"#utility.yul\":1363:1543   */\ntag_15:\n    /* \"#utility.yul\":1411:1488   */\n  0x4e487b7100000000000000000000000000000000000000000000000000000000\n    /* \"#utility.yul\":1408:1409   */\n  0x00\n    /* \"#utility.yul\":1401:1489   */\n  mstore\n    /* \"#utility.yul\":1508:1512   */\n  0x11\n    /* \"#utility.yul\":1505:1506   */\n  0x04\n    /* \"#utility.yul\":1498:1513   */\n  mstore\n    /* \"#utility.yul\":1532:1536   */\n  0x24\n    /* \"#utility.yul\":1529:1530   */\n  0x00\n    /* \"#utility.yul\":1522:1537   */\n  revert\n    /* \"#utility.yul\":1549:1740   */\ntag_7:\n    /* \"#utility.yul\":1589:1592   */\n  0x00\n    /* \"#utility.yul\":1608:1628   */\n  tag_34\n    /* \"#utility.yul\":1626:1627   */\n  dup3\n    /* \"#utility.yul\":1608:1628   */\n  tag_12\n  jump\t// in\ntag_34:\n    /* \"#utility.yul\":1603:1628   */\n  swap2\n  pop\n    /* \"#utility.yul\":1642:1662   */\n  tag_35\n    /* \"#utility.yul\":1660:1661   */\n  dup4\n    /* \"#utility.yul\":1642:1662   */\n  tag_12\n  jump\t// in\ntag_35:\n    /* \"#utility.yul\":1637:1662   */\n  swap3\n  pop\n    /* \"#utility.yul\":1685:1686   */\n  dup3\n    /* \"#utility.yul\":1682:1683   */\n  dup3\n    /* \"#utility.yul\":1678:1687   */\n  add\n    /* \"#utility.yul\":1671:1687   */\n  swap1\n  pop\n    /* \"#utility.yul\":1706:1709   */\n  dup1\n    /* \"#utility.yul\":1703:1704   */\n  dup3\n    /* \"#utility.yul\":1700:1710   */\n  gt\n    /* \"#utility.yul\":1697:1733   */\n  iszero\n  tag_36\n  jumpi\n    /* \"#utility.yul\":1713:1731   */\n  tag_37\n  tag_15\n  jump\t// in\ntag_37:\n    /* \"#utility.yul\":1697:1733   */\ntag_36:\n    /* \"#utility.yul\":1549:1740   */\n  swap3\n  swap2\n  pop\n  pop\n  jump\t// out\n    /* \"Project.sol\":65:5947  contract CrowdFunding {... */\ntag_8:\n  dataSize(sub_0)\n  dup1\n  dataOffset(sub_0)\n  0x00\n  codecopy\n  0x00\n  return\nstop\n\nsub_0: assembly {\n        /* \"Project.sol\":65:5947  contract CrowdFunding {... */\n      mstore(0x40, 0x80)\n      jumpi(tag_1, lt(calldatasize, 0x04))\n      shr(0xe0, calldataload(0x00))\n      dup1\n      0x4cf2e1bc\n      gt\n      tag_16\n      jumpi\n      dup1\n      0xaaffadf3\n      gt\n      tag_17\n      jumpi\n      dup1\n      0xaaffadf3\n      eq\n      tag_12\n      jumpi\n      dup1\n      0xc59ee1dc\n      eq\n      tag_13\n      jumpi\n      dup1\n      0xd4b83992\n      eq\n      tag_14\n      jumpi\n      dup1\n      0xfe7c1b8a\n      eq\n      tag_15\n      jumpi\n      jump(tag_1)\n    tag_17:\n      dup1\n      0x4cf2e1bc\n      eq\n      tag_9\n      jumpi\n      dup1\n      0x590e1ae3\n      eq\n      tag_10\n      jumpi\n      dup1\n      0x8d9ad80e\n      eq\n      tag_11\n      jumpi\n      jump(tag_1)\n    tag_16:\n      dup1\n      0x29dcb0cf\n      gt\n      tag_18\n      jumpi\n      dup1\n      0x29dcb0cf\n      eq\n      tag_5\n      jumpi\n      dup1\n      0x39cb69fc\n      eq\n      tag_6\n      jumpi\n      dup1\n      0x481c6a75\n      eq\n      tag_7\n      jumpi\n      dup1\n      0x4cb6f4a5\n      eq\n      tag_8\n      jumpi\n      jump(tag_1)\n    tag_18:\n      dup1\n      0x12065fe0\n      eq\n      tag_2\n      jumpi\n      dup1\n      0x1b16bb5c\n      eq\n      tag_3\n      jumpi\n      dup1\n      0x1f6d4942\n      eq\n      tag_4\n      jumpi\n    tag_1:\n      0x00\n      dup1\n      revert\n        /* \"Project.sol\":2365:2462  function getBalance() public view returns (uint256) {... */\n    tag_2:\n      callvalue\n      dup1\n      iszero\n      tag_19\n      jumpi\n      0x00\n      dup1\n      revert\n    tag_19:\n      pop\n      tag_20\n      tag_21\n      jump\t// in\n    tag_20:\n      mload(0x40)\n      tag_22\n      swap2\n      swap1\n      tag_23\n      jump\t// in\n    tag_22:\n      mload(0x40)\n      dup1\n      swap2\n      sub\n      swap1\n      return\n        /* \"Project.sol\":4368:5123  function createRequest(... */\n    tag_3:\n      callvalue\n      dup1\n      iszero\n      tag_24\n      jumpi\n      0x00\n      dup1\n      revert\n    tag_24:\n      pop\n      tag_25\n      0x04\n      dup1\n      calldatasize\n      sub\n      dup2\n      add\n      swap1\n      tag_26\n      swap2\n      swap1\n      tag_27\n      jump\t// in\n    tag_26:\n      tag_28\n      jump\t// in\n    tag_25:\n      stop\n        /* \"Project.sol\":93:140  mapping(address => uint256) public contributors */\n    tag_4:\n      callvalue\n      dup1\n      iszero\n      tag_29\n      jumpi\n      0x00\n      dup1\n      revert\n    tag_29:\n      pop\n      tag_30\n      0x04\n      dup1\n      calldatasize\n      sub\n      dup2\n      add\n      swap1\n      tag_31\n      swap2\n      swap1\n      tag_32\n      jump\t// in\n    tag_31:\n      tag_33\n      jump\t// in\n    tag_30:\n      mload(0x40)\n      tag_34\n      swap2\n      swap1\n      tag_23\n      jump\t// in\n    tag_34:\n      mload(0x40)\n      dup1\n      swap2\n      sub\n      swap1\n      return\n        /* \"Project.sol\":285:308  uint256 public deadline */\n    tag_5:\n      callvalue\n      dup1\n      iszero\n      tag_35\n      jumpi\n      0x00\n      dup1\n      revert\n    tag_35:\n      pop\n      tag_36\n      tag_37\n      jump\t// in\n    tag_36:\n      mload(0x40)\n      tag_38\n      swap2\n      swap1\n      tag_23\n      jump\t// in\n    tag_38:\n      mload(0x40)\n      dup1\n      swap2\n      sub\n      swap1\n      return\n        /* \"Project.sol\":379:410  uint256 public noofContributors */\n    tag_6:\n      callvalue\n      dup1\n      iszero\n      tag_39\n      jumpi\n      0x00\n      dup1\n      revert\n    tag_39:\n      pop\n      tag_40\n      tag_41\n      jump\t// in\n    tag_40:\n      mload(0x40)\n      tag_42\n      swap2\n      swap1\n      tag_23\n      jump\t// in\n    tag_42:\n      mload(0x40)\n      dup1\n      swap2\n      sub\n      swap1\n      return\n        /* \"Project.sol\":194:216  address public manager */\n    tag_7:\n      callvalue\n      dup1\n      iszero\n      tag_43\n      jumpi\n      0x00\n      dup1\n      revert\n    tag_43:\n      pop\n      tag_44\n      tag_45\n      jump\t// in\n    tag_44:\n      mload(0x40)\n      tag_46\n      swap2\n      swap1\n      tag_47\n      jump\t// in\n    tag_46:\n      mload(0x40)\n      dup1\n      swap2\n      sub\n      swap1\n      return\n        /* \"Project.sol\":5162:5920  function voteRequest(uint256 _numrequest) public {... */\n    tag_8:\n      callvalue\n      dup1\n      iszero\n      tag_48\n      jumpi\n      0x00\n      dup1\n      revert\n    tag_48:\n      pop\n      tag_49\n      0x04\n      dup1\n      calldatasize\n      sub\n      dup2\n      add\n      swap1\n      tag_50\n      swap2\n      swap1\n      tag_51\n      jump\t// in\n    tag_50:\n      tag_52\n      jump\t// in\n    tag_49:\n      stop\n        /* \"Project.sol\":3784:3830  mapping(uint256 => request) public noofrequest */\n    tag_9:\n      callvalue\n      dup1\n      iszero\n      tag_53\n      jumpi\n      0x00\n      dup1\n      revert\n    tag_53:\n      pop\n      tag_54\n      0x04\n      dup1\n      calldatasize\n      sub\n      dup2\n      add\n      swap1\n      tag_55\n      swap2\n      swap1\n      tag_51\n      jump\t// in\n    tag_55:\n      tag_56\n      jump\t// in\n    tag_54:\n      mload(0x40)\n      tag_57\n      swap6\n      swap5\n      swap4\n      swap3\n      swap2\n      swap1\n      tag_58\n      jump\t// in\n    tag_57:\n      mload(0x40)\n      dup1\n      swap2\n      sub\n      swap1\n      return\n        /* \"Project.sol\":2498:3111  function refund() public {... */\n    tag_10:\n      callvalue\n      dup1\n      iszero\n      tag_59\n      jumpi\n      0x00\n      dup1\n      revert\n    tag_59:\n      pop\n      tag_60\n      tag_61\n      jump\t// in\n    tag_60:\n      stop\n        /* \"Project.sol\":735:2359  function sendEthertocontract() public payable {... */\n    tag_11:\n      tag_62\n      tag_63\n      jump\t// in\n    tag_62:\n      stop\n        /* \"Project.sol\":222:252  uint256 public minContribution */\n    tag_12:\n      callvalue\n      dup1\n      iszero\n      tag_64\n      jumpi\n      0x00\n      dup1\n      revert\n    tag_64:\n      pop\n      tag_65\n      tag_66\n      jump\t// in\n    tag_65:\n      mload(0x40)\n      tag_67\n      swap2\n      swap1\n      tag_23\n      jump\t// in\n    tag_67:\n      mload(0x40)\n      dup1\n      swap2\n      sub\n      swap1\n      return\n        /* \"Project.sol\":314:341  uint256 public raisedAmount */\n    tag_13:\n      callvalue\n      dup1\n      iszero\n      tag_68\n      jumpi\n      0x00\n      dup1\n      revert\n    tag_68:\n      pop\n      tag_69\n      tag_70\n      jump\t// in\n    tag_69:\n      mload(0x40)\n      tag_71\n      swap2\n      swap1\n      tag_23\n      jump\t// in\n    tag_71:\n      mload(0x40)\n      dup1\n      swap2\n      sub\n      swap1\n      return\n        /* \"Project.sol\":258:279  uint256 public target */\n    tag_14:\n      callvalue\n      dup1\n      iszero\n      tag_72\n      jumpi\n      0x00\n      dup1\n      revert\n    tag_72:\n      pop\n      tag_73\n      tag_74\n      jump\t// in\n    tag_73:\n      mload(0x40)\n      tag_75\n      swap2\n      swap1\n      tag_23\n      jump\t// in\n    tag_75:\n      mload(0x40)\n      dup1\n      swap2\n      sub\n      swap1\n      return\n        /* \"Project.sol\":4007:4032  uint256 public numrequest */\n    tag_15:\n      callvalue\n      dup1\n      iszero\n      tag_76\n      jumpi\n      0x00\n      dup1\n      revert\n    tag_76:\n      pop\n      tag_77\n      tag_78\n      jump\t// in\n    tag_77:\n      mload(0x40)\n      tag_79\n      swap2\n      swap1\n      tag_23\n      jump\t// in\n    tag_79:\n      mload(0x40)\n      dup1\n      swap2\n      sub\n      swap1\n      return\n        /* \"Project.sol\":2365:2462  function getBalance() public view returns (uint256) {... */\n    tag_21:\n        /* \"Project.sol\":2408:2415  uint256 */\n      0x00\n        /* \"Project.sol\":2434:2455  address(this).balance */\n      selfbalance\n        /* \"Project.sol\":2427:2455  return address(this).balance */\n      swap1\n      pop\n        /* \"Project.sol\":2365:2462  function getBalance() public view returns (uint256) {... */\n      swap1\n      jump\t// out\n        /* \"Project.sol\":4368:5123  function createRequest(... */\n    tag_28:\n        /* \"Project.sol\":4297:4304  manager */\n      0x01\n      0x00\n      swap1\n      sload\n      swap1\n      0x0100\n      exp\n      swap1\n      div\n      0xffffffffffffffffffffffffffffffffffffffff\n      and\n        /* \"Project.sol\":4283:4304  msg.sender == manager */\n      0xffffffffffffffffffffffffffffffffffffffff\n      and\n        /* \"Project.sol\":4283:4293  msg.sender */\n      caller\n        /* \"Project.sol\":4283:4304  msg.sender == manager */\n      0xffffffffffffffffffffffffffffffffffffffff\n      and\n      eq\n        /* \"Project.sol\":4275:4344  require(msg.sender == manager, \"Only manager can call rgis function\") */\n      tag_82\n      jumpi\n      mload(0x40)\n      0x08c379a000000000000000000000000000000000000000000000000000000000\n      dup2\n      mstore\n      0x04\n      add\n      tag_83\n      swap1\n      tag_84\n      jump\t// in\n    tag_83:\n      mload(0x40)\n      dup1\n      swap2\n      sub\n      swap1\n      revert\n    tag_82:\n        /* \"Project.sol\":4577:4603  request storage newRequest */\n      0x00\n        /* \"Project.sol\":4606:4617  noofrequest */\n      0x07\n        /* \"Project.sol\":4606:4629  noofrequest[numrequest] */\n      0x00\n        /* \"Project.sol\":4618:4628  numrequest */\n      sload(0x08)\n        /* \"Project.sol\":4606:4629  noofrequest[numrequest] */\n      dup2\n      mstore\n      0x20\n      add\n      swap1\n      dup2\n      mstore\n      0x20\n      add\n      0x00\n      keccak256\n        /* \"Project.sol\":4577:4629  request storage newRequest = noofrequest[numrequest] */\n      swap1\n      pop\n        /* \"Project.sol\":4822:4832  numrequest */\n      0x08\n      0x00\n        /* \"Project.sol\":4822:4834  numrequest++ */\n      dup2\n      sload\n      dup1\n      swap3\n      swap2\n      swap1\n      tag_86\n      swap1\n      tag_87\n      jump\t// in\n    tag_86:\n      swap2\n      swap1\n      pop\n      sstore\n      pop\n        /* \"Project.sol\":4869:4881  _description */\n      dup4\n        /* \"Project.sol\":4844:4854  newRequest */\n      dup2\n        /* \"Project.sol\":4844:4866  newRequest.description */\n      0x00\n      add\n        /* \"Project.sol\":4844:4881  newRequest.description = _description */\n      swap1\n      dup2\n      tag_88\n      swap2\n      swap1\n      tag_89\n      jump\t// in\n    tag_88:\n      pop\n        /* \"Project.sol\":4914:4924  _recepient */\n      dup3\n        /* \"Project.sol\":4891:4901  newRequest */\n      dup2\n        /* \"Project.sol\":4891:4911  newRequest.recepient */\n      0x01\n      add\n      0x00\n        /* \"Project.sol\":4891:4924  newRequest.recepient = _recepient */\n      0x0100\n      exp\n      dup2\n      sload\n      dup2\n      0xffffffffffffffffffffffffffffffffffffffff\n      mul\n      not\n      and\n      swap1\n      dup4\n      0xffffffffffffffffffffffffffffffffffffffff\n      and\n      mul\n      or\n      swap1\n      sstore\n      pop\n        /* \"Project.sol\":4953:4959  _value */\n      dup2\n        /* \"Project.sol\":4934:4944  newRequest */\n      dup2\n        /* \"Project.sol\":4934:4950  newRequest.value */\n      0x02\n      add\n        /* \"Project.sol\":4934:4959  newRequest.value = _value */\n      dup2\n      swap1\n      sstore\n      pop\n        /* \"Project.sol\":4993:4998  false */\n      0x00\n        /* \"Project.sol\":4969:4979  newRequest */\n      dup2\n        /* \"Project.sol\":4969:4990  newRequest.compeleted */\n      0x03\n      add\n      0x00\n        /* \"Project.sol\":4969:4998  newRequest.compeleted = false */\n      0x0100\n      exp\n      dup2\n      sload\n      dup2\n      0xff\n      mul\n      not\n      and\n      swap1\n      dup4\n      iszero\n      iszero\n      mul\n      or\n      swap1\n      sstore\n      pop\n        /* \"Project.sol\":5063:5064  0 */\n      0x00\n        /* \"Project.sol\":5039:5049  newRequest */\n      dup2\n        /* \"Project.sol\":5039:5060  newRequest.noofVoters */\n      0x04\n      add\n        /* \"Project.sol\":5039:5064  newRequest.noofVoters = 0 */\n      dup2\n      swap1\n      sstore\n      pop\n        /* \"Project.sol\":4512:5123  {... */\n      pop\n        /* \"Project.sol\":4368:5123  function createRequest(... */\n      pop\n      pop\n      pop\n      jump\t// out\n        /* \"Project.sol\":93:140  mapping(address => uint256) public contributors */\n    tag_33:\n      mstore(0x20, 0x00)\n      dup1\n      0x00\n      mstore\n      keccak256(0x00, 0x40)\n      0x00\n      swap2\n      pop\n      swap1\n      pop\n      sload\n      dup2\n      jump\t// out\n        /* \"Project.sol\":285:308  uint256 public deadline */\n    tag_37:\n      sload(0x04)\n      dup2\n      jump\t// out\n        /* \"Project.sol\":379:410  uint256 public noofContributors */\n    tag_41:\n      sload(0x06)\n      dup2\n      jump\t// out\n        /* \"Project.sol\":194:216  address public manager */\n    tag_45:\n      0x01\n      0x00\n      swap1\n      sload\n      swap1\n      0x0100\n      exp\n      swap1\n      div\n      0xffffffffffffffffffffffffffffffffffffffff\n      and\n      dup2\n      jump\t// out\n        /* \"Project.sol\":5162:5920  function voteRequest(uint256 _numrequest) public {... */\n    tag_52:\n        /* \"Project.sol\":5269:5270  0 */\n      0x00\n        /* \"Project.sol\":5242:5254  contributors */\n      dup1\n        /* \"Project.sol\":5242:5266  contributors[msg.sender] */\n      0x00\n        /* \"Project.sol\":5255:5265  msg.sender */\n      caller\n        /* \"Project.sol\":5242:5266  contributors[msg.sender] */\n      0xffffffffffffffffffffffffffffffffffffffff\n      and\n      0xffffffffffffffffffffffffffffffffffffffff\n      and\n      dup2\n      mstore\n      0x20\n      add\n      swap1\n      dup2\n      mstore\n      0x20\n      add\n      0x00\n      keccak256\n      sload\n        /* \"Project.sol\":5242:5270  contributors[msg.sender] > 0 */\n      gt\n        /* \"Project.sol\":5221:5346  require(... */\n      tag_91\n      jumpi\n      mload(0x40)\n      0x08c379a000000000000000000000000000000000000000000000000000000000\n      dup2\n      mstore\n      0x04\n      add\n      tag_92\n      swap1\n      tag_93\n      jump\t// in\n    tag_92:\n      mload(0x40)\n      dup1\n      swap2\n      sub\n      swap1\n      revert\n    tag_91:\n        /* \"Project.sol\":5356:5383  request storage thisRequest */\n      0x00\n        /* \"Project.sol\":5386:5397  noofrequest */\n      0x07\n        /* \"Project.sol\":5386:5410  noofrequest[_numrequest] */\n      0x00\n        /* \"Project.sol\":5398:5409  _numrequest */\n      dup4\n        /* \"Project.sol\":5386:5410  noofrequest[_numrequest] */\n      dup2\n      mstore\n      0x20\n      add\n      swap1\n      dup2\n      mstore\n      0x20\n      add\n      0x00\n      keccak256\n        /* \"Project.sol\":5356:5410  request storage thisRequest = noofrequest[_numrequest] */\n      swap1\n      pop\n        /* \"Project.sol\":5610:5615  false */\n      0x00\n        /* \"Project.sol\":5576:5615  thisRequest.voters[msg.sender] == false */\n      iszero\n      iszero\n        /* \"Project.sol\":5576:5587  thisRequest */\n      dup2\n        /* \"Project.sol\":5576:5594  thisRequest.voters */\n      0x05\n      add\n        /* \"Project.sol\":5576:5606  thisRequest.voters[msg.sender] */\n      0x00\n        /* \"Project.sol\":5595:5605  msg.sender */\n      caller\n        /* \"Project.sol\":5576:5606  thisRequest.voters[msg.sender] */\n      0xffffffffffffffffffffffffffffffffffffffff\n      and\n      0xffffffffffffffffffffffffffffffffffffffff\n      and\n      dup2\n      mstore\n      0x20\n      add\n      swap1\n      dup2\n      mstore\n      0x20\n      add\n      0x00\n      keccak256\n      0x00\n      swap1\n      sload\n      swap1\n      0x0100\n      exp\n      swap1\n      div\n      0xff\n      and\n        /* \"Project.sol\":5576:5615  thisRequest.voters[msg.sender] == false */\n      iszero\n      iszero\n      eq\n        /* \"Project.sol\":5555:5663  require(... */\n      tag_94\n      jumpi\n      mload(0x40)\n      0x08c379a000000000000000000000000000000000000000000000000000000000\n      dup2\n      mstore\n      0x04\n      add\n      tag_95\n      swap1\n      tag_96\n      jump\t// in\n    tag_95:\n      mload(0x40)\n      dup1\n      swap2\n      sub\n      swap1\n      revert\n    tag_94:\n        /* \"Project.sol\":5855:5859  true */\n      0x01\n        /* \"Project.sol\":5822:5833  thisRequest */\n      dup2\n        /* \"Project.sol\":5822:5840  thisRequest.voters */\n      0x05\n      add\n        /* \"Project.sol\":5822:5852  thisRequest.voters[msg.sender] */\n      0x00\n        /* \"Project.sol\":5841:5851  msg.sender */\n      caller\n        /* \"Project.sol\":5822:5852  thisRequest.voters[msg.sender] */\n      0xffffffffffffffffffffffffffffffffffffffff\n      and\n      0xffffffffffffffffffffffffffffffffffffffff\n      and\n      dup2\n      mstore\n      0x20\n      add\n      swap1\n      dup2\n      mstore\n      0x20\n      add\n      0x00\n      keccak256\n      0x00\n        /* \"Project.sol\":5822:5859  thisRequest.voters[msg.sender] = true */\n      0x0100\n      exp\n      dup2\n      sload\n      dup2\n      0xff\n      mul\n      not\n      and\n      swap1\n      dup4\n      iszero\n      iszero\n      mul\n      or\n      swap1\n      sstore\n      pop\n        /* \"Project.sol\":5889:5900  thisRequest */\n      dup1\n        /* \"Project.sol\":5889:5911  thisRequest.noofVoters */\n      0x04\n      add\n      0x00\n        /* \"Project.sol\":5889:5913  thisRequest.noofVoters++ */\n      dup2\n      sload\n      dup1\n      swap3\n      swap2\n      swap1\n      tag_97\n      swap1\n      tag_87\n      jump\t// in\n    tag_97:\n      swap2\n      swap1\n      pop\n      sstore\n      pop\n        /* \"Project.sol\":5211:5920  {... */\n      pop\n        /* \"Project.sol\":5162:5920  function voteRequest(uint256 _numrequest) public {... */\n      pop\n      jump\t// out\n        /* \"Project.sol\":3784:3830  mapping(uint256 => request) public noofrequest */\n    tag_56:\n      mstore(0x20, 0x07)\n      dup1\n      0x00\n      mstore\n      keccak256(0x00, 0x40)\n      0x00\n      swap2\n      pop\n      swap1\n      pop\n      dup1\n      0x00\n      add\n      dup1\n      sload\n      tag_98\n      swap1\n      tag_99\n      jump\t// in\n    tag_98:\n      dup1\n      0x1f\n      add\n      0x20\n      dup1\n      swap2\n      div\n      mul\n      0x20\n      add\n      mload(0x40)\n      swap1\n      dup2\n      add\n      0x40\n      mstore\n      dup1\n      swap3\n      swap2\n      swap1\n      dup2\n      dup2\n      mstore\n      0x20\n      add\n      dup3\n      dup1\n      sload\n      tag_100\n      swap1\n      tag_99\n      jump\t// in\n    tag_100:\n      dup1\n      iszero\n      tag_101\n      jumpi\n      dup1\n      0x1f\n      lt\n      tag_102\n      jumpi\n      0x0100\n      dup1\n      dup4\n      sload\n      div\n      mul\n      dup4\n      mstore\n      swap2\n      0x20\n      add\n      swap2\n      jump(tag_101)\n    tag_102:\n      dup3\n      add\n      swap2\n      swap1\n      0x00\n      mstore\n      keccak256(0x00, 0x20)\n      swap1\n    tag_103:\n      dup2\n      sload\n      dup2\n      mstore\n      swap1\n      0x01\n      add\n      swap1\n      0x20\n      add\n      dup1\n      dup4\n      gt\n      tag_103\n      jumpi\n      dup3\n      swap1\n      sub\n      0x1f\n      and\n      dup3\n      add\n      swap2\n    tag_101:\n      pop\n      pop\n      pop\n      pop\n      pop\n      swap1\n      dup1\n      0x01\n      add\n      0x00\n      swap1\n      sload\n      swap1\n      0x0100\n      exp\n      swap1\n      div\n      0xffffffffffffffffffffffffffffffffffffffff\n      and\n      swap1\n      dup1\n      0x02\n      add\n      sload\n      swap1\n      dup1\n      0x03\n      add\n      0x00\n      swap1\n      sload\n      swap1\n      0x0100\n      exp\n      swap1\n      div\n      0xff\n      and\n      swap1\n      dup1\n      0x04\n      add\n      sload\n      swap1\n      pop\n      dup6\n      jump\t// out\n        /* \"Project.sol\":2498:3111  function refund() public {... */\n    tag_61:\n        /* \"Project.sol\":2565:2580  block.timestamp */\n      timestamp\n        /* \"Project.sol\":2554:2562  deadline */\n      sload(0x04)\n        /* \"Project.sol\":2554:2580  deadline < block.timestamp */\n      lt\n        /* \"Project.sol\":2554:2605  deadline < block.timestamp && raisedAmount < target */\n      dup1\n      iszero\n      tag_105\n      jumpi\n      pop\n        /* \"Project.sol\":2599:2605  target */\n      sload(0x03)\n        /* \"Project.sol\":2584:2596  raisedAmount */\n      sload(0x05)\n        /* \"Project.sol\":2584:2605  raisedAmount < target */\n      lt\n        /* \"Project.sol\":2554:2605  deadline < block.timestamp && raisedAmount < target */\n    tag_105:\n        /* \"Project.sol\":2533:2674  require(... */\n      tag_106\n      jumpi\n      mload(0x40)\n      0x08c379a000000000000000000000000000000000000000000000000000000000\n      dup2\n      mstore\n      0x04\n      add\n      tag_107\n      swap1\n      tag_108\n      jump\t// in\n    tag_107:\n      mload(0x40)\n      dup1\n      swap2\n      sub\n      swap1\n      revert\n    tag_106:\n        /* \"Project.sol\":2719:2720  0 */\n      0x00\n        /* \"Project.sol\":2692:2704  contributors */\n      dup1\n        /* \"Project.sol\":2692:2716  contributors[msg.sender] */\n      0x00\n        /* \"Project.sol\":2705:2715  msg.sender */\n      caller\n        /* \"Project.sol\":2692:2716  contributors[msg.sender] */\n      0xffffffffffffffffffffffffffffffffffffffff\n      and\n      0xffffffffffffffffffffffffffffffffffffffff\n      and\n      dup2\n      mstore\n      0x20\n      add\n      swap1\n      dup2\n      mstore\n      0x20\n      add\n      0x00\n      keccak256\n      sload\n        /* \"Project.sol\":2692:2720  contributors[msg.sender] > 0 */\n      gt\n        /* \"Project.sol\":2684:2752  require(contributors[msg.sender] > 0, \"You didnt participated only\") */\n      tag_109\n      jumpi\n      mload(0x40)\n      0x08c379a000000000000000000000000000000000000000000000000000000000\n      dup2\n      mstore\n      0x04\n      add\n      tag_110\n      swap1\n      tag_111\n      jump\t// in\n    tag_110:\n      mload(0x40)\n      dup1\n      swap2\n      sub\n      swap1\n      revert\n    tag_109:\n        /* \"Project.sol\":2828:2848  address payable user */\n      0x00\n        /* \"Project.sol\":2859:2869  msg.sender */\n      caller\n        /* \"Project.sol\":2828:2870  address payable user = payable(msg.sender) */\n      swap1\n      pop\n        /* \"Project.sol\":2948:2952  user */\n      dup1\n        /* \"Project.sol\":2948:2961  user.transfer */\n      0xffffffffffffffffffffffffffffffffffffffff\n      and\n        /* \"Project.sol\":2948:2987  user.transfer(contributors[msg.sender]) */\n      0x08fc\n        /* \"Project.sol\":2962:2974  contributors */\n      0x00\n        /* \"Project.sol\":2962:2986  contributors[msg.sender] */\n      dup1\n        /* \"Project.sol\":2975:2985  msg.sender */\n      caller\n        /* \"Project.sol\":2962:2986  contributors[msg.sender] */\n      0xffffffffffffffffffffffffffffffffffffffff\n      and\n      0xffffffffffffffffffffffffffffffffffffffff\n      and\n      dup2\n      mstore\n      0x20\n      add\n      swap1\n      dup2\n      mstore\n      0x20\n      add\n      0x00\n      keccak256\n      sload\n        /* \"Project.sol\":2948:2987  user.transfer(contributors[msg.sender]) */\n      swap1\n      dup2\n      iszero\n      mul\n      swap1\n      mload(0x40)\n      0x00\n      mload(0x40)\n      dup1\n      dup4\n      sub\n      dup2\n      dup6\n      dup9\n      dup9\n      call\n      swap4\n      pop\n      pop\n      pop\n      pop\n      iszero\n      dup1\n      iszero\n      tag_113\n      jumpi\n      returndatasize\n      0x00\n      dup1\n      returndatacopy\n      revert(0x00, returndatasize)\n    tag_113:\n      pop\n        /* \"Project.sol\":3053:3054  0 */\n      0x00\n        /* \"Project.sol\":3026:3038  contributors */\n      dup1\n        /* \"Project.sol\":3026:3050  contributors[msg.sender] */\n      0x00\n        /* \"Project.sol\":3039:3049  msg.sender */\n      caller\n        /* \"Project.sol\":3026:3050  contributors[msg.sender] */\n      0xffffffffffffffffffffffffffffffffffffffff\n      and\n      0xffffffffffffffffffffffffffffffffffffffff\n      and\n      dup2\n      mstore\n      0x20\n      add\n      swap1\n      dup2\n      mstore\n      0x20\n      add\n      0x00\n      keccak256\n        /* \"Project.sol\":3026:3054  contributors[msg.sender] = 0 */\n      dup2\n      swap1\n      sstore\n      pop\n        /* \"Project.sol\":2523:3111  {... */\n      pop\n        /* \"Project.sol\":2498:3111  function refund() public {... */\n      jump\t// out\n        /* \"Project.sol\":735:2359  function sendEthertocontract() public payable {... */\n    tag_63:\n        /* \"Project.sol\":823:838  block.timestamp */\n      timestamp\n        /* \"Project.sol\":812:820  deadline */\n      sload(0x04)\n        /* \"Project.sol\":812:838  deadline > block.timestamp */\n      gt\n        /* \"Project.sol\":791:898  require(... */\n      tag_115\n      jumpi\n      mload(0x40)\n      0x08c379a000000000000000000000000000000000000000000000000000000000\n      dup2\n      mstore\n      0x04\n      add\n      tag_116\n      swap1\n      tag_117\n      jump\t// in\n    tag_116:\n      mload(0x40)\n      dup1\n      swap2\n      sub\n      swap1\n      revert\n    tag_115:\n        /* \"Project.sol\":987:1002  minContribution */\n      sload(0x02)\n        /* \"Project.sol\":974:983  msg.value */\n      callvalue\n        /* \"Project.sol\":974:1002  msg.value >= minContribution */\n      lt\n      iszero\n        /* \"Project.sol\":953:1059  require(... */\n      tag_118\n      jumpi\n      mload(0x40)\n      0x08c379a000000000000000000000000000000000000000000000000000000000\n      dup2\n      mstore\n      0x04\n      add\n      tag_119\n      swap1\n      tag_120\n      jump\t// in\n    tag_119:\n      mload(0x40)\n      dup1\n      swap2\n      sub\n      swap1\n      revert\n    tag_118:\n        /* \"Project.sol\":1629:1630  0 */\n      0x00\n        /* \"Project.sol\":1601:1613  contributors */\n      dup1\n        /* \"Project.sol\":1601:1625  contributors[msg.sender] */\n      0x00\n        /* \"Project.sol\":1614:1624  msg.sender */\n      caller\n        /* \"Project.sol\":1601:1625  contributors[msg.sender] */\n      0xffffffffffffffffffffffffffffffffffffffff\n      and\n      0xffffffffffffffffffffffffffffffffffffffff\n      and\n      dup2\n      mstore\n      0x20\n      add\n      swap1\n      dup2\n      mstore\n      0x20\n      add\n      0x00\n      keccak256\n      sload\n        /* \"Project.sol\":1601:1630  contributors[msg.sender] == 0 */\n      sub\n        /* \"Project.sol\":1597:1967  if (contributors[msg.sender] == 0) {... */\n      tag_121\n      jumpi\n        /* \"Project.sol\":1938:1954  noofContributors */\n      0x06\n      0x00\n        /* \"Project.sol\":1938:1956  noofContributors++ */\n      dup2\n      sload\n      dup1\n      swap3\n      swap2\n      swap1\n      tag_122\n      swap1\n      tag_87\n      jump\t// in\n    tag_122:\n      swap2\n      swap1\n      pop\n      sstore\n      pop\n        /* \"Project.sol\":1597:1967  if (contributors[msg.sender] == 0) {... */\n    tag_121:\n        /* \"Project.sol\":2185:2194  msg.value */\n      callvalue\n        /* \"Project.sol\":2158:2170  contributors */\n      0x00\n        /* \"Project.sol\":2158:2182  contributors[msg.sender] */\n      dup1\n        /* \"Project.sol\":2171:2181  msg.sender */\n      caller\n        /* \"Project.sol\":2158:2182  contributors[msg.sender] */\n      0xffffffffffffffffffffffffffffffffffffffff\n      and\n      0xffffffffffffffffffffffffffffffffffffffff\n      and\n      dup2\n      mstore\n      0x20\n      add\n      swap1\n      dup2\n      mstore\n      0x20\n      add\n      0x00\n      keccak256\n      sload\n        /* \"Project.sol\":2158:2194  contributors[msg.sender] + msg.value */\n      tag_123\n      swap2\n      swap1\n      tag_124\n      jump\t// in\n    tag_123:\n        /* \"Project.sol\":2131:2143  contributors */\n      0x00\n        /* \"Project.sol\":2131:2155  contributors[msg.sender] */\n      dup1\n        /* \"Project.sol\":2144:2154  msg.sender */\n      caller\n        /* \"Project.sol\":2131:2155  contributors[msg.sender] */\n      0xffffffffffffffffffffffffffffffffffffffff\n      and\n      0xffffffffffffffffffffffffffffffffffffffff\n      and\n      dup2\n      mstore\n      0x20\n      add\n      swap1\n      dup2\n      mstore\n      0x20\n      add\n      0x00\n      keccak256\n        /* \"Project.sol\":2131:2194  contributors[msg.sender] = contributors[msg.sender] + msg.value */\n      dup2\n      swap1\n      sstore\n      pop\n        /* \"Project.sol\":2343:2352  msg.value */\n      callvalue\n        /* \"Project.sol\":2328:2340  raisedAmount */\n      sload(0x05)\n        /* \"Project.sol\":2328:2352  raisedAmount + msg.value */\n      tag_125\n      swap2\n      swap1\n      tag_124\n      jump\t// in\n    tag_125:\n        /* \"Project.sol\":2313:2325  raisedAmount */\n      0x05\n        /* \"Project.sol\":2313:2352  raisedAmount = raisedAmount + msg.value */\n      dup2\n      swap1\n      sstore\n      pop\n        /* \"Project.sol\":735:2359  function sendEthertocontract() public payable {... */\n      jump\t// out\n        /* \"Project.sol\":222:252  uint256 public minContribution */\n    tag_66:\n      sload(0x02)\n      dup2\n      jump\t// out\n        /* \"Project.sol\":314:341  uint256 public raisedAmount */\n    tag_70:\n      sload(0x05)\n      dup2\n      jump\t// out\n        /* \"Project.sol\":258:279  uint256 public target */\n    tag_74:\n      sload(0x03)\n      dup2\n      jump\t// out\n        /* \"Project.sol\":4007:4032  uint256 public numrequest */\n    tag_78:\n      sload(0x08)\n      dup2\n      jump\t// out\n        /* \"#utility.yul\":7:84   */\n    tag_126:\n        /* \"#utility.yul\":44:51   */\n      0x00\n        /* \"#utility.yul\":73:78   */\n      dup2\n        /* \"#utility.yul\":62:78   */\n      swap1\n      pop\n        /* \"#utility.yul\":7:84   */\n      swap2\n      swap1\n      pop\n      jump\t// out\n        /* \"#utility.yul\":90:208   */\n    tag_127:\n        /* \"#utility.yul\":177:201   */\n      tag_192\n        /* \"#utility.yul\":195:200   */\n      dup2\n        /* \"#utility.yul\":177:201   */\n      tag_126\n      jump\t// in\n    tag_192:\n        /* \"#utility.yul\":172:175   */\n      dup3\n        /* \"#utility.yul\":165:202   */\n      mstore\n        /* \"#utility.yul\":90:208   */\n      pop\n      pop\n      jump\t// out\n        /* \"#utility.yul\":214:436   */\n    tag_23:\n        /* \"#utility.yul\":307:311   */\n      0x00\n        /* \"#utility.yul\":345:347   */\n      0x20\n        /* \"#utility.yul\":334:343   */\n      dup3\n        /* \"#utility.yul\":330:348   */\n      add\n        /* \"#utility.yul\":322:348   */\n      swap1\n      pop\n        /* \"#utility.yul\":358:429   */\n      tag_194\n        /* \"#utility.yul\":426:427   */\n      0x00\n        /* \"#utility.yul\":415:424   */\n      dup4\n        /* \"#utility.yul\":411:428   */\n      add\n        /* \"#utility.yul\":402:408   */\n      dup5\n        /* \"#utility.yul\":358:429   */\n      tag_127\n      jump\t// in\n    tag_194:\n        /* \"#utility.yul\":214:436   */\n      swap3\n      swap2\n      pop\n      pop\n      jump\t// out\n        /* \"#utility.yul\":442:517   */\n    tag_128:\n        /* \"#utility.yul\":475:481   */\n      0x00\n        /* \"#utility.yul\":508:510   */\n      0x40\n        /* \"#utility.yul\":502:511   */\n      mload\n        /* \"#utility.yul\":492:511   */\n      swap1\n      pop\n        /* \"#utility.yul\":442:517   */\n      swap1\n      jump\t// out\n        /* \"#utility.yul\":523:640   */\n    tag_129:\n        /* \"#utility.yul\":632:633   */\n      0x00\n        /* \"#utility.yul\":629:630   */\n      dup1\n        /* \"#utility.yul\":622:634   */\n      revert\n        /* \"#utility.yul\":646:763   */\n    tag_130:\n        /* \"#utility.yul\":755:756   */\n      0x00\n        /* \"#utility.yul\":752:753   */\n      dup1\n        /* \"#utility.yul\":745:757   */\n      revert\n        /* \"#utility.yul\":769:886   */\n    tag_131:\n        /* \"#utility.yul\":878:879   */\n      0x00\n        /* \"#utility.yul\":875:876   */\n      dup1\n        /* \"#utility.yul\":868:880   */\n      revert\n        /* \"#utility.yul\":892:1009   */\n    tag_132:\n        /* \"#utility.yul\":1001:1002   */\n      0x00\n        /* \"#utility.yul\":998:999   */\n      dup1\n        /* \"#utility.yul\":991:1003   */\n      revert\n        /* \"#utility.yul\":1015:1117   */\n    tag_133:\n        /* \"#utility.yul\":1056:1062   */\n      0x00\n        /* \"#utility.yul\":1107:1109   */\n      0x1f\n        /* \"#utility.yul\":1103:1110   */\n      not\n        /* \"#utility.yul\":1098:1100   */\n      0x1f\n        /* \"#utility.yul\":1091:1096   */\n      dup4\n        /* \"#utility.yul\":1087:1101   */\n      add\n        /* \"#utility.yul\":1083:1111   */\n      and\n        /* \"#utility.yul\":1073:1111   */\n      swap1\n      pop\n        /* \"#utility.yul\":1015:1117   */\n      swap2\n      swap1\n      pop\n      jump\t// out\n        /* \"#utility.yul\":1123:1303   */\n    tag_134:\n        /* \"#utility.yul\":1171:1248   */\n      0x4e487b7100000000000000000000000000000000000000000000000000000000\n        /* \"#utility.yul\":1168:1169   */\n      0x00\n        /* \"#utility.yul\":1161:1249   */\n      mstore\n        /* \"#utility.yul\":1268:1272   */\n      0x41\n        /* \"#utility.yul\":1265:1266   */\n      0x04\n        /* \"#utility.yul\":1258:1273   */\n      mstore\n        /* \"#utility.yul\":1292:1296   */\n      0x24\n        /* \"#utility.yul\":1289:1290   */\n      0x00\n        /* \"#utility.yul\":1282:1297   */\n      revert\n        /* \"#utility.yul\":1309:1590   */\n    tag_135:\n        /* \"#utility.yul\":1392:1419   */\n      tag_203\n        /* \"#utility.yul\":1414:1418   */\n      dup3\n        /* \"#utility.yul\":1392:1419   */\n      tag_133\n      jump\t// in\n    tag_203:\n        /* \"#utility.yul\":1384:1390   */\n      dup2\n        /* \"#utility.yul\":1380:1420   */\n      add\n        /* \"#utility.yul\":1522:1528   */\n      dup2\n        /* \"#utility.yul\":1510:1520   */\n      dup2\n        /* \"#utility.yul\":1507:1529   */\n      lt\n        /* \"#utility.yul\":1486:1504   */\n      0xffffffffffffffff\n        /* \"#utility.yul\":1474:1484   */\n      dup3\n        /* \"#utility.yul\":1471:1505   */\n      gt\n        /* \"#utility.yul\":1468:1530   */\n      or\n        /* \"#utility.yul\":1465:1553   */\n      iszero\n      tag_204\n      jumpi\n        /* \"#utility.yul\":1533:1551   */\n      tag_205\n      tag_134\n      jump\t// in\n    tag_205:\n        /* \"#utility.yul\":1465:1553   */\n    tag_204:\n        /* \"#utility.yul\":1573:1583   */\n      dup1\n        /* \"#utility.yul\":1569:1571   */\n      0x40\n        /* \"#utility.yul\":1562:1584   */\n      mstore\n        /* \"#utility.yul\":1352:1590   */\n      pop\n        /* \"#utility.yul\":1309:1590   */\n      pop\n      pop\n      jump\t// out\n        /* \"#utility.yul\":1596:1725   */\n    tag_136:\n        /* \"#utility.yul\":1630:1636   */\n      0x00\n        /* \"#utility.yul\":1657:1677   */\n      tag_207\n      tag_128\n      jump\t// in\n    tag_207:\n        /* \"#utility.yul\":1647:1677   */\n      swap1\n      pop\n        /* \"#utility.yul\":1686:1719   */\n      tag_208\n        /* \"#utility.yul\":1714:1718   */\n      dup3\n        /* \"#utility.yul\":1706:1712   */\n      dup3\n        /* \"#utility.yul\":1686:1719   */\n      tag_135\n      jump\t// in\n    tag_208:\n        /* \"#utility.yul\":1596:1725   */\n      swap2\n      swap1\n      pop\n      jump\t// out\n        /* \"#utility.yul\":1731:2039   */\n    tag_137:\n        /* \"#utility.yul\":1793:1797   */\n      0x00\n        /* \"#utility.yul\":1883:1901   */\n      0xffffffffffffffff\n        /* \"#utility.yul\":1875:1881   */\n      dup3\n        /* \"#utility.yul\":1872:1902   */\n      gt\n        /* \"#utility.yul\":1869:1925   */\n      iszero\n      tag_210\n      jumpi\n        /* \"#utility.yul\":1905:1923   */\n      tag_211\n      tag_134\n      jump\t// in\n    tag_211:\n        /* \"#utility.yul\":1869:1925   */\n    tag_210:\n        /* \"#utility.yul\":1943:1972   */\n      tag_212\n        /* \"#utility.yul\":1965:1971   */\n      dup3\n        /* \"#utility.yul\":1943:1972   */\n      tag_133\n      jump\t// in\n    tag_212:\n        /* \"#utility.yul\":1935:1972   */\n      swap1\n      pop\n        /* \"#utility.yul\":2027:2031   */\n      0x20\n        /* \"#utility.yul\":2021:2025   */\n      dup2\n        /* \"#utility.yul\":2017:2032   */\n      add\n        /* \"#utility.yul\":2009:2032   */\n      swap1\n      pop\n        /* \"#utility.yul\":1731:2039   */\n      swap2\n      swap1\n      pop\n      jump\t// out\n        /* \"#utility.yul\":2045:2191   */\n    tag_138:\n        /* \"#utility.yul\":2142:2148   */\n      dup3\n        /* \"#utility.yul\":2137:2140   */\n      dup2\n        /* \"#utility.yul\":2132:2135   */\n      dup4\n        /* \"#utility.yul\":2119:2149   */\n      calldatacopy\n        /* \"#utility.yul\":2183:2184   */\n      0x00\n        /* \"#utility.yul\":2174:2180   */\n      dup4\n        /* \"#utility.yul\":2169:2172   */\n      dup4\n        /* \"#utility.yul\":2165:2181   */\n      add\n        /* \"#utility.yul\":2158:2185   */\n      mstore\n        /* \"#utility.yul\":2045:2191   */\n      pop\n      pop\n      pop\n      jump\t// out\n        /* \"#utility.yul\":2197:2622   */\n    tag_139:\n        /* \"#utility.yul\":2275:2280   */\n      0x00\n        /* \"#utility.yul\":2300:2366   */\n      tag_215\n        /* \"#utility.yul\":2316:2365   */\n      tag_216\n        /* \"#utility.yul\":2358:2364   */\n      dup5\n        /* \"#utility.yul\":2316:2365   */\n      tag_137\n      jump\t// in\n    tag_216:\n        /* \"#utility.yul\":2300:2366   */\n      tag_136\n      jump\t// in\n    tag_215:\n        /* \"#utility.yul\":2291:2366   */\n      swap1\n      pop\n        /* \"#utility.yul\":2389:2395   */\n      dup3\n        /* \"#utility.yul\":2382:2387   */\n      dup2\n        /* \"#utility.yul\":2375:2396   */\n      mstore\n        /* \"#utility.yul\":2427:2431   */\n      0x20\n        /* \"#utility.yul\":2420:2425   */\n      dup2\n        /* \"#utility.yul\":2416:2432   */\n      add\n        /* \"#utility.yul\":2465:2468   */\n      dup5\n        /* \"#utility.yul\":2456:2462   */\n      dup5\n        /* \"#utility.yul\":2451:2454   */\n      dup5\n        /* \"#utility.yul\":2447:2463   */\n      add\n        /* \"#utility.yul\":2444:2469   */\n      gt\n        /* \"#utility.yul\":2441:2553   */\n      iszero\n      tag_217\n      jumpi\n        /* \"#utility.yul\":2472:2551   */\n      tag_218\n      tag_132\n      jump\t// in\n    tag_218:\n        /* \"#utility.yul\":2441:2553   */\n    tag_217:\n        /* \"#utility.yul\":2562:2616   */\n      tag_219\n        /* \"#utility.yul\":2609:2615   */\n      dup5\n        /* \"#utility.yul\":2604:2607   */\n      dup3\n        /* \"#utility.yul\":2599:2602   */\n      dup6\n        /* \"#utility.yul\":2562:2616   */\n      tag_138\n      jump\t// in\n    tag_219:\n        /* \"#utility.yul\":2281:2622   */\n      pop\n        /* \"#utility.yul\":2197:2622   */\n      swap4\n      swap3\n      pop\n      pop\n      pop\n      jump\t// out\n        /* \"#utility.yul\":2642:2982   */\n    tag_140:\n        /* \"#utility.yul\":2698:2703   */\n      0x00\n        /* \"#utility.yul\":2747:2750   */\n      dup3\n        /* \"#utility.yul\":2740:2744   */\n      0x1f\n        /* \"#utility.yul\":2732:2738   */\n      dup4\n        /* \"#utility.yul\":2728:2745   */\n      add\n        /* \"#utility.yul\":2724:2751   */\n      slt\n        /* \"#utility.yul\":2714:2836   */\n      tag_221\n      jumpi\n        /* \"#utility.yul\":2755:2834   */\n      tag_222\n      tag_131\n      jump\t// in\n    tag_222:\n        /* \"#utility.yul\":2714:2836   */\n    tag_221:\n        /* \"#utility.yul\":2872:2878   */\n      dup2\n        /* \"#utility.yul\":2859:2879   */\n      calldataload\n        /* \"#utility.yul\":2897:2976   */\n      tag_223\n        /* \"#utility.yul\":2972:2975   */\n      dup5\n        /* \"#utility.yul\":2964:2970   */\n      dup3\n        /* \"#utility.yul\":2957:2961   */\n      0x20\n        /* \"#utility.yul\":2949:2955   */\n      dup7\n        /* \"#utility.yul\":2945:2962   */\n      add\n        /* \"#utility.yul\":2897:2976   */\n      tag_139\n      jump\t// in\n    tag_223:\n        /* \"#utility.yul\":2888:2976   */\n      swap2\n      pop\n        /* \"#utility.yul\":2704:2982   */\n      pop\n        /* \"#utility.yul\":2642:2982   */\n      swap3\n      swap2\n      pop\n      pop\n      jump\t// out\n        /* \"#utility.yul\":2988:3114   */\n    tag_141:\n        /* \"#utility.yul\":3025:3032   */\n      0x00\n        /* \"#utility.yul\":3065:3107   */\n      0xffffffffffffffffffffffffffffffffffffffff\n        /* \"#utility.yul\":3058:3063   */\n      dup3\n        /* \"#utility.yul\":3054:3108   */\n      and\n        /* \"#utility.yul\":3043:3108   */\n      swap1\n      pop\n        /* \"#utility.yul\":2988:3114   */\n      swap2\n      swap1\n      pop\n      jump\t// out\n        /* \"#utility.yul\":3120:3224   */\n    tag_142:\n        /* \"#utility.yul\":3165:3172   */\n      0x00\n        /* \"#utility.yul\":3194:3218   */\n      tag_226\n        /* \"#utility.yul\":3212:3217   */\n      dup3\n        /* \"#utility.yul\":3194:3218   */\n      tag_141\n      jump\t// in\n    tag_226:\n        /* \"#utility.yul\":3183:3218   */\n      swap1\n      pop\n        /* \"#utility.yul\":3120:3224   */\n      swap2\n      swap1\n      pop\n      jump\t// out\n        /* \"#utility.yul\":3230:3368   */\n    tag_143:\n        /* \"#utility.yul\":3311:3343   */\n      tag_228\n        /* \"#utility.yul\":3337:3342   */\n      dup2\n        /* \"#utility.yul\":3311:3343   */\n      tag_142\n      jump\t// in\n    tag_228:\n        /* \"#utility.yul\":3304:3309   */\n      dup2\n        /* \"#utility.yul\":3301:3344   */\n      eq\n        /* \"#utility.yul\":3291:3362   */\n      tag_229\n      jumpi\n        /* \"#utility.yul\":3358:3359   */\n      0x00\n        /* \"#utility.yul\":3355:3356   */\n      dup1\n        /* \"#utility.yul\":3348:3360   */\n      revert\n        /* \"#utility.yul\":3291:3362   */\n    tag_229:\n        /* \"#utility.yul\":3230:3368   */\n      pop\n      jump\t// out\n        /* \"#utility.yul\":3374:3529   */\n    tag_144:\n        /* \"#utility.yul\":3428:3433   */\n      0x00\n        /* \"#utility.yul\":3466:3472   */\n      dup2\n        /* \"#utility.yul\":3453:3473   */\n      calldataload\n        /* \"#utility.yul\":3444:3473   */\n      swap1\n      pop\n        /* \"#utility.yul\":3482:3523   */\n      tag_231\n        /* \"#utility.yul\":3517:3522   */\n      dup2\n        /* \"#utility.yul\":3482:3523   */\n      tag_143\n      jump\t// in\n    tag_231:\n        /* \"#utility.yul\":3374:3529   */\n      swap3\n      swap2\n      pop\n      pop\n      jump\t// out\n        /* \"#utility.yul\":3535:3657   */\n    tag_145:\n        /* \"#utility.yul\":3608:3632   */\n      tag_233\n        /* \"#utility.yul\":3626:3631   */\n      dup2\n        /* \"#utility.yul\":3608:3632   */\n      tag_126\n      jump\t// in\n    tag_233:\n        /* \"#utility.yul\":3601:3606   */\n      dup2\n        /* \"#utility.yul\":3598:3633   */\n      eq\n        /* \"#utility.yul\":3588:3651   */\n      tag_234\n      jumpi\n        /* \"#utility.yul\":3647:3648   */\n      0x00\n        /* \"#utility.yul\":3644:3645   */\n      dup1\n        /* \"#utility.yul\":3637:3649   */\n      revert\n        /* \"#utility.yul\":3588:3651   */\n    tag_234:\n        /* \"#utility.yul\":3535:3657   */\n      pop\n      jump\t// out\n        /* \"#utility.yul\":3663:3802   */\n    tag_146:\n        /* \"#utility.yul\":3709:3714   */\n      0x00\n        /* \"#utility.yul\":3747:3753   */\n      dup2\n        /* \"#utility.yul\":3734:3754   */\n      calldataload\n        /* \"#utility.yul\":3725:3754   */\n      swap1\n      pop\n        /* \"#utility.yul\":3763:3796   */\n      tag_236\n        /* \"#utility.yul\":3790:3795   */\n      dup2\n        /* \"#utility.yul\":3763:3796   */\n      tag_145\n      jump\t// in\n    tag_236:\n        /* \"#utility.yul\":3663:3802   */\n      swap3\n      swap2\n      pop\n      pop\n      jump\t// out\n        /* \"#utility.yul\":3808:4623   */\n    tag_27:\n        /* \"#utility.yul\":3903:3909   */\n      0x00\n        /* \"#utility.yul\":3911:3917   */\n      dup1\n        /* \"#utility.yul\":3919:3925   */\n      0x00\n        /* \"#utility.yul\":3968:3970   */\n      0x60\n        /* \"#utility.yul\":3956:3965   */\n      dup5\n        /* \"#utility.yul\":3947:3954   */\n      dup7\n        /* \"#utility.yul\":3943:3966   */\n      sub\n        /* \"#utility.yul\":3939:3971   */\n      slt\n        /* \"#utility.yul\":3936:4055   */\n      iszero\n      tag_238\n      jumpi\n        /* \"#utility.yul\":3974:4053   */\n      tag_239\n      tag_129\n      jump\t// in\n    tag_239:\n        /* \"#utility.yul\":3936:4055   */\n    tag_238:\n        /* \"#utility.yul\":4122:4123   */\n      0x00\n        /* \"#utility.yul\":4111:4120   */\n      dup5\n        /* \"#utility.yul\":4107:4124   */\n      add\n        /* \"#utility.yul\":4094:4125   */\n      calldataload\n        /* \"#utility.yul\":4152:4170   */\n      0xffffffffffffffff\n        /* \"#utility.yul\":4144:4150   */\n      dup2\n        /* \"#utility.yul\":4141:4171   */\n      gt\n        /* \"#utility.yul\":4138:4255   */\n      iszero\n      tag_240\n      jumpi\n        /* \"#utility.yul\":4174:4253   */\n      tag_241\n      tag_130\n      jump\t// in\n    tag_241:\n        /* \"#utility.yul\":4138:4255   */\n    tag_240:\n        /* \"#utility.yul\":4279:4342   */\n      tag_242\n        /* \"#utility.yul\":4334:4341   */\n      dup7\n        /* \"#utility.yul\":4325:4331   */\n      dup3\n        /* \"#utility.yul\":4314:4323   */\n      dup8\n        /* \"#utility.yul\":4310:4332   */\n      add\n        /* \"#utility.yul\":4279:4342   */\n      tag_140\n      jump\t// in\n    tag_242:\n        /* \"#utility.yul\":4269:4342   */\n      swap4\n      pop\n        /* \"#utility.yul\":4065:4352   */\n      pop\n        /* \"#utility.yul\":4391:4393   */\n      0x20\n        /* \"#utility.yul\":4417:4478   */\n      tag_243\n        /* \"#utility.yul\":4470:4477   */\n      dup7\n        /* \"#utility.yul\":4461:4467   */\n      dup3\n        /* \"#utility.yul\":4450:4459   */\n      dup8\n        /* \"#utility.yul\":4446:4468   */\n      add\n        /* \"#utility.yul\":4417:4478   */\n      tag_144\n      jump\t// in\n    tag_243:\n        /* \"#utility.yul\":4407:4478   */\n      swap3\n      pop\n        /* \"#utility.yul\":4362:4488   */\n      pop\n        /* \"#utility.yul\":4527:4529   */\n      0x40\n        /* \"#utility.yul\":4553:4606   */\n      tag_244\n        /* \"#utility.yul\":4598:4605   */\n      dup7\n        /* \"#utility.yul\":4589:4595   */\n      dup3\n        /* \"#utility.yul\":4578:4587   */\n      dup8\n        /* \"#utility.yul\":4574:4596   */\n      add\n        /* \"#utility.yul\":4553:4606   */\n      tag_146\n      jump\t// in\n    tag_244:\n        /* \"#utility.yul\":4543:4606   */\n      swap2\n      pop\n        /* \"#utility.yul\":4498:4616   */\n      pop\n        /* \"#utility.yul\":3808:4623   */\n      swap3\n      pop\n      swap3\n      pop\n      swap3\n      jump\t// out\n        /* \"#utility.yul\":4629:4725   */\n    tag_147:\n        /* \"#utility.yul\":4666:4673   */\n      0x00\n        /* \"#utility.yul\":4695:4719   */\n      tag_246\n        /* \"#utility.yul\":4713:4718   */\n      dup3\n        /* \"#utility.yul\":4695:4719   */\n      tag_141\n      jump\t// in\n    tag_246:\n        /* \"#utility.yul\":4684:4719   */\n      swap1\n      pop\n        /* \"#utility.yul\":4629:4725   */\n      swap2\n      swap1\n      pop\n      jump\t// out\n        /* \"#utility.yul\":4731:4853   */\n    tag_148:\n        /* \"#utility.yul\":4804:4828   */\n      tag_248\n        /* \"#utility.yul\":4822:4827   */\n      dup2\n        /* \"#utility.yul\":4804:4828   */\n      tag_147\n      jump\t// in\n    tag_248:\n        /* \"#utility.yul\":4797:4802   */\n      dup2\n        /* \"#utility.yul\":4794:4829   */\n      eq\n        /* \"#utility.yul\":4784:4847   */\n      tag_249\n      jumpi\n        /* \"#utility.yul\":4843:4844   */\n      0x00\n        /* \"#utility.yul\":4840:4841   */\n      dup1\n        /* \"#utility.yul\":4833:4845   */\n      revert\n        /* \"#utility.yul\":4784:4847   */\n    tag_249:\n        /* \"#utility.yul\":4731:4853   */\n      pop\n      jump\t// out\n        /* \"#utility.yul\":4859:4998   */\n    tag_149:\n        /* \"#utility.yul\":4905:4910   */\n      0x00\n        /* \"#utility.yul\":4943:4949   */\n      dup2\n        /* \"#utility.yul\":4930:4950   */\n      calldataload\n        /* \"#utility.yul\":4921:4950   */\n      swap1\n      pop\n        /* \"#utility.yul\":4959:4992   */\n      tag_251\n        /* \"#utility.yul\":4986:4991   */\n      dup2\n        /* \"#utility.yul\":4959:4992   */\n      tag_148\n      jump\t// in\n    tag_251:\n        /* \"#utility.yul\":4859:4998   */\n      swap3\n      swap2\n      pop\n      pop\n      jump\t// out\n        /* \"#utility.yul\":5004:5333   */\n    tag_32:\n        /* \"#utility.yul\":5063:5069   */\n      0x00\n        /* \"#utility.yul\":5112:5114   */\n      0x20\n        /* \"#utility.yul\":5100:5109   */\n      dup3\n        /* \"#utility.yul\":5091:5098   */\n      dup5\n        /* \"#utility.yul\":5087:5110   */\n      sub\n        /* \"#utility.yul\":5083:5115   */\n      slt\n        /* \"#utility.yul\":5080:5199   */\n      iszero\n      tag_253\n      jumpi\n        /* \"#utility.yul\":5118:5197   */\n      tag_254\n      tag_129\n      jump\t// in\n    tag_254:\n        /* \"#utility.yul\":5080:5199   */\n    tag_253:\n        /* \"#utility.yul\":5238:5239   */\n      0x00\n        /* \"#utility.yul\":5263:5316   */\n      tag_255\n        /* \"#utility.yul\":5308:5315   */\n      dup5\n        /* \"#utility.yul\":5299:5305   */\n      dup3\n        /* \"#utility.yul\":5288:5297   */\n      dup6\n        /* \"#utility.yul\":5284:5306   */\n      add\n        /* \"#utility.yul\":5263:5316   */\n      tag_149\n      jump\t// in\n    tag_255:\n        /* \"#utility.yul\":5253:5316   */\n      swap2\n      pop\n        /* \"#utility.yul\":5209:5326   */\n      pop\n        /* \"#utility.yul\":5004:5333   */\n      swap3\n      swap2\n      pop\n      pop\n      jump\t// out\n        /* \"#utility.yul\":5339:5457   */\n    tag_150:\n        /* \"#utility.yul\":5426:5450   */\n      tag_257\n        /* \"#utility.yul\":5444:5449   */\n      dup2\n        /* \"#utility.yul\":5426:5450   */\n      tag_147\n      jump\t// in\n    tag_257:\n        /* \"#utility.yul\":5421:5424   */\n      dup3\n        /* \"#utility.yul\":5414:5451   */\n      mstore\n        /* \"#utility.yul\":5339:5457   */\n      pop\n      pop\n      jump\t// out\n        /* \"#utility.yul\":5463:5685   */\n    tag_47:\n        /* \"#utility.yul\":5556:5560   */\n      0x00\n        /* \"#utility.yul\":5594:5596   */\n      0x20\n        /* \"#utility.yul\":5583:5592   */\n      dup3\n        /* \"#utility.yul\":5579:5597   */\n      add\n        /* \"#utility.yul\":5571:5597   */\n      swap1\n      pop\n        /* \"#utility.yul\":5607:5678   */\n      tag_259\n        /* \"#utility.yul\":5675:5676   */\n      0x00\n        /* \"#utility.yul\":5664:5673   */\n      dup4\n        /* \"#utility.yul\":5660:5677   */\n      add\n        /* \"#utility.yul\":5651:5657   */\n      dup5\n        /* \"#utility.yul\":5607:5678   */\n      tag_150\n      jump\t// in\n    tag_259:\n        /* \"#utility.yul\":5463:5685   */\n      swap3\n      swap2\n      pop\n      pop\n      jump\t// out\n        /* \"#utility.yul\":5691:6020   */\n    tag_51:\n        /* \"#utility.yul\":5750:5756   */\n      0x00\n        /* \"#utility.yul\":5799:5801   */\n      0x20\n        /* \"#utility.yul\":5787:5796   */\n      dup3\n        /* \"#utility.yul\":5778:5785   */\n      dup5\n        /* \"#utility.yul\":5774:5797   */\n      sub\n        /* \"#utility.yul\":5770:5802   */\n      slt\n        /* \"#utility.yul\":5767:5886   */\n      iszero\n      tag_261\n      jumpi\n        /* \"#utility.yul\":5805:5884   */\n      tag_262\n      tag_129\n      jump\t// in\n    tag_262:\n        /* \"#utility.yul\":5767:5886   */\n    tag_261:\n        /* \"#utility.yul\":5925:5926   */\n      0x00\n        /* \"#utility.yul\":5950:6003   */\n      tag_263\n        /* \"#utility.yul\":5995:6002   */\n      dup5\n        /* \"#utility.yul\":5986:5992   */\n      dup3\n        /* \"#utility.yul\":5975:5984   */\n      dup6\n        /* \"#utility.yul\":5971:5993   */\n      add\n        /* \"#utility.yul\":5950:6003   */\n      tag_146\n      jump\t// in\n    tag_263:\n        /* \"#utility.yul\":5940:6003   */\n      swap2\n      pop\n        /* \"#utility.yul\":5896:6013   */\n      pop\n        /* \"#utility.yul\":5691:6020   */\n      swap3\n      swap2\n      pop\n      pop\n      jump\t// out\n        /* \"#utility.yul\":6026:6125   */\n    tag_151:\n        /* \"#utility.yul\":6078:6084   */\n      0x00\n        /* \"#utility.yul\":6112:6117   */\n      dup2\n        /* \"#utility.yul\":6106:6118   */\n      mload\n        /* \"#utility.yul\":6096:6118   */\n      swap1\n      pop\n        /* \"#utility.yul\":6026:6125   */\n      swap2\n      swap1\n      pop\n      jump\t// out\n        /* \"#utility.yul\":6131:6300   */\n    tag_152:\n        /* \"#utility.yul\":6215:6226   */\n      0x00\n        /* \"#utility.yul\":6249:6255   */\n      dup3\n        /* \"#utility.yul\":6244:6247   */\n      dup3\n        /* \"#utility.yul\":6237:6256   */\n      mstore\n        /* \"#utility.yul\":6289:6293   */\n      0x20\n        /* \"#utility.yul\":6284:6287   */\n      dup3\n        /* \"#utility.yul\":6280:6294   */\n      add\n        /* \"#utility.yul\":6265:6294   */\n      swap1\n      pop\n        /* \"#utility.yul\":6131:6300   */\n      swap3\n      swap2\n      pop\n      pop\n      jump\t// out\n        /* \"#utility.yul\":6306:6552   */\n    tag_153:\n        /* \"#utility.yul\":6387:6388   */\n      0x00\n        /* \"#utility.yul\":6397:6510   */\n    tag_267:\n        /* \"#utility.yul\":6411:6417   */\n      dup4\n        /* \"#utility.yul\":6408:6409   */\n      dup2\n        /* \"#utility.yul\":6405:6418   */\n      lt\n        /* \"#utility.yul\":6397:6510   */\n      iszero\n      tag_269\n      jumpi\n        /* \"#utility.yul\":6496:6497   */\n      dup1\n        /* \"#utility.yul\":6491:6494   */\n      dup3\n        /* \"#utility.yul\":6487:6498   */\n      add\n        /* \"#utility.yul\":6481:6499   */\n      mload\n        /* \"#utility.yul\":6477:6478   */\n      dup2\n        /* \"#utility.yul\":6472:6475   */\n      dup5\n        /* \"#utility.yul\":6468:6479   */\n      add\n        /* \"#utility.yul\":6461:6500   */\n      mstore\n        /* \"#utility.yul\":6433:6435   */\n      0x20\n        /* \"#utility.yul\":6430:6431   */\n      dup2\n        /* \"#utility.yul\":6426:6436   */\n      add\n        /* \"#utility.yul\":6421:6436   */\n      swap1\n      pop\n        /* \"#utility.yul\":6397:6510   */\n      jump(tag_267)\n    tag_269:\n        /* \"#utility.yul\":6544:6545   */\n      0x00\n        /* \"#utility.yul\":6535:6541   */\n      dup5\n        /* \"#utility.yul\":6530:6533   */\n      dup5\n        /* \"#utility.yul\":6526:6542   */\n      add\n        /* \"#utility.yul\":6519:6546   */\n      mstore\n        /* \"#utility.yul\":6368:6552   */\n      pop\n        /* \"#utility.yul\":6306:6552   */\n      pop\n      pop\n      pop\n      jump\t// out\n        /* \"#utility.yul\":6558:6935   */\n    tag_154:\n        /* \"#utility.yul\":6646:6649   */\n      0x00\n        /* \"#utility.yul\":6674:6713   */\n      tag_271\n        /* \"#utility.yul\":6707:6712   */\n      dup3\n        /* \"#utility.yul\":6674:6713   */\n      tag_151\n      jump\t// in\n    tag_271:\n        /* \"#utility.yul\":6729:6800   */\n      tag_272\n        /* \"#utility.yul\":6793:6799   */\n      dup2\n        /* \"#utility.yul\":6788:6791   */\n      dup6\n        /* \"#utility.yul\":6729:6800   */\n      tag_152\n      jump\t// in\n    tag_272:\n        /* \"#utility.yul\":6722:6800   */\n      swap4\n      pop\n        /* \"#utility.yul\":6809:6874   */\n      tag_273\n        /* \"#utility.yul\":6867:6873   */\n      dup2\n        /* \"#utility.yul\":6862:6865   */\n      dup6\n        /* \"#utility.yul\":6855:6859   */\n      0x20\n        /* \"#utility.yul\":6848:6853   */\n      dup7\n        /* \"#utility.yul\":6844:6860   */\n      add\n        /* \"#utility.yul\":6809:6874   */\n      tag_153\n      jump\t// in\n    tag_273:\n        /* \"#utility.yul\":6899:6928   */\n      tag_274\n        /* \"#utility.yul\":6921:6927   */\n      dup2\n        /* \"#utility.yul\":6899:6928   */\n      tag_133\n      jump\t// in\n    tag_274:\n        /* \"#utility.yul\":6894:6897   */\n      dup5\n        /* \"#utility.yul\":6890:6929   */\n      add\n        /* \"#utility.yul\":6883:6929   */\n      swap2\n      pop\n        /* \"#utility.yul\":6650:6935   */\n      pop\n        /* \"#utility.yul\":6558:6935   */\n      swap3\n      swap2\n      pop\n      pop\n      jump\t// out\n        /* \"#utility.yul\":6941:7083   */\n    tag_155:\n        /* \"#utility.yul\":7044:7076   */\n      tag_276\n        /* \"#utility.yul\":7070:7075   */\n      dup2\n        /* \"#utility.yul\":7044:7076   */\n      tag_142\n      jump\t// in\n    tag_276:\n        /* \"#utility.yul\":7039:7042   */\n      dup3\n        /* \"#utility.yul\":7032:7077   */\n      mstore\n        /* \"#utility.yul\":6941:7083   */\n      pop\n      pop\n      jump\t// out\n        /* \"#utility.yul\":7089:7179   */\n    tag_156:\n        /* \"#utility.yul\":7123:7130   */\n      0x00\n        /* \"#utility.yul\":7166:7171   */\n      dup2\n        /* \"#utility.yul\":7159:7172   */\n      iszero\n        /* \"#utility.yul\":7152:7173   */\n      iszero\n        /* \"#utility.yul\":7141:7173   */\n      swap1\n      pop\n        /* \"#utility.yul\":7089:7179   */\n      swap2\n      swap1\n      pop\n      jump\t// out\n        /* \"#utility.yul\":7185:7294   */\n    tag_157:\n        /* \"#utility.yul\":7266:7287   */\n      tag_279\n        /* \"#utility.yul\":7281:7286   */\n      dup2\n        /* \"#utility.yul\":7266:7287   */\n      tag_156\n      jump\t// in\n    tag_279:\n        /* \"#utility.yul\":7261:7264   */\n      dup3\n        /* \"#utility.yul\":7254:7288   */\n      mstore\n        /* \"#utility.yul\":7185:7294   */\n      pop\n      pop\n      jump\t// out\n        /* \"#utility.yul\":7300:8075   */\n    tag_58:\n        /* \"#utility.yul\":7535:7539   */\n      0x00\n        /* \"#utility.yul\":7573:7576   */\n      0xa0\n        /* \"#utility.yul\":7562:7571   */\n      dup3\n        /* \"#utility.yul\":7558:7577   */\n      add\n        /* \"#utility.yul\":7550:7577   */\n      swap1\n      pop\n        /* \"#utility.yul\":7623:7632   */\n      dup2\n        /* \"#utility.yul\":7617:7621   */\n      dup2\n        /* \"#utility.yul\":7613:7633   */\n      sub\n        /* \"#utility.yul\":7609:7610   */\n      0x00\n        /* \"#utility.yul\":7598:7607   */\n      dup4\n        /* \"#utility.yul\":7594:7611   */\n      add\n        /* \"#utility.yul\":7587:7634   */\n      mstore\n        /* \"#utility.yul\":7651:7729   */\n      tag_281\n        /* \"#utility.yul\":7724:7728   */\n      dup2\n        /* \"#utility.yul\":7715:7721   */\n      dup9\n        /* \"#utility.yul\":7651:7729   */\n      tag_154\n      jump\t// in\n    tag_281:\n        /* \"#utility.yul\":7643:7729   */\n      swap1\n      pop\n        /* \"#utility.yul\":7739:7827   */\n      tag_282\n        /* \"#utility.yul\":7823:7825   */\n      0x20\n        /* \"#utility.yul\":7812:7821   */\n      dup4\n        /* \"#utility.yul\":7808:7826   */\n      add\n        /* \"#utility.yul\":7799:7805   */\n      dup8\n        /* \"#utility.yul\":7739:7827   */\n      tag_155\n      jump\t// in\n    tag_282:\n        /* \"#utility.yul\":7837:7909   */\n      tag_283\n        /* \"#utility.yul\":7905:7907   */\n      0x40\n        /* \"#utility.yul\":7894:7903   */\n      dup4\n        /* \"#utility.yul\":7890:7908   */\n      add\n        /* \"#utility.yul\":7881:7887   */\n      dup7\n        /* \"#utility.yul\":7837:7909   */\n      tag_127\n      jump\t// in\n    tag_283:\n        /* \"#utility.yul\":7919:7985   */\n      tag_284\n        /* \"#utility.yul\":7981:7983   */\n      0x60\n        /* \"#utility.yul\":7970:7979   */\n      dup4\n        /* \"#utility.yul\":7966:7984   */\n      add\n        /* \"#utility.yul\":7957:7963   */\n      dup6\n        /* \"#utility.yul\":7919:7985   */\n      tag_157\n      jump\t// in\n    tag_284:\n        /* \"#utility.yul\":7995:8068   */\n      tag_285\n        /* \"#utility.yul\":8063:8066   */\n      0x80\n        /* \"#utility.yul\":8052:8061   */\n      dup4\n        /* \"#utility.yul\":8048:8067   */\n      add\n        /* \"#utility.yul\":8039:8045   */\n      dup5\n        /* \"#utility.yul\":7995:8068   */\n      tag_127\n      jump\t// in\n    tag_285:\n        /* \"#utility.yul\":7300:8075   */\n      swap7\n      swap6\n      pop\n      pop\n      pop\n      pop\n      pop\n      pop\n      jump\t// out\n        /* \"#utility.yul\":8081:8303   */\n    tag_158:\n        /* \"#utility.yul\":8221:8255   */\n      0x4f6e6c79206d616e616765722063616e2063616c6c20726769732066756e6374\n        /* \"#utility.yul\":8217:8218   */\n      0x00\n        /* \"#utility.yul\":8209:8215   */\n      dup3\n        /* \"#utility.yul\":8205:8219   */\n      add\n        /* \"#utility.yul\":8198:8256   */\n      mstore\n        /* \"#utility.yul\":8290:8295   */\n      0x696f6e0000000000000000000000000000000000000000000000000000000000\n        /* \"#utility.yul\":8285:8287   */\n      0x20\n        /* \"#utility.yul\":8277:8283   */\n      dup3\n        /* \"#utility.yul\":8273:8288   */\n      add\n        /* \"#utility.yul\":8266:8296   */\n      mstore\n        /* \"#utility.yul\":8081:8303   */\n      pop\n      jump\t// out\n        /* \"#utility.yul\":8309:8675   */\n    tag_159:\n        /* \"#utility.yul\":8451:8454   */\n      0x00\n        /* \"#utility.yul\":8472:8539   */\n      tag_288\n        /* \"#utility.yul\":8536:8538   */\n      0x23\n        /* \"#utility.yul\":8531:8534   */\n      dup4\n        /* \"#utility.yul\":8472:8539   */\n      tag_152\n      jump\t// in\n    tag_288:\n        /* \"#utility.yul\":8465:8539   */\n      swap2\n      pop\n        /* \"#utility.yul\":8548:8641   */\n      tag_289\n        /* \"#utility.yul\":8637:8640   */\n      dup3\n        /* \"#utility.yul\":8548:8641   */\n      tag_158\n      jump\t// in\n    tag_289:\n        /* \"#utility.yul\":8666:8668   */\n      0x40\n        /* \"#utility.yul\":8661:8664   */\n      dup3\n        /* \"#utility.yul\":8657:8669   */\n      add\n        /* \"#utility.yul\":8650:8669   */\n      swap1\n      pop\n        /* \"#utility.yul\":8309:8675   */\n      swap2\n      swap1\n      pop\n      jump\t// out\n        /* \"#utility.yul\":8681:9100   */\n    tag_84:\n        /* \"#utility.yul\":8847:8851   */\n      0x00\n        /* \"#utility.yul\":8885:8887   */\n      0x20\n        /* \"#utility.yul\":8874:8883   */\n      dup3\n        /* \"#utility.yul\":8870:8888   */\n      add\n        /* \"#utility.yul\":8862:8888   */\n      swap1\n      pop\n        /* \"#utility.yul\":8934:8943   */\n      dup2\n        /* \"#utility.yul\":8928:8932   */\n      dup2\n        /* \"#utility.yul\":8924:8944   */\n      sub\n        /* \"#utility.yul\":8920:8921   */\n      0x00\n        /* \"#utility.yul\":8909:8918   */\n      dup4\n        /* \"#utility.yul\":8905:8922   */\n      add\n        /* \"#utility.yul\":8898:8945   */\n      mstore\n        /* \"#utility.yul\":8962:9093   */\n      tag_291\n        /* \"#utility.yul\":9088:9092   */\n      dup2\n        /* \"#utility.yul\":8962:9093   */\n      tag_159\n      jump\t// in\n    tag_291:\n        /* \"#utility.yul\":8954:9093   */\n      swap1\n      pop\n        /* \"#utility.yul\":8681:9100   */\n      swap2\n      swap1\n      pop\n      jump\t// out\n        /* \"#utility.yul\":9106:9286   */\n    tag_160:\n        /* \"#utility.yul\":9154:9231   */\n      0x4e487b7100000000000000000000000000000000000000000000000000000000\n        /* \"#utility.yul\":9151:9152   */\n      0x00\n        /* \"#utility.yul\":9144:9232   */\n      mstore\n        /* \"#utility.yul\":9251:9255   */\n      0x11\n        /* \"#utility.yul\":9248:9249   */\n      0x04\n        /* \"#utility.yul\":9241:9256   */\n      mstore\n        /* \"#utility.yul\":9275:9279   */\n      0x24\n        /* \"#utility.yul\":9272:9273   */\n      0x00\n        /* \"#utility.yul\":9265:9280   */\n      revert\n        /* \"#utility.yul\":9292:9525   */\n    tag_87:\n        /* \"#utility.yul\":9331:9334   */\n      0x00\n        /* \"#utility.yul\":9354:9378   */\n      tag_294\n        /* \"#utility.yul\":9372:9377   */\n      dup3\n        /* \"#utility.yul\":9354:9378   */\n      tag_126\n      jump\t// in\n    tag_294:\n        /* \"#utility.yul\":9345:9378   */\n      swap2\n      pop\n        /* \"#utility.yul\":9400:9466   */\n      0xffffffffffffffffffffffffffffffffffffffffffffffffffffffffffffffff\n        /* \"#utility.yul\":9393:9398   */\n      dup3\n        /* \"#utility.yul\":9390:9467   */\n      sub\n        /* \"#utility.yul\":9387:9490   */\n      tag_295\n      jumpi\n        /* \"#utility.yul\":9470:9488   */\n      tag_296\n      tag_160\n      jump\t// in\n    tag_296:\n        /* \"#utility.yul\":9387:9490   */\n    tag_295:\n        /* \"#utility.yul\":9517:9518   */\n      0x01\n        /* \"#utility.yul\":9510:9515   */\n      dup3\n        /* \"#utility.yul\":9506:9519   */\n      add\n        /* \"#utility.yul\":9499:9519   */\n      swap1\n      pop\n        /* \"#utility.yul\":9292:9525   */\n      swap2\n      swap1\n      pop\n      jump\t// out\n        /* \"#utility.yul\":9531:9711   */\n    tag_161:\n        /* \"#utility.yul\":9579:9656   */\n      0x4e487b7100000000000000000000000000000000000000000000000000000000\n        /* \"#utility.yul\":9576:9577   */\n      0x00\n        /* \"#utility.yul\":9569:9657   */\n      mstore\n        /* \"#utility.yul\":9676:9680   */\n      0x22\n        /* \"#utility.yul\":9673:9674   */\n      0x04\n        /* \"#utility.yul\":9666:9681   */\n      mstore\n        /* \"#utility.yul\":9700:9704   */\n      0x24\n        /* \"#utility.yul\":9697:9698   */\n      0x00\n        /* \"#utility.yul\":9690:9705   */\n      revert\n        /* \"#utility.yul\":9717:10037   */\n    tag_99:\n        /* \"#utility.yul\":9761:9767   */\n      0x00\n        /* \"#utility.yul\":9798:9799   */\n      0x02\n        /* \"#utility.yul\":9792:9796   */\n      dup3\n        /* \"#utility.yul\":9788:9800   */\n      div\n        /* \"#utility.yul\":9778:9800   */\n      swap1\n      pop\n        /* \"#utility.yul\":9845:9846   */\n      0x01\n        /* \"#utility.yul\":9839:9843   */\n      dup3\n        /* \"#utility.yul\":9835:9847   */\n      and\n        /* \"#utility.yul\":9866:9884   */\n      dup1\n        /* \"#utility.yul\":9856:9937   */\n      tag_299\n      jumpi\n        /* \"#utility.yul\":9922:9926   */\n      0x7f\n        /* \"#utility.yul\":9914:9920   */\n      dup3\n        /* \"#utility.yul\":9910:9927   */\n      and\n        /* \"#utility.yul\":9900:9927   */\n      swap2\n      pop\n        /* \"#utility.yul\":9856:9937   */\n    tag_299:\n        /* \"#utility.yul\":9984:9986   */\n      0x20\n        /* \"#utility.yul\":9976:9982   */\n      dup3\n        /* \"#utility.yul\":9973:9987   */\n      lt\n        /* \"#utility.yul\":9953:9971   */\n      dup2\n        /* \"#utility.yul\":9950:9988   */\n      sub\n        /* \"#utility.yul\":9947:10031   */\n      tag_300\n      jumpi\n        /* \"#utility.yul\":10003:10021   */\n      tag_301\n      tag_161\n      jump\t// in\n    tag_301:\n        /* \"#utility.yul\":9947:10031   */\n    tag_300:\n        /* \"#utility.yul\":9768:10037   */\n      pop\n        /* \"#utility.yul\":9717:10037   */\n      swap2\n      swap1\n      pop\n      jump\t// out\n        /* \"#utility.yul\":10043:10184   */\n    tag_162:\n        /* \"#utility.yul\":10092:10096   */\n      0x00\n        /* \"#utility.yul\":10115:10118   */\n      dup2\n        /* \"#utility.yul\":10107:10118   */\n      swap1\n      pop\n        /* \"#utility.yul\":10138:10141   */\n      dup2\n        /* \"#utility.yul\":10135:10136   */\n      0x00\n        /* \"#utility.yul\":10128:10142   */\n      mstore\n        /* \"#utility.yul\":10172:10176   */\n      0x20\n        /* \"#utility.yul\":10169:10170   */\n      0x00\n        /* \"#utility.yul\":10159:10177   */\n      keccak256\n        /* \"#utility.yul\":10151:10177   */\n      swap1\n      pop\n        /* \"#utility.yul\":10043:10184   */\n      swap2\n      swap1\n      pop\n      jump\t// out\n        /* \"#utility.yul\":10190:10283   */\n    tag_163:\n        /* \"#utility.yul\":10227:10233   */\n      0x00\n        /* \"#utility.yul\":10274:10276   */\n      0x20\n        /* \"#utility.yul\":10269:10271   */\n      0x1f\n        /* \"#utility.yul\":10262:10267   */\n      dup4\n        /* \"#utility.yul\":10258:10272   */\n      add\n        /* \"#utility.yul\":10254:10277   */\n      div\n        /* \"#utility.yul\":10244:10277   */\n      swap1\n      pop\n        /* \"#utility.yul\":10190:10283   */\n      swap2\n      swap1\n      pop\n      jump\t// out\n        /* \"#utility.yul\":10289:10396   */\n    tag_164:\n        /* \"#utility.yul\":10333:10341   */\n      0x00\n        /* \"#utility.yul\":10383:10388   */\n      dup3\n        /* \"#utility.yul\":10377:10381   */\n      dup3\n        /* \"#utility.yul\":10373:10389   */\n      shl\n        /* \"#utility.yul\":10352:10389   */\n      swap1\n      pop\n        /* \"#utility.yul\":10289:10396   */\n      swap3\n      swap2\n      pop\n      pop\n      jump\t// out\n        /* \"#utility.yul\":10402:10795   */\n    tag_165:\n        /* \"#utility.yul\":10471:10477   */\n      0x00\n        /* \"#utility.yul\":10521:10522   */\n      0x08\n        /* \"#utility.yul\":10509:10519   */\n      dup4\n        /* \"#utility.yul\":10505:10523   */\n      mul\n        /* \"#utility.yul\":10544:10641   */\n      tag_306\n        /* \"#utility.yul\":10574:10640   */\n      0xffffffffffffffffffffffffffffffffffffffffffffffffffffffffffffffff\n        /* \"#utility.yul\":10563:10572   */\n      dup3\n        /* \"#utility.yul\":10544:10641   */\n      tag_164\n      jump\t// in\n    tag_306:\n        /* \"#utility.yul\":10662:10701   */\n      tag_307\n        /* \"#utility.yul\":10692:10700   */\n      dup7\n        /* \"#utility.yul\":10681:10690   */\n      dup4\n        /* \"#utility.yul\":10662:10701   */\n      tag_164\n      jump\t// in\n    tag_307:\n        /* \"#utility.yul\":10650:10701   */\n      swap6\n      pop\n        /* \"#utility.yul\":10734:10738   */\n      dup1\n        /* \"#utility.yul\":10730:10739   */\n      not\n        /* \"#utility.yul\":10723:10728   */\n      dup5\n        /* \"#utility.yul\":10719:10740   */\n      and\n        /* \"#utility.yul\":10710:10740   */\n      swap4\n      pop\n        /* \"#utility.yul\":10783:10787   */\n      dup1\n        /* \"#utility.yul\":10773:10781   */\n      dup7\n        /* \"#utility.yul\":10769:10788   */\n      and\n        /* \"#utility.yul\":10762:10767   */\n      dup5\n        /* \"#utility.yul\":10759:10789   */\n      or\n        /* \"#utility.yul\":10749:10789   */\n      swap3\n      pop\n        /* \"#utility.yul\":10478:10795   */\n      pop\n      pop\n        /* \"#utility.yul\":10402:10795   */\n      swap4\n      swap3\n      pop\n      pop\n      pop\n      jump\t// out\n        /* \"#utility.yul\":10801:10861   */\n    tag_166:\n        /* \"#utility.yul\":10829:10832   */\n      0x00\n        /* \"#utility.yul\":10850:10855   */\n      dup2\n        /* \"#utility.yul\":10843:10855   */\n      swap1\n      pop\n        /* \"#utility.yul\":10801:10861   */\n      swap2\n      swap1\n      pop\n      jump\t// out\n        /* \"#utility.yul\":10867:11009   */\n    tag_167:\n        /* \"#utility.yul\":10917:10926   */\n      0x00\n        /* \"#utility.yul\":10950:11003   */\n      tag_310\n        /* \"#utility.yul\":10968:11002   */\n      tag_311\n        /* \"#utility.yul\":10977:11001   */\n      tag_312\n        /* \"#utility.yul\":10995:11000   */\n      dup5\n        /* \"#utility.yul\":10977:11001   */\n      tag_126\n      jump\t// in\n    tag_312:\n        /* \"#utility.yul\":10968:11002   */\n      tag_166\n      jump\t// in\n    tag_311:\n        /* \"#utility.yul\":10950:11003   */\n      tag_126\n      jump\t// in\n    tag_310:\n        /* \"#utility.yul\":10937:11003   */\n      swap1\n      pop\n        /* \"#utility.yul\":10867:11009   */\n      swap2\n      swap1\n      pop\n      jump\t// out\n        /* \"#utility.yul\":11015:11090   */\n    tag_168:\n        /* \"#utility.yul\":11058:11061   */\n      0x00\n        /* \"#utility.yul\":11079:11084   */\n      dup2\n        /* \"#utility.yul\":11072:11084   */\n      swap1\n      pop\n        /* \"#utility.yul\":11015:11090   */\n      swap2\n      swap1\n      pop\n      jump\t// out\n        /* \"#utility.yul\":11096:11365   */\n    tag_169:\n        /* \"#utility.yul\":11206:11245   */\n      tag_315\n        /* \"#utility.yul\":11237:11244   */\n      dup4\n        /* \"#utility.yul\":11206:11245   */\n      tag_167\n      jump\t// in\n    tag_315:\n        /* \"#utility.yul\":11267:11358   */\n      tag_316\n        /* \"#utility.yul\":11316:11357   */\n      tag_317\n        /* \"#utility.yul\":11340:11356   */\n      dup3\n        /* \"#utility.yul\":11316:11357   */\n      tag_168\n      jump\t// in\n    tag_317:\n        /* \"#utility.yul\":11308:11314   */\n      dup5\n        /* \"#utility.yul\":11301:11305   */\n      dup5\n        /* \"#utility.yul\":11295:11306   */\n      sload\n        /* \"#utility.yul\":11267:11358   */\n      tag_165\n      jump\t// in\n    tag_316:\n        /* \"#utility.yul\":11261:11265   */\n      dup3\n        /* \"#utility.yul\":11254:11359   */\n      sstore\n        /* \"#utility.yul\":11172:11365   */\n      pop\n        /* \"#utility.yul\":11096:11365   */\n      pop\n      pop\n      pop\n      jump\t// out\n        /* \"#utility.yul\":11371:11444   */\n    tag_170:\n        /* \"#utility.yul\":11416:11419   */\n      0x00\n        /* \"#utility.yul\":11371:11444   */\n      swap1\n      jump\t// out\n        /* \"#utility.yul\":11450:11639   */\n    tag_171:\n        /* \"#utility.yul\":11527:11559   */\n      tag_320\n      tag_170\n      jump\t// in\n    tag_320:\n        /* \"#utility.yul\":11568:11633   */\n      tag_321\n        /* \"#utility.yul\":11626:11632   */\n      dup2\n        /* \"#utility.yul\":11618:11624   */\n      dup5\n        /* \"#utility.yul\":11612:11616   */\n      dup5\n        /* \"#utility.yul\":11568:11633   */\n      tag_169\n      jump\t// in\n    tag_321:\n        /* \"#utility.yul\":11503:11639   */\n      pop\n        /* \"#utility.yul\":11450:11639   */\n      pop\n      pop\n      jump\t// out\n        /* \"#utility.yul\":11645:11831   */\n    tag_172:\n        /* \"#utility.yul\":11705:11825   */\n    tag_323:\n        /* \"#utility.yul\":11722:11725   */\n      dup2\n        /* \"#utility.yul\":11715:11720   */\n      dup2\n        /* \"#utility.yul\":11712:11726   */\n      lt\n        /* \"#utility.yul\":11705:11825   */\n      iszero\n      tag_325\n      jumpi\n        /* \"#utility.yul\":11776:11815   */\n      tag_326\n        /* \"#utility.yul\":11813:11814   */\n      0x00\n        /* \"#utility.yul\":11806:11811   */\n      dup3\n        /* \"#utility.yul\":11776:11815   */\n      tag_171\n      jump\t// in\n    tag_326:\n        /* \"#utility.yul\":11749:11750   */\n      0x01\n        /* \"#utility.yul\":11742:11747   */\n      dup2\n        /* \"#utility.yul\":11738:11751   */\n      add\n        /* \"#utility.yul\":11729:11751   */\n      swap1\n      pop\n        /* \"#utility.yul\":11705:11825   */\n      jump(tag_323)\n    tag_325:\n        /* \"#utility.yul\":11645:11831   */\n      pop\n      pop\n      jump\t// out\n        /* \"#utility.yul\":11837:12380   */\n    tag_173:\n        /* \"#utility.yul\":11938:11940   */\n      0x1f\n        /* \"#utility.yul\":11933:11936   */\n      dup3\n        /* \"#utility.yul\":11930:11941   */\n      gt\n        /* \"#utility.yul\":11927:12373   */\n      iszero\n      tag_328\n      jumpi\n        /* \"#utility.yul\":11972:12010   */\n      tag_329\n        /* \"#utility.yul\":12004:12009   */\n      dup2\n        /* \"#utility.yul\":11972:12010   */\n      tag_162\n      jump\t// in\n    tag_329:\n        /* \"#utility.yul\":12056:12085   */\n      tag_330\n        /* \"#utility.yul\":12074:12084   */\n      dup5\n        /* \"#utility.yul\":12056:12085   */\n      tag_163\n      jump\t// in\n    tag_330:\n        /* \"#utility.yul\":12046:12054   */\n      dup2\n        /* \"#utility.yul\":12042:12086   */\n      add\n        /* \"#utility.yul\":12239:12241   */\n      0x20\n        /* \"#utility.yul\":12227:12237   */\n      dup6\n        /* \"#utility.yul\":12224:12242   */\n      lt\n        /* \"#utility.yul\":12221:12270   */\n      iszero\n      tag_331\n      jumpi\n        /* \"#utility.yul\":12260:12268   */\n      dup2\n        /* \"#utility.yul\":12245:12268   */\n      swap1\n      pop\n        /* \"#utility.yul\":12221:12270   */\n    tag_331:\n        /* \"#utility.yul\":12283:12363   */\n      tag_332\n        /* \"#utility.yul\":12339:12361   */\n      tag_333\n        /* \"#utility.yul\":12357:12360   */\n      dup6\n        /* \"#utility.yul\":12339:12361   */\n      tag_163\n      jump\t// in\n    tag_333:\n        /* \"#utility.yul\":12329:12337   */\n      dup4\n        /* \"#utility.yul\":12325:12362   */\n      add\n        /* \"#utility.yul\":12312:12323   */\n      dup3\n        /* \"#utility.yul\":12283:12363   */\n      tag_172\n      jump\t// in\n    tag_332:\n        /* \"#utility.yul\":11942:12373   */\n      pop\n      pop\n        /* \"#utility.yul\":11927:12373   */\n    tag_328:\n        /* \"#utility.yul\":11837:12380   */\n      pop\n      pop\n      pop\n      jump\t// out\n        /* \"#utility.yul\":12386:12503   */\n    tag_174:\n        /* \"#utility.yul\":12440:12448   */\n      0x00\n        /* \"#utility.yul\":12490:12495   */\n      dup3\n        /* \"#utility.yul\":12484:12488   */\n      dup3\n        /* \"#utility.yul\":12480:12496   */\n      shr\n        /* \"#utility.yul\":12459:12496   */\n      swap1\n      pop\n        /* \"#utility.yul\":12386:12503   */\n      swap3\n      swap2\n      pop\n      pop\n      jump\t// out\n        /* \"#utility.yul\":12509:12678   */\n    tag_175:\n        /* \"#utility.yul\":12553:12559   */\n      0x00\n        /* \"#utility.yul\":12586:12637   */\n      tag_336\n        /* \"#utility.yul\":12634:12635   */\n      0x00\n        /* \"#utility.yul\":12630:12636   */\n      not\n        /* \"#utility.yul\":12622:12627   */\n      dup5\n        /* \"#utility.yul\":12619:12620   */\n      0x08\n        /* \"#utility.yul\":12615:12628   */\n      mul\n        /* \"#utility.yul\":12586:12637   */\n      tag_174\n      jump\t// in\n    tag_336:\n        /* \"#utility.yul\":12582:12638   */\n      not\n        /* \"#utility.yul\":12667:12671   */\n      dup1\n        /* \"#utility.yul\":12661:12665   */\n      dup4\n        /* \"#utility.yul\":12657:12672   */\n      and\n        /* \"#utility.yul\":12647:12672   */\n      swap2\n      pop\n        /* \"#utility.yul\":12560:12678   */\n      pop\n        /* \"#utility.yul\":12509:12678   */\n      swap3\n      swap2\n      pop\n      pop\n      jump\t// out\n        /* \"#utility.yul\":12683:12978   */\n    tag_176:\n        /* \"#utility.yul\":12759:12763   */\n      0x00\n        /* \"#utility.yul\":12905:12934   */\n      tag_338\n        /* \"#utility.yul\":12930:12933   */\n      dup4\n        /* \"#utility.yul\":12924:12928   */\n      dup4\n        /* \"#utility.yul\":12905:12934   */\n      tag_175\n      jump\t// in\n    tag_338:\n        /* \"#utility.yul\":12897:12934   */\n      swap2\n      pop\n        /* \"#utility.yul\":12967:12970   */\n      dup3\n        /* \"#utility.yul\":12964:12965   */\n      0x02\n        /* \"#utility.yul\":12960:12971   */\n      mul\n        /* \"#utility.yul\":12954:12958   */\n      dup3\n        /* \"#utility.yul\":12951:12972   */\n      or\n        /* \"#utility.yul\":12943:12972   */\n      swap1\n      pop\n        /* \"#utility.yul\":12683:12978   */\n      swap3\n      swap2\n      pop\n      pop\n      jump\t// out\n        /* \"#utility.yul\":12983:14378   */\n    tag_89:\n        /* \"#utility.yul\":13100:13137   */\n      tag_340\n        /* \"#utility.yul\":13133:13136   */\n      dup3\n        /* \"#utility.yul\":13100:13137   */\n      tag_151\n      jump\t// in\n    tag_340:\n        /* \"#utility.yul\":13202:13220   */\n      0xffffffffffffffff\n        /* \"#utility.yul\":13194:13200   */\n      dup2\n        /* \"#utility.yul\":13191:13221   */\n      gt\n        /* \"#utility.yul\":13188:13244   */\n      iszero\n      tag_341\n      jumpi\n        /* \"#utility.yul\":13224:13242   */\n      tag_342\n      tag_134\n      jump\t// in\n    tag_342:\n        /* \"#utility.yul\":13188:13244   */\n    tag_341:\n        /* \"#utility.yul\":13268:13306   */\n      tag_343\n        /* \"#utility.yul\":13300:13304   */\n      dup3\n        /* \"#utility.yul\":13294:13305   */\n      sload\n        /* \"#utility.yul\":13268:13306   */\n      tag_99\n      jump\t// in\n    tag_343:\n        /* \"#utility.yul\":13353:13420   */\n      tag_344\n        /* \"#utility.yul\":13413:13419   */\n      dup3\n        /* \"#utility.yul\":13405:13411   */\n      dup3\n        /* \"#utility.yul\":13399:13403   */\n      dup6\n        /* \"#utility.yul\":13353:13420   */\n      tag_173\n      jump\t// in\n    tag_344:\n        /* \"#utility.yul\":13447:13448   */\n      0x00\n        /* \"#utility.yul\":13471:13475   */\n      0x20\n        /* \"#utility.yul\":13458:13475   */\n      swap1\n      pop\n        /* \"#utility.yul\":13503:13505   */\n      0x1f\n        /* \"#utility.yul\":13495:13501   */\n      dup4\n        /* \"#utility.yul\":13492:13506   */\n      gt\n        /* \"#utility.yul\":13520:13521   */\n      0x01\n        /* \"#utility.yul\":13515:14133   */\n      dup2\n      eq\n      tag_346\n      jumpi\n        /* \"#utility.yul\":14177:14178   */\n      0x00\n        /* \"#utility.yul\":14194:14200   */\n      dup5\n        /* \"#utility.yul\":14191:14268   */\n      iszero\n      tag_347\n      jumpi\n        /* \"#utility.yul\":14243:14252   */\n      dup3\n        /* \"#utility.yul\":14238:14241   */\n      dup8\n        /* \"#utility.yul\":14234:14253   */\n      add\n        /* \"#utility.yul\":14228:14254   */\n      mload\n        /* \"#utility.yul\":14219:14254   */\n      swap1\n      pop\n        /* \"#utility.yul\":14191:14268   */\n    tag_347:\n        /* \"#utility.yul\":14294:14361   */\n      tag_348\n        /* \"#utility.yul\":14354:14360   */\n      dup6\n        /* \"#utility.yul\":14347:14352   */\n      dup3\n        /* \"#utility.yul\":14294:14361   */\n      tag_176\n      jump\t// in\n    tag_348:\n        /* \"#utility.yul\":14288:14292   */\n      dup7\n        /* \"#utility.yul\":14281:14362   */\n      sstore\n        /* \"#utility.yul\":14150:14372   */\n      pop\n        /* \"#utility.yul\":13485:14372   */\n      jump(tag_345)\n        /* \"#utility.yul\":13515:14133   */\n    tag_346:\n        /* \"#utility.yul\":13567:13571   */\n      0x1f\n        /* \"#utility.yul\":13563:13572   */\n      not\n        /* \"#utility.yul\":13555:13561   */\n      dup5\n        /* \"#utility.yul\":13551:13573   */\n      and\n        /* \"#utility.yul\":13601:13638   */\n      tag_349\n        /* \"#utility.yul\":13633:13637   */\n      dup7\n        /* \"#utility.yul\":13601:13638   */\n      tag_162\n      jump\t// in\n    tag_349:\n        /* \"#utility.yul\":13660:13661   */\n      0x00\n        /* \"#utility.yul\":13674:13882   */\n    tag_350:\n        /* \"#utility.yul\":13688:13695   */\n      dup3\n        /* \"#utility.yul\":13685:13686   */\n      dup2\n        /* \"#utility.yul\":13682:13696   */\n      lt\n        /* \"#utility.yul\":13674:13882   */\n      iszero\n      tag_352\n      jumpi\n        /* \"#utility.yul\":13767:13776   */\n      dup5\n        /* \"#utility.yul\":13762:13765   */\n      dup10\n        /* \"#utility.yul\":13758:13777   */\n      add\n        /* \"#utility.yul\":13752:13778   */\n      mload\n        /* \"#utility.yul\":13744:13750   */\n      dup3\n        /* \"#utility.yul\":13737:13779   */\n      sstore\n        /* \"#utility.yul\":13818:13819   */\n      0x01\n        /* \"#utility.yul\":13810:13816   */\n      dup3\n        /* \"#utility.yul\":13806:13820   */\n      add\n        /* \"#utility.yul\":13796:13820   */\n      swap2\n      pop\n        /* \"#utility.yul\":13865:13867   */\n      0x20\n        /* \"#utility.yul\":13854:13863   */\n      dup6\n        /* \"#utility.yul\":13850:13868   */\n      add\n        /* \"#utility.yul\":13837:13868   */\n      swap5\n      pop\n        /* \"#utility.yul\":13711:13715   */\n      0x20\n        /* \"#utility.yul\":13708:13709   */\n      dup2\n        /* \"#utility.yul\":13704:13716   */\n      add\n        /* \"#utility.yul\":13699:13716   */\n      swap1\n      pop\n        /* \"#utility.yul\":13674:13882   */\n      jump(tag_350)\n    tag_352:\n        /* \"#utility.yul\":13910:13916   */\n      dup7\n        /* \"#utility.yul\":13901:13908   */\n      dup4\n        /* \"#utility.yul\":13898:13917   */\n      lt\n        /* \"#utility.yul\":13895:14074   */\n      iszero\n      tag_353\n      jumpi\n        /* \"#utility.yul\":13968:13977   */\n      dup5\n        /* \"#utility.yul\":13963:13966   */\n      dup10\n        /* \"#utility.yul\":13959:13978   */\n      add\n        /* \"#utility.yul\":13953:13979   */\n      mload\n        /* \"#utility.yul\":14011:14059   */\n      tag_354\n        /* \"#utility.yul\":14053:14057   */\n      0x1f\n        /* \"#utility.yul\":14045:14051   */\n      dup10\n        /* \"#utility.yul\":14041:14058   */\n      and\n        /* \"#utility.yul\":14030:14039   */\n      dup3\n        /* \"#utility.yul\":14011:14059   */\n      tag_175\n      jump\t// in\n    tag_354:\n        /* \"#utility.yul\":14003:14009   */\n      dup4\n        /* \"#utility.yul\":13996:14060   */\n      sstore\n        /* \"#utility.yul\":13918:14074   */\n      pop\n        /* \"#utility.yul\":13895:14074   */\n    tag_353:\n        /* \"#utility.yul\":14120:14121   */\n      0x01\n        /* \"#utility.yul\":14116:14117   */\n      0x02\n        /* \"#utility.yul\":14108:14114   */\n      dup9\n        /* \"#utility.yul\":14104:14118   */\n      mul\n        /* \"#utility.yul\":14100:14122   */\n      add\n        /* \"#utility.yul\":14094:14098   */\n      dup9\n        /* \"#utility.yul\":14087:14123   */\n      sstore\n        /* \"#utility.yul\":13522:14133   */\n      pop\n      pop\n      pop\n        /* \"#utility.yul\":13485:14372   */\n    tag_345:\n      pop\n        /* \"#utility.yul\":13075:14378   */\n      pop\n      pop\n      pop\n        /* \"#utility.yul\":12983:14378   */\n      pop\n      pop\n      jump\t// out\n        /* \"#utility.yul\":14384:14621   */\n    tag_177:\n        /* \"#utility.yul\":14524:14558   */\n      0x596f75206d757374206265206120636f6e7472696275746f7220746f20706172\n        /* \"#utility.yul\":14520:14521   */\n      0x00\n        /* \"#utility.yul\":14512:14518   */\n      dup3\n        /* \"#utility.yul\":14508:14522   */\n      add\n        /* \"#utility.yul\":14501:14559   */\n      mstore\n        /* \"#utility.yul\":14593:14613   */\n      0x746963697061746520696e20766f74696e670000000000000000000000000000\n        /* \"#utility.yul\":14588:14590   */\n      0x20\n        /* \"#utility.yul\":14580:14586   */\n      dup3\n        /* \"#utility.yul\":14576:14591   */\n      add\n        /* \"#utility.yul\":14569:14614   */\n      mstore\n        /* \"#utility.yul\":14384:14621   */\n      pop\n      jump\t// out\n        /* \"#utility.yul\":14627:14993   */\n    tag_178:\n        /* \"#utility.yul\":14769:14772   */\n      0x00\n        /* \"#utility.yul\":14790:14857   */\n      tag_357\n        /* \"#utility.yul\":14854:14856   */\n      0x32\n        /* \"#utility.yul\":14849:14852   */\n      dup4\n        /* \"#utility.yul\":14790:14857   */\n      tag_152\n      jump\t// in\n    tag_357:\n        /* \"#utility.yul\":14783:14857   */\n      swap2\n      pop\n        /* \"#utility.yul\":14866:14959   */\n      tag_358\n        /* \"#utility.yul\":14955:14958   */\n      dup3\n        /* \"#utility.yul\":14866:14959   */\n      tag_177\n      jump\t// in\n    tag_358:\n        /* \"#utility.yul\":14984:14986   */\n      0x40\n        /* \"#utility.yul\":14979:14982   */\n      dup3\n        /* \"#utility.yul\":14975:14987   */\n      add\n        /* \"#utility.yul\":14968:14987   */\n      swap1\n      pop\n        /* \"#utility.yul\":14627:14993   */\n      swap2\n      swap1\n      pop\n      jump\t// out\n        /* \"#utility.yul\":14999:15418   */\n    tag_93:\n        /* \"#utility.yul\":15165:15169   */\n      0x00\n        /* \"#utility.yul\":15203:15205   */\n      0x20\n        /* \"#utility.yul\":15192:15201   */\n      dup3\n        /* \"#utility.yul\":15188:15206   */\n      add\n        /* \"#utility.yul\":15180:15206   */\n      swap1\n      pop\n        /* \"#utility.yul\":15252:15261   */\n      dup2\n        /* \"#utility.yul\":15246:15250   */\n      dup2\n        /* \"#utility.yul\":15242:15262   */\n      sub\n        /* \"#utility.yul\":15238:15239   */\n      0x00\n        /* \"#utility.yul\":15227:15236   */\n      dup4\n        /* \"#utility.yul\":15223:15240   */\n      add\n        /* \"#utility.yul\":15216:15263   */\n      mstore\n        /* \"#utility.yul\":15280:15411   */\n      tag_360\n        /* \"#utility.yul\":15406:15410   */\n      dup2\n        /* \"#utility.yul\":15280:15411   */\n      tag_178\n      jump\t// in\n    tag_360:\n        /* \"#utility.yul\":15272:15411   */\n      swap1\n      pop\n        /* \"#utility.yul\":14999:15418   */\n      swap2\n      swap1\n      pop\n      jump\t// out\n        /* \"#utility.yul\":15424:15596   */\n    tag_179:\n        /* \"#utility.yul\":15564:15588   */\n      0x596f75206861766520616c726561647920766f74656400000000000000000000\n        /* \"#utility.yul\":15560:15561   */\n      0x00\n        /* \"#utility.yul\":15552:15558   */\n      dup3\n        /* \"#utility.yul\":15548:15562   */\n      add\n        /* \"#utility.yul\":15541:15589   */\n      mstore\n        /* \"#utility.yul\":15424:15596   */\n      pop\n      jump\t// out\n        /* \"#utility.yul\":15602:15968   */\n    tag_180:\n        /* \"#utility.yul\":15744:15747   */\n      0x00\n        /* \"#utility.yul\":15765:15832   */\n      tag_363\n        /* \"#utility.yul\":15829:15831   */\n      0x16\n        /* \"#utility.yul\":15824:15827   */\n      dup4\n        /* \"#utility.yul\":15765:15832   */\n      tag_152\n      jump\t// in\n    tag_363:\n        /* \"#utility.yul\":15758:15832   */\n      swap2\n      pop\n        /* \"#utility.yul\":15841:15934   */\n      tag_364\n        /* \"#utility.yul\":15930:15933   */\n      dup3\n        /* \"#utility.yul\":15841:15934   */\n      tag_179\n      jump\t// in\n    tag_364:\n        /* \"#utility.yul\":15959:15961   */\n      0x20\n        /* \"#utility.yul\":15954:15957   */\n      dup3\n        /* \"#utility.yul\":15950:15962   */\n      add\n        /* \"#utility.yul\":15943:15962   */\n      swap1\n      pop\n        /* \"#utility.yul\":15602:15968   */\n      swap2\n      swap1\n      pop\n      jump\t// out\n        /* \"#utility.yul\":15974:16393   */\n    tag_96:\n        /* \"#utility.yul\":16140:16144   */\n      0x00\n        /* \"#utility.yul\":16178:16180   */\n      0x20\n        /* \"#utility.yul\":16167:16176   */\n      dup3\n        /* \"#utility.yul\":16163:16181   */\n      add\n        /* \"#utility.yul\":16155:16181   */\n      swap1\n      pop\n        /* \"#utility.yul\":16227:16236   */\n      dup2\n        /* \"#utility.yul\":16221:16225   */\n      dup2\n        /* \"#utility.yul\":16217:16237   */\n      sub\n        /* \"#utility.yul\":16213:16214   */\n      0x00\n        /* \"#utility.yul\":16202:16211   */\n      dup4\n        /* \"#utility.yul\":16198:16215   */\n      add\n        /* \"#utility.yul\":16191:16238   */\n      mstore\n        /* \"#utility.yul\":16255:16386   */\n      tag_366\n        /* \"#utility.yul\":16381:16385   */\n      dup2\n        /* \"#utility.yul\":16255:16386   */\n      tag_180\n      jump\t// in\n    tag_366:\n        /* \"#utility.yul\":16247:16386   */\n      swap1\n      pop\n        /* \"#utility.yul\":15974:16393   */\n      swap2\n      swap1\n      pop\n      jump\t// out\n        /* \"#utility.yul\":16399:16629   */\n    tag_181:\n        /* \"#utility.yul\":16539:16573   */\n      0x5269676874206e6f7720796f7520617265206e6f7420656c696769626c726520\n        /* \"#utility.yul\":16535:16536   */\n      0x00\n        /* \"#utility.yul\":16527:16533   */\n      dup3\n        /* \"#utility.yul\":16523:16537   */\n      add\n        /* \"#utility.yul\":16516:16574   */\n      mstore\n        /* \"#utility.yul\":16608:16621   */\n      0x666f7220726566756e6420000000000000000000000000000000000000000000\n        /* \"#utility.yul\":16603:16605   */\n      0x20\n        /* \"#utility.yul\":16595:16601   */\n      dup3\n        /* \"#utility.yul\":16591:16606   */\n      add\n        /* \"#utility.yul\":16584:16622   */\n      mstore\n        /* \"#utility.yul\":16399:16629   */\n      pop\n      jump\t// out\n        /* \"#utility.yul\":16635:17001   */\n    tag_182:\n        /* \"#utility.yul\":16777:16780   */\n      0x00\n        /* \"#utility.yul\":16798:16865   */\n      tag_369\n        /* \"#utility.yul\":16862:16864   */\n      0x2b\n        /* \"#utility.yul\":16857:16860   */\n      dup4\n        /* \"#utility.yul\":16798:16865   */\n      tag_152\n      jump\t// in\n    tag_369:\n        /* \"#utility.yul\":16791:16865   */\n      swap2\n      pop\n        /* \"#utility.yul\":16874:16967   */\n      tag_370\n        /* \"#utility.yul\":16963:16966   */\n      dup3\n        /* \"#utility.yul\":16874:16967   */\n      tag_181\n      jump\t// in\n    tag_370:\n        /* \"#utility.yul\":16992:16994   */\n      0x40\n        /* \"#utility.yul\":16987:16990   */\n      dup3\n        /* \"#utility.yul\":16983:16995   */\n      add\n        /* \"#utility.yul\":16976:16995   */\n      swap1\n      pop\n        /* \"#utility.yul\":16635:17001   */\n      swap2\n      swap1\n      pop\n      jump\t// out\n        /* \"#utility.yul\":17007:17426   */\n    tag_108:\n        /* \"#utility.yul\":17173:17177   */\n      0x00\n        /* \"#utility.yul\":17211:17213   */\n      0x20\n        /* \"#utility.yul\":17200:17209   */\n      dup3\n        /* \"#utility.yul\":17196:17214   */\n      add\n        /* \"#utility.yul\":17188:17214   */\n      swap1\n      pop\n        /* \"#utility.yul\":17260:17269   */\n      dup2\n        /* \"#utility.yul\":17254:17258   */\n      dup2\n        /* \"#utility.yul\":17250:17270   */\n      sub\n        /* \"#utility.yul\":17246:17247   */\n      0x00\n        /* \"#utility.yul\":17235:17244   */\n      dup4\n        /* \"#utility.yul\":17231:17248   */\n      add\n        /* \"#utility.yul\":17224:17271   */\n      mstore\n        /* \"#utility.yul\":17288:17419   */\n      tag_372\n        /* \"#utility.yul\":17414:17418   */\n      dup2\n        /* \"#utility.yul\":17288:17419   */\n      tag_182\n      jump\t// in\n    tag_372:\n        /* \"#utility.yul\":17280:17419   */\n      swap1\n      pop\n        /* \"#utility.yul\":17007:17426   */\n      swap2\n      swap1\n      pop\n      jump\t// out\n        /* \"#utility.yul\":17432:17609   */\n    tag_183:\n        /* \"#utility.yul\":17572:17601   */\n      0x596f75206469646e7420706172746963697061746564206f6e6c790000000000\n        /* \"#utility.yul\":17568:17569   */\n      0x00\n        /* \"#utility.yul\":17560:17566   */\n      dup3\n        /* \"#utility.yul\":17556:17570   */\n      add\n        /* \"#utility.yul\":17549:17602   */\n      mstore\n        /* \"#utility.yul\":17432:17609   */\n      pop\n      jump\t// out\n        /* \"#utility.yul\":17615:17981   */\n    tag_184:\n        /* \"#utility.yul\":17757:17760   */\n      0x00\n        /* \"#utility.yul\":17778:17845   */\n      tag_375\n        /* \"#utility.yul\":17842:17844   */\n      0x1b\n        /* \"#utility.yul\":17837:17840   */\n      dup4\n        /* \"#utility.yul\":17778:17845   */\n      tag_152\n      jump\t// in\n    tag_375:\n        /* \"#utility.yul\":17771:17845   */\n      swap2\n      pop\n        /* \"#utility.yul\":17854:17947   */\n      tag_376\n        /* \"#utility.yul\":17943:17946   */\n      dup3\n        /* \"#utility.yul\":17854:17947   */\n      tag_183\n      jump\t// in\n    tag_376:\n        /* \"#utility.yul\":17972:17974   */\n      0x20\n        /* \"#utility.yul\":17967:17970   */\n      dup3\n        /* \"#utility.yul\":17963:17975   */\n      add\n        /* \"#utility.yul\":17956:17975   */\n      swap1\n      pop\n        /* \"#utility.yul\":17615:17981   */\n      swap2\n      swap1\n      pop\n      jump\t// out\n        /* \"#utility.yul\":17987:18406   */\n    tag_111:\n        /* \"#utility.yul\":18153:18157   */\n      0x00\n        /* \"#utility.yul\":18191:18193   */\n      0x20\n        /* \"#utility.yul\":18180:18189   */\n      dup3\n        /* \"#utility.yul\":18176:18194   */\n      add\n        /* \"#utility.yul\":18168:18194   */\n      swap1\n      pop\n        /* \"#utility.yul\":18240:18249   */\n      dup2\n        /* \"#utility.yul\":18234:18238   */\n      dup2\n        /* \"#utility.yul\":18230:18250   */\n      sub\n        /* \"#utility.yul\":18226:18227   */\n      0x00\n        /* \"#utility.yul\":18215:18224   */\n      dup4\n        /* \"#utility.yul\":18211:18228   */\n      add\n        /* \"#utility.yul\":18204:18251   */\n      mstore\n        /* \"#utility.yul\":18268:18399   */\n      tag_378\n        /* \"#utility.yul\":18394:18398   */\n      dup2\n        /* \"#utility.yul\":18268:18399   */\n      tag_184\n      jump\t// in\n    tag_378:\n        /* \"#utility.yul\":18260:18399   */\n      swap1\n      pop\n        /* \"#utility.yul\":17987:18406   */\n      swap2\n      swap1\n      pop\n      jump\t// out\n        /* \"#utility.yul\":18412:18633   */\n    tag_185:\n        /* \"#utility.yul\":18552:18586   */\n      0x536f72727921446561646c696e652068617320616c7265616479207265616368\n        /* \"#utility.yul\":18548:18549   */\n      0x00\n        /* \"#utility.yul\":18540:18546   */\n      dup3\n        /* \"#utility.yul\":18536:18550   */\n      add\n        /* \"#utility.yul\":18529:18587   */\n      mstore\n        /* \"#utility.yul\":18621:18625   */\n      0x6564000000000000000000000000000000000000000000000000000000000000\n        /* \"#utility.yul\":18616:18618   */\n      0x20\n        /* \"#utility.yul\":18608:18614   */\n      dup3\n        /* \"#utility.yul\":18604:18619   */\n      add\n        /* \"#utility.yul\":18597:18626   */\n      mstore\n        /* \"#utility.yul\":18412:18633   */\n      pop\n      jump\t// out\n        /* \"#utility.yul\":18639:19005   */\n    tag_186:\n        /* \"#utility.yul\":18781:18784   */\n      0x00\n        /* \"#utility.yul\":18802:18869   */\n      tag_381\n        /* \"#utility.yul\":18866:18868   */\n      0x22\n        /* \"#utility.yul\":18861:18864   */\n      dup4\n        /* \"#utility.yul\":18802:18869   */\n      tag_152\n      jump\t// in\n    tag_381:\n        /* \"#utility.yul\":18795:18869   */\n      swap2\n      pop\n        /* \"#utility.yul\":18878:18971   */\n      tag_382\n        /* \"#utility.yul\":18967:18970   */\n      dup3\n        /* \"#utility.yul\":18878:18971   */\n      tag_185\n      jump\t// in\n    tag_382:\n        /* \"#utility.yul\":18996:18998   */\n      0x40\n        /* \"#utility.yul\":18991:18994   */\n      dup3\n        /* \"#utility.yul\":18987:18999   */\n      add\n        /* \"#utility.yul\":18980:18999   */\n      swap1\n      pop\n        /* \"#utility.yul\":18639:19005   */\n      swap2\n      swap1\n      pop\n      jump\t// out\n        /* \"#utility.yul\":19011:19430   */\n    tag_117:\n        /* \"#utility.yul\":19177:19181   */\n      0x00\n        /* \"#utility.yul\":19215:19217   */\n      0x20\n        /* \"#utility.yul\":19204:19213   */\n      dup3\n        /* \"#utility.yul\":19200:19218   */\n      add\n        /* \"#utility.yul\":19192:19218   */\n      swap1\n      pop\n        /* \"#utility.yul\":19264:19273   */\n      dup2\n        /* \"#utility.yul\":19258:19262   */\n      dup2\n        /* \"#utility.yul\":19254:19274   */\n      sub\n        /* \"#utility.yul\":19250:19251   */\n      0x00\n        /* \"#utility.yul\":19239:19248   */\n      dup4\n        /* \"#utility.yul\":19235:19252   */\n      add\n        /* \"#utility.yul\":19228:19275   */\n      mstore\n        /* \"#utility.yul\":19292:19423   */\n      tag_384\n        /* \"#utility.yul\":19418:19422   */\n      dup2\n        /* \"#utility.yul\":19292:19423   */\n      tag_186\n      jump\t// in\n    tag_384:\n        /* \"#utility.yul\":19284:19423   */\n      swap1\n      pop\n        /* \"#utility.yul\":19011:19430   */\n      swap2\n      swap1\n      pop\n      jump\t// out\n        /* \"#utility.yul\":19436:19617   */\n    tag_187:\n        /* \"#utility.yul\":19576:19609   */\n      0x4d696e696d756d20436f6e747269627574696f6e206973206e6f74206d657400\n        /* \"#utility.yul\":19572:19573   */\n      0x00\n        /* \"#utility.yul\":19564:19570   */\n      dup3\n        /* \"#utility.yul\":19560:19574   */\n      add\n        /* \"#utility.yul\":19553:19610   */\n      mstore\n        /* \"#utility.yul\":19436:19617   */\n      pop\n      jump\t// out\n        /* \"#utility.yul\":19623:19989   */\n    tag_188:\n        /* \"#utility.yul\":19765:19768   */\n      0x00\n        /* \"#utility.yul\":19786:19853   */\n      tag_387\n        /* \"#utility.yul\":19850:19852   */\n      0x1f\n        /* \"#utility.yul\":19845:19848   */\n      dup4\n        /* \"#utility.yul\":19786:19853   */\n      tag_152\n      jump\t// in\n    tag_387:\n        /* \"#utility.yul\":19779:19853   */\n      swap2\n      pop\n        /* \"#utility.yul\":19862:19955   */\n      tag_388\n        /* \"#utility.yul\":19951:19954   */\n      dup3\n        /* \"#utility.yul\":19862:19955   */\n      tag_187\n      jump\t// in\n    tag_388:\n        /* \"#utility.yul\":19980:19982   */\n      0x20\n        /* \"#utility.yul\":19975:19978   */\n      dup3\n        /* \"#utility.yul\":19971:19983   */\n      add\n        /* \"#utility.yul\":19964:19983   */\n      swap1\n      pop\n        /* \"#utility.yul\":19623:19989   */\n      swap2\n      swap1\n      pop\n      jump\t// out\n        /* \"#utility.yul\":19995:20414   */\n    tag_120:\n        /* \"#utility.yul\":20161:20165   */\n      0x00\n        /* \"#utility.yul\":20199:20201   */\n      0x20\n        /* \"#utility.yul\":20188:20197   */\n      dup3\n        /* \"#utility.yul\":20184:20202   */\n      add\n        /* \"#utility.yul\":20176:20202   */\n      swap1\n      pop\n        /* \"#utility.yul\":20248:20257   */\n      dup2\n        /* \"#utility.yul\":20242:20246   */\n      dup2\n        /* \"#utility.yul\":20238:20258   */\n      sub\n        /* \"#utility.yul\":20234:20235   */\n      0x00\n        /* \"#utility.yul\":20223:20232   */\n      dup4\n        /* \"#utility.yul\":20219:20236   */\n      add\n        /* \"#utility.yul\":20212:20259   */\n      mstore\n        /* \"#utility.yul\":20276:20407   */\n      tag_390\n        /* \"#utility.yul\":20402:20406   */\n      dup2\n        /* \"#utility.yul\":20276:20407   */\n      tag_188\n      jump\t// in\n    tag_390:\n        /* \"#utility.yul\":20268:20407   */\n      swap1\n      pop\n        /* \"#utility.yul\":19995:20414   */\n      swap2\n      swap1\n      pop\n      jump\t// out\n        /* \"#utility.yul\":20420:20611   */\n    tag_124:\n        /* \"#utility.yul\":20460:20463   */\n      0x00\n        /* \"#utility.yul\":20479:20499   */\n      tag_392\n        /* \"#utility.yul\":20497:20498   */\n      dup3\n        /* \"#utility.yul\":20479:20499   */\n      tag_126\n      jump\t// in\n    tag_392:\n        /* \"#utility.yul\":20474:20499   */\n      swap2\n      pop\n        /* \"#utility.yul\":20513:20533   */\n      tag_393\n        /* \"#utility.yul\":20531:20532   */\n      dup4\n        /* \"#utility.yul\":20513:20533   */\n      tag_126\n      jump\t// in\n    tag_393:\n        /* \"#utility.yul\":20508:20533   */\n      swap3\n      pop\n        /* \"#utility.yul\":20556:20557   */\n      dup3\n        /* \"#utility.yul\":20553:20554   */\n      dup3\n        /* \"#utility.yul\":20549:20558   */\n      add\n        /* \"#utility.yul\":20542:20558   */\n      swap1\n      pop\n        /* \"#utility.yul\":20577:20580   */\n      dup1\n        /* \"#utility.yul\":20574:20575   */\n      dup3\n        /* \"#utility.yul\":20571:20581   */\n      gt\n        /* \"#utility.yul\":20568:20604   */\n      iszero\n      tag_394\n      jumpi\n        /* \"#utility.yul\":20584:20602   */\n      tag_395\n      tag_160\n      jump\t// in\n    tag_395:\n        /* \"#utility.yul\":20568:20604   */\n    tag_394:\n        /* \"#utility.yul\":20420:20611   */\n      swap3\n      swap2\n      pop\n      pop\n      jump\t// out\n\n    auxdata: 0xa2646970667358221220d339a19acf870e4b86443527c6a051b3fa04a0962d3e1b576026fcfb1b7ee9b264736f6c63430008160033\n}\n",
				"bytecode": {
					"linkReferences": {},
					"object": "608060405234801562000010575f80fd5b506040516200173a3803806200173a8339818101604052810190620000369190620000dd565b3360015f6101000a81548173ffffffffffffffffffffffffffffffffffffffff021916908373ffffffffffffffffffffffffffffffffffffffff160217905550824262000084919062000163565b60048190555081600381905550806002819055505050506200019d565b5f80fd5b5f819050919050565b620000b981620000a5565b8114620000c4575f80fd5b50565b5f81519050620000d781620000ae565b92915050565b5f805f60608486031215620000f757620000f6620000a1565b5b5f6200010686828701620000c7565b93505060206200011986828701620000c7565b92505060406200012c86828701620000c7565b9150509250925092565b7f4e487b71000000000000000000000000000000000000000000000000000000005f52601160045260245ffd5b5f6200016f82620000a5565b91506200017c83620000a5565b925082820190508082111562000197576200019662000136565b5b92915050565b61158f80620001ab5f395ff3fe6080604052600436106100dc575f3560e01c80634cf2e1bc1161007e578063aaffadf311610058578063aaffadf314610274578063c59ee1dc1461029e578063d4b83992146102c8578063fe7c1b8a146102f2576100dc565b80634cf2e1bc14610214578063590e1ae3146102545780638d9ad80e1461026a576100dc565b806329dcb0cf116100ba57806329dcb0cf1461016e57806339cb69fc14610198578063481c6a75146101c25780634cb6f4a5146101ec576100dc565b806312065fe0146100e05780631b16bb5c1461010a5780631f6d494214610132575b5f80fd5b3480156100eb575f80fd5b506100f461031c565b6040516101019190610a6f565b60405180910390f35b348015610115575f80fd5b50610130600480360381019061012b9190610c59565b610323565b005b34801561013d575f80fd5b5061015860048036038101906101539190610d00565b610465565b6040516101659190610a6f565b60405180910390f35b348015610179575f80fd5b50610182610479565b60405161018f9190610a6f565b60405180910390f35b3480156101a3575f80fd5b506101ac61047f565b6040516101b99190610a6f565b60405180910390f35b3480156101cd575f80fd5b506101d6610485565b6040516101e39190610d3a565b60405180910390f35b3480156101f7575f80fd5b50610212600480360381019061020d9190610d53565b6104aa565b005b34801561021f575f80fd5b5061023a60048036038101906102359190610d53565b610641565b60405161024b959493929190610e21565b60405180910390f35b34801561025f575f80fd5b50610268610724565b005b6102726108bd565b005b34801561027f575f80fd5b50610288610a3f565b6040516102959190610a6f565b60405180910390f35b3480156102a9575f80fd5b506102b2610a45565b6040516102bf9190610a6f565b60405180910390f35b3480156102d3575f80fd5b506102dc610a4b565b6040516102e99190610a6f565b60405180910390f35b3480156102fd575f80fd5b50610306610a51565b6040516103139190610a6f565b60405180910390f35b5f47905090565b60015f9054906101000a900473ffffffffffffffffffffffffffffffffffffffff1673ffffffffffffffffffffffffffffffffffffffff163373ffffffffffffffffffffffffffffffffffffffff16146103b2576040517f08c379a00000000000000000000000000000000000000000000000000000000081526004016103a990610ee9565b60405180910390fd5b5f60075f60085481526020019081526020015f20905060085f8154809291906103da90610f34565b919050555083815f0190816103ef9190611175565b5082816001015f6101000a81548173ffffffffffffffffffffffffffffffffffffffff021916908373ffffffffffffffffffffffffffffffffffffffff1602179055508181600201819055505f816003015f6101000a81548160ff0219169083151502179055505f816004018190555050505050565b5f602052805f5260405f205f915090505481565b60045481565b60065481565b60015f9054906101000a900473ffffffffffffffffffffffffffffffffffffffff1681565b5f805f3373ffffffffffffffffffffffffffffffffffffffff1673ffffffffffffffffffffffffffffffffffffffff1681526020019081526020015f205411610528576040517f08c379a000000000000000000000000000000000000000000000000000000000815260040161051f906112b4565b60405180910390fd5b5f60075f8381526020019081526020015f2090505f1515816005015f3373ffffffffffffffffffffffffffffffffffffffff1673ffffffffffffffffffffffffffffffffffffffff1681526020019081526020015f205f9054906101000a900460ff161515146105cd576040517f08c379a00000000000000000000000000000000000000000000000000000000081526004016105c49061131c565b60405180910390fd5b6001816005015f3373ffffffffffffffffffffffffffffffffffffffff1673ffffffffffffffffffffffffffffffffffffffff1681526020019081526020015f205f6101000a81548160ff021916908315150217905550806004015f81548092919061063890610f34565b91905055505050565b6007602052805f5260405f205f91509050805f01805461066090610fa8565b80601f016020809104026020016040519081016040528092919081815260200182805461068c90610fa8565b80156106d75780601f106106ae576101008083540402835291602001916106d7565b820191905f5260205f20905b8154815290600101906020018083116106ba57829003601f168201915b505050505090806001015f9054906101000a900473ffffffffffffffffffffffffffffffffffffffff1690806002015490806003015f9054906101000a900460ff16908060040154905085565b426004541080156107385750600354600554105b610777576040517f08c379a000000000000000000000000000000000000000000000000000000000815260040161076e906113aa565b60405180910390fd5b5f805f3373ffffffffffffffffffffffffffffffffffffffff1673ffffffffffffffffffffffffffffffffffffffff1681526020019081526020015f2054116107f5576040517f08c379a00000000000000000000000000000000000000000000000000000000081526004016107ec90611412565b60405180910390fd5b5f3390508073ffffffffffffffffffffffffffffffffffffffff166108fc5f803373ffffffffffffffffffffffffffffffffffffffff1673ffffffffffffffffffffffffffffffffffffffff1681526020019081526020015f205490811502906040515f60405180830381858888f19350505050158015610878573d5f803e3d5ffd5b505f805f3373ffffffffffffffffffffffffffffffffffffffff1673ffffffffffffffffffffffffffffffffffffffff1681526020019081526020015f208190555050565b4260045411610901576040517f08c379a00000000000000000000000000000000000000000000000000000000081526004016108f8906114a0565b60405180910390fd5b600254341015610946576040517f08c379a000000000000000000000000000000000000000000000000000000000815260040161093d90611508565b60405180910390fd5b5f805f3373ffffffffffffffffffffffffffffffffffffffff1673ffffffffffffffffffffffffffffffffffffffff1681526020019081526020015f2054036109a15760065f81548092919061099b90610f34565b91905055505b345f803373ffffffffffffffffffffffffffffffffffffffff1673ffffffffffffffffffffffffffffffffffffffff1681526020019081526020015f20546109e99190611526565b5f803373ffffffffffffffffffffffffffffffffffffffff1673ffffffffffffffffffffffffffffffffffffffff1681526020019081526020015f208190555034600554610a379190611526565b600581905550565b60025481565b60055481565b60035481565b60085481565b5f819050919050565b610a6981610a57565b82525050565b5f602082019050610a825f830184610a60565b92915050565b5f604051905090565b5f80fd5b5f80fd5b5f80fd5b5f80fd5b5f601f19601f8301169050919050565b7f4e487b71000000000000000000000000000000000000000000000000000000005f52604160045260245ffd5b610ae782610aa1565b810181811067ffffffffffffffff82111715610b0657610b05610ab1565b5b80604052505050565b5f610b18610a88565b9050610b248282610ade565b919050565b5f67ffffffffffffffff821115610b4357610b42610ab1565b5b610b4c82610aa1565b9050602081019050919050565b828183375f83830152505050565b5f610b79610b7484610b29565b610b0f565b905082815260208101848484011115610b9557610b94610a9d565b5b610ba0848285610b59565b509392505050565b5f82601f830112610bbc57610bbb610a99565b5b8135610bcc848260208601610b67565b91505092915050565b5f73ffffffffffffffffffffffffffffffffffffffff82169050919050565b5f610bfe82610bd5565b9050919050565b610c0e81610bf4565b8114610c18575f80fd5b50565b5f81359050610c2981610c05565b92915050565b610c3881610a57565b8114610c42575f80fd5b50565b5f81359050610c5381610c2f565b92915050565b5f805f60608486031215610c7057610c6f610a91565b5b5f84013567ffffffffffffffff811115610c8d57610c8c610a95565b5b610c9986828701610ba8565b9350506020610caa86828701610c1b565b9250506040610cbb86828701610c45565b9150509250925092565b5f610ccf82610bd5565b9050919050565b610cdf81610cc5565b8114610ce9575f80fd5b50565b5f81359050610cfa81610cd6565b92915050565b5f60208284031215610d1557610d14610a91565b5b5f610d2284828501610cec565b91505092915050565b610d3481610cc5565b82525050565b5f602082019050610d4d5f830184610d2b565b92915050565b5f60208284031215610d6857610d67610a91565b5b5f610d7584828501610c45565b91505092915050565b5f81519050919050565b5f82825260208201905092915050565b5f5b83811015610db5578082015181840152602081019050610d9a565b5f8484015250505050565b5f610dca82610d7e565b610dd48185610d88565b9350610de4818560208601610d98565b610ded81610aa1565b840191505092915050565b610e0181610bf4565b82525050565b5f8115159050919050565b610e1b81610e07565b82525050565b5f60a0820190508181035f830152610e398188610dc0565b9050610e486020830187610df8565b610e556040830186610a60565b610e626060830185610e12565b610e6f6080830184610a60565b9695505050505050565b7f4f6e6c79206d616e616765722063616e2063616c6c20726769732066756e63745f8201527f696f6e0000000000000000000000000000000000000000000000000000000000602082015250565b5f610ed3602383610d88565b9150610ede82610e79565b604082019050919050565b5f6020820190508181035f830152610f0081610ec7565b9050919050565b7f4e487b71000000000000000000000000000000000000000000000000000000005f52601160045260245ffd5b5f610f3e82610a57565b91507fffffffffffffffffffffffffffffffffffffffffffffffffffffffffffffffff8203610f7057610f6f610f07565b5b600182019050919050565b7f4e487b71000000000000000000000000000000000000000000000000000000005f52602260045260245ffd5b5f6002820490506001821680610fbf57607f821691505b602082108103610fd257610fd1610f7b565b5b50919050565b5f819050815f5260205f209050919050565b5f6020601f8301049050919050565b5f82821b905092915050565b5f600883026110347fffffffffffffffffffffffffffffffffffffffffffffffffffffffffffffffff82610ff9565b61103e8683610ff9565b95508019841693508086168417925050509392505050565b5f819050919050565b5f61107961107461106f84610a57565b611056565b610a57565b9050919050565b5f819050919050565b6110928361105f565b6110a661109e82611080565b848454611005565b825550505050565b5f90565b6110ba6110ae565b6110c5818484611089565b505050565b5b818110156110e8576110dd5f826110b2565b6001810190506110cb565b5050565b601f82111561112d576110fe81610fd8565b61110784610fea565b81016020851015611116578190505b61112a61112285610fea565b8301826110ca565b50505b505050565b5f82821c905092915050565b5f61114d5f1984600802611132565b1980831691505092915050565b5f611165838361113e565b9150826002028217905092915050565b61117e82610d7e565b67ffffffffffffffff81111561119757611196610ab1565b5b6111a18254610fa8565b6111ac8282856110ec565b5f60209050601f8311600181146111dd575f84156111cb578287015190505b6111d5858261115a565b86555061123c565b601f1984166111eb86610fd8565b5f5b82811015611212578489015182556001820191506020850194506020810190506111ed565b8683101561122f578489015161122b601f89168261113e565b8355505b6001600288020188555050505b505050505050565b7f596f75206d757374206265206120636f6e7472696275746f7220746f207061725f8201527f746963697061746520696e20766f74696e670000000000000000000000000000602082015250565b5f61129e603283610d88565b91506112a982611244565b604082019050919050565b5f6020820190508181035f8301526112cb81611292565b9050919050565b7f596f75206861766520616c726561647920766f746564000000000000000000005f82015250565b5f611306601683610d88565b9150611311826112d2565b602082019050919050565b5f6020820190508181035f830152611333816112fa565b9050919050565b7f5269676874206e6f7720796f7520617265206e6f7420656c696769626c7265205f8201527f666f7220726566756e6420000000000000000000000000000000000000000000602082015250565b5f611394602b83610d88565b915061139f8261133a565b604082019050919050565b5f6020820190508181035f8301526113c181611388565b9050919050565b7f596f75206469646e7420706172746963697061746564206f6e6c7900000000005f82015250565b5f6113fc601b83610d88565b9150611407826113c8565b602082019050919050565b5f6020820190508181035f830152611429816113f0565b9050919050565b7f536f72727921446561646c696e652068617320616c72656164792072656163685f8201527f6564000000000000000000000000000000000000000000000000000000000000602082015250565b5f61148a602283610d88565b915061149582611430565b604082019050919050565b5f6020820190508181035f8301526114b78161147e565b9050919050565b7f4d696e696d756d20436f6e747269627574696f6e206973206e6f74206d6574005f82015250565b5f6114f2601f83610d88565b91506114fd826114be565b602082019050919050565b5f6020820190508181035f83015261151f816114e6565b9050919050565b5f61153082610a57565b915061153b83610a57565b925082820190508082111561155357611552610f07565b5b9291505056fea2646970667358221220d339a19acf870e4b86443527c6a051b3fa04a0962d3e1b576026fcfb1b7ee9b264736f6c63430008160033",
					"opcodes": "PUSH1 0x80 PUSH1 0x40 MSTORE CALLVALUE DUP1 ISZERO PUSH3 0x10 JUMPI PUSH0 DUP1 REVERT JUMPDEST POP PUSH1 0x40 MLOAD PUSH3 0x173A CODESIZE SUB DUP1 PUSH3 0x173A DUP4 CODECOPY DUP2 DUP2 ADD PUSH1 0x40 MSTORE DUP2 ADD SWAP1 PUSH3 0x36 SWAP2 SWAP1 PUSH3 0xDD JUMP JUMPDEST CALLER PUSH1 0x1 PUSH0 PUSH2 0x100 EXP DUP2 SLOAD DUP2 PUSH20 0xFFFFFFFFFFFFFFFFFFFFFFFFFFFFFFFFFFFFFFFF MUL NOT AND SWAP1 DUP4 PUSH20 0xFFFFFFFFFFFFFFFFFFFFFFFFFFFFFFFFFFFFFFFF AND MUL OR SWAP1 SSTORE POP DUP3 TIMESTAMP PUSH3 0x84 SWAP2 SWAP1 PUSH3 0x163 JUMP JUMPDEST PUSH1 0x4 DUP2 SWAP1 SSTORE POP DUP2 PUSH1 0x3 DUP2 SWAP1 SSTORE POP DUP1 PUSH1 0x2 DUP2 SWAP1 SSTORE POP POP POP POP PUSH3 0x19D JUMP JUMPDEST PUSH0 DUP1 REVERT JUMPDEST PUSH0 DUP2 SWAP1 POP SWAP2 SWAP1 POP JUMP JUMPDEST PUSH3 0xB9 DUP2 PUSH3 0xA5 JUMP JUMPDEST DUP2 EQ PUSH3 0xC4 JUMPI PUSH0 DUP1 REVERT JUMPDEST POP JUMP JUMPDEST PUSH0 DUP2 MLOAD SWAP1 POP PUSH3 0xD7 DUP2 PUSH3 0xAE JUMP JUMPDEST SWAP3 SWAP2 POP POP JUMP JUMPDEST PUSH0 DUP1 PUSH0 PUSH1 0x60 DUP5 DUP7 SUB SLT ISZERO PUSH3 0xF7 JUMPI PUSH3 0xF6 PUSH3 0xA1 JUMP JUMPDEST JUMPDEST PUSH0 PUSH3 0x106 DUP7 DUP3 DUP8 ADD PUSH3 0xC7 JUMP JUMPDEST SWAP4 POP POP PUSH1 0x20 PUSH3 0x119 DUP7 DUP3 DUP8 ADD PUSH3 0xC7 JUMP JUMPDEST SWAP3 POP POP PUSH1 0x40 PUSH3 0x12C DUP7 DUP3 DUP8 ADD PUSH3 0xC7 JUMP JUMPDEST SWAP2 POP POP SWAP3 POP SWAP3 POP SWAP3 JUMP JUMPDEST PUSH32 0x4E487B7100000000000000000000000000000000000000000000000000000000 PUSH0 MSTORE PUSH1 0x11 PUSH1 0x4 MSTORE PUSH1 0x24 PUSH0 REVERT JUMPDEST PUSH0 PUSH3 0x16F DUP3 PUSH3 0xA5 JUMP JUMPDEST SWAP2 POP PUSH3 0x17C DUP4 PUSH3 0xA5 JUMP JUMPDEST SWAP3 POP DUP3 DUP3 ADD SWAP1 POP DUP1 DUP3 GT ISZERO PUSH3 0x197 JUMPI PUSH3 0x196 PUSH3 0x136 JUMP JUMPDEST JUMPDEST SWAP3 SWAP2 POP POP JUMP JUMPDEST PUSH2 0x158F DUP1 PUSH3 0x1AB PUSH0 CODECOPY PUSH0 RETURN INVALID PUSH1 0x80 PUSH1 0x40 MSTORE PUSH1 0x4 CALLDATASIZE LT PUSH2 0xDC JUMPI PUSH0 CALLDATALOAD PUSH1 0xE0 SHR DUP1 PUSH4 0x4CF2E1BC GT PUSH2 0x7E JUMPI DUP1 PUSH4 0xAAFFADF3 GT PUSH2 0x58 JUMPI DUP1 PUSH4 0xAAFFADF3 EQ PUSH2 0x274 JUMPI DUP1 PUSH4 0xC59EE1DC EQ PUSH2 0x29E JUMPI DUP1 PUSH4 0xD4B83992 EQ PUSH2 0x2C8 JUMPI DUP1 PUSH4 0xFE7C1B8A EQ PUSH2 0x2F2 JUMPI PUSH2 0xDC JUMP JUMPDEST DUP1 PUSH4 0x4CF2E1BC EQ PUSH2 0x214 JUMPI DUP1 PUSH4 0x590E1AE3 EQ PUSH2 0x254 JUMPI DUP1 PUSH4 0x8D9AD80E EQ PUSH2 0x26A JUMPI PUSH2 0xDC JUMP JUMPDEST DUP1 PUSH4 0x29DCB0CF GT PUSH2 0xBA JUMPI DUP1 PUSH4 0x29DCB0CF EQ PUSH2 0x16E JUMPI DUP1 PUSH4 0x39CB69FC EQ PUSH2 0x198 JUMPI DUP1 PUSH4 0x481C6A75 EQ PUSH2 0x1C2 JUMPI DUP1 PUSH4 0x4CB6F4A5 EQ PUSH2 0x1EC JUMPI PUSH2 0xDC JUMP JUMPDEST DUP1 PUSH4 0x12065FE0 EQ PUSH2 0xE0 JUMPI DUP1 PUSH4 0x1B16BB5C EQ PUSH2 0x10A JUMPI DUP1 PUSH4 0x1F6D4942 EQ PUSH2 0x132 JUMPI JUMPDEST PUSH0 DUP1 REVERT JUMPDEST CALLVALUE DUP1 ISZERO PUSH2 0xEB JUMPI PUSH0 DUP1 REVERT JUMPDEST POP PUSH2 0xF4 PUSH2 0x31C JUMP JUMPDEST PUSH1 0x40 MLOAD PUSH2 0x101 SWAP2 SWAP1 PUSH2 0xA6F JUMP JUMPDEST PUSH1 0x40 MLOAD DUP1 SWAP2 SUB SWAP1 RETURN JUMPDEST CALLVALUE DUP1 ISZERO PUSH2 0x115 JUMPI PUSH0 DUP1 REVERT JUMPDEST POP PUSH2 0x130 PUSH1 0x4 DUP1 CALLDATASIZE SUB DUP2 ADD SWAP1 PUSH2 0x12B SWAP2 SWAP1 PUSH2 0xC59 JUMP JUMPDEST PUSH2 0x323 JUMP JUMPDEST STOP JUMPDEST CALLVALUE DUP1 ISZERO PUSH2 0x13D JUMPI PUSH0 DUP1 REVERT JUMPDEST POP PUSH2 0x158 PUSH1 0x4 DUP1 CALLDATASIZE SUB DUP2 ADD SWAP1 PUSH2 0x153 SWAP2 SWAP1 PUSH2 0xD00 JUMP JUMPDEST PUSH2 0x465 JUMP JUMPDEST PUSH1 0x40 MLOAD PUSH2 0x165 SWAP2 SWAP1 PUSH2 0xA6F JUMP JUMPDEST PUSH1 0x40 MLOAD DUP1 SWAP2 SUB SWAP1 RETURN JUMPDEST CALLVALUE DUP1 ISZERO PUSH2 0x179 JUMPI PUSH0 DUP1 REVERT JUMPDEST POP PUSH2 0x182 PUSH2 0x479 JUMP JUMPDEST PUSH1 0x40 MLOAD PUSH2 0x18F SWAP2 SWAP1 PUSH2 0xA6F JUMP JUMPDEST PUSH1 0x40 MLOAD DUP1 SWAP2 SUB SWAP1 RETURN JUMPDEST CALLVALUE DUP1 ISZERO PUSH2 0x1A3 JUMPI PUSH0 DUP1 REVERT JUMPDEST POP PUSH2 0x1AC PUSH2 0x47F JUMP JUMPDEST PUSH1 0x40 MLOAD PUSH2 0x1B9 SWAP2 SWAP1 PUSH2 0xA6F JUMP JUMPDEST PUSH1 0x40 MLOAD DUP1 SWAP2 SUB SWAP1 RETURN JUMPDEST CALLVALUE DUP1 ISZERO PUSH2 0x1CD JUMPI PUSH0 DUP1 REVERT JUMPDEST POP PUSH2 0x1D6 PUSH2 0x485 JUMP JUMPDEST PUSH1 0x40 MLOAD PUSH2 0x1E3 SWAP2 SWAP1 PUSH2 0xD3A JUMP JUMPDEST PUSH1 0x40 MLOAD DUP1 SWAP2 SUB SWAP1 RETURN JUMPDEST CALLVALUE DUP1 ISZERO PUSH2 0x1F7 JUMPI PUSH0 DUP1 REVERT JUMPDEST POP PUSH2 0x212 PUSH1 0x4 DUP1 CALLDATASIZE SUB DUP2 ADD SWAP1 PUSH2 0x20D SWAP2 SWAP1 PUSH2 0xD53 JUMP JUMPDEST PUSH2 0x4AA JUMP JUMPDEST STOP JUMPDEST CALLVALUE DUP1 ISZERO PUSH2 0x21F JUMPI PUSH0 DUP1 REVERT JUMPDEST POP PUSH2 0x23A PUSH1 0x4 DUP1 CALLDATASIZE SUB DUP2 ADD SWAP1 PUSH2 0x235 SWAP2 SWAP1 PUSH2 0xD53 JUMP JUMPDEST PUSH2 0x641 JUMP JUMPDEST PUSH1 0x40 MLOAD PUSH2 0x24B SWAP6 SWAP5 SWAP4 SWAP3 SWAP2 SWAP1 PUSH2 0xE21 JUMP JUMPDEST PUSH1 0x40 MLOAD DUP1 SWAP2 SUB SWAP1 RETURN JUMPDEST CALLVALUE DUP1 ISZERO PUSH2 0x25F JUMPI PUSH0 DUP1 REVERT JUMPDEST POP PUSH2 0x268 PUSH2 0x724 JUMP JUMPDEST STOP JUMPDEST PUSH2 0x272 PUSH2 0x8BD JUMP JUMPDEST STOP JUMPDEST CALLVALUE DUP1 ISZERO PUSH2 0x27F JUMPI PUSH0 DUP1 REVERT JUMPDEST POP PUSH2 0x288 PUSH2 0xA3F JUMP JUMPDEST PUSH1 0x40 MLOAD PUSH2 0x295 SWAP2 SWAP1 PUSH2 0xA6F JUMP JUMPDEST PUSH1 0x40 MLOAD DUP1 SWAP2 SUB SWAP1 RETURN JUMPDEST CALLVALUE DUP1 ISZERO PUSH2 0x2A9 JUMPI PUSH0 DUP1 REVERT JUMPDEST POP PUSH2 0x2B2 PUSH2 0xA45 JUMP JUMPDEST PUSH1 0x40 MLOAD PUSH2 0x2BF SWAP2 SWAP1 PUSH2 0xA6F JUMP JUMPDEST PUSH1 0x40 MLOAD DUP1 SWAP2 SUB SWAP1 RETURN JUMPDEST CALLVALUE DUP1 ISZERO PUSH2 0x2D3 JUMPI PUSH0 DUP1 REVERT JUMPDEST POP PUSH2 0x2DC PUSH2 0xA4B JUMP JUMPDEST PUSH1 0x40 MLOAD PUSH2 0x2E9 SWAP2 SWAP1 PUSH2 0xA6F JUMP JUMPDEST PUSH1 0x40 MLOAD DUP1 SWAP2 SUB SWAP1 RETURN JUMPDEST CALLVALUE DUP1 ISZERO PUSH2 0x2FD JUMPI PUSH0 DUP1 REVERT JUMPDEST POP PUSH2 0x306 PUSH2 0xA51 JUMP JUMPDEST PUSH1 0x40 MLOAD PUSH2 0x313 SWAP2 SWAP1 PUSH2 0xA6F JUMP JUMPDEST PUSH1 0x40 MLOAD DUP1 SWAP2 SUB SWAP1 RETURN JUMPDEST PUSH0 SELFBALANCE SWAP1 POP SWAP1 JUMP JUMPDEST PUSH1 0x1 PUSH0 SWAP1 SLOAD SWAP1 PUSH2 0x100 EXP SWAP1 DIV PUSH20 0xFFFFFFFFFFFFFFFFFFFFFFFFFFFFFFFFFFFFFFFF AND PUSH20 0xFFFFFFFFFFFFFFFFFFFFFFFFFFFFFFFFFFFFFFFF AND CALLER PUSH20 0xFFFFFFFFFFFFFFFFFFFFFFFFFFFFFFFFFFFFFFFF AND EQ PUSH2 0x3B2 JUMPI PUSH1 0x40 MLOAD PUSH32 0x8C379A000000000000000000000000000000000000000000000000000000000 DUP2 MSTORE PUSH1 0x4 ADD PUSH2 0x3A9 SWAP1 PUSH2 0xEE9 JUMP JUMPDEST PUSH1 0x40 MLOAD DUP1 SWAP2 SUB SWAP1 REVERT JUMPDEST PUSH0 PUSH1 0x7 PUSH0 PUSH1 0x8 SLOAD DUP2 MSTORE PUSH1 0x20 ADD SWAP1 DUP2 MSTORE PUSH1 0x20 ADD PUSH0 KECCAK256 SWAP1 POP PUSH1 0x8 PUSH0 DUP2 SLOAD DUP1 SWAP3 SWAP2 SWAP1 PUSH2 0x3DA SWAP1 PUSH2 0xF34 JUMP JUMPDEST SWAP2 SWAP1 POP SSTORE POP DUP4 DUP2 PUSH0 ADD SWAP1 DUP2 PUSH2 0x3EF SWAP2 SWAP1 PUSH2 0x1175 JUMP JUMPDEST POP DUP3 DUP2 PUSH1 0x1 ADD PUSH0 PUSH2 0x100 EXP DUP2 SLOAD DUP2 PUSH20 0xFFFFFFFFFFFFFFFFFFFFFFFFFFFFFFFFFFFFFFFF MUL NOT AND SWAP1 DUP4 PUSH20 0xFFFFFFFFFFFFFFFFFFFFFFFFFFFFFFFFFFFFFFFF AND MUL OR SWAP1 SSTORE POP DUP2 DUP2 PUSH1 0x2 ADD DUP2 SWAP1 SSTORE POP PUSH0 DUP2 PUSH1 0x3 ADD PUSH0 PUSH2 0x100 EXP DUP2 SLOAD DUP2 PUSH1 0xFF MUL NOT AND SWAP1 DUP4 ISZERO ISZERO MUL OR SWAP1 SSTORE POP PUSH0 DUP2 PUSH1 0x4 ADD DUP2 SWAP1 SSTORE POP POP POP POP POP JUMP JUMPDEST PUSH0 PUSH1 0x20 MSTORE DUP1 PUSH0 MSTORE PUSH1 0x40 PUSH0 KECCAK256 PUSH0 SWAP2 POP SWAP1 POP SLOAD DUP2 JUMP JUMPDEST PUSH1 0x4 SLOAD DUP2 JUMP JUMPDEST PUSH1 0x6 SLOAD DUP2 JUMP JUMPDEST PUSH1 0x1 PUSH0 SWAP1 SLOAD SWAP1 PUSH2 0x100 EXP SWAP1 DIV PUSH20 0xFFFFFFFFFFFFFFFFFFFFFFFFFFFFFFFFFFFFFFFF AND DUP2 JUMP JUMPDEST PUSH0 DUP1 PUSH0 CALLER PUSH20 0xFFFFFFFFFFFFFFFFFFFFFFFFFFFFFFFFFFFFFFFF AND PUSH20 0xFFFFFFFFFFFFFFFFFFFFFFFFFFFFFFFFFFFFFFFF AND DUP2 MSTORE PUSH1 0x20 ADD SWAP1 DUP2 MSTORE PUSH1 0x20 ADD PUSH0 KECCAK256 SLOAD GT PUSH2 0x528 JUMPI PUSH1 0x40 MLOAD PUSH32 0x8C379A000000000000000000000000000000000000000000000000000000000 DUP2 MSTORE PUSH1 0x4 ADD PUSH2 0x51F SWAP1 PUSH2 0x12B4 JUMP JUMPDEST PUSH1 0x40 MLOAD DUP1 SWAP2 SUB SWAP1 REVERT JUMPDEST PUSH0 PUSH1 0x7 PUSH0 DUP4 DUP2 MSTORE PUSH1 0x20 ADD SWAP1 DUP2 MSTORE PUSH1 0x20 ADD PUSH0 KECCAK256 SWAP1 POP PUSH0 ISZERO ISZERO DUP2 PUSH1 0x5 ADD PUSH0 CALLER PUSH20 0xFFFFFFFFFFFFFFFFFFFFFFFFFFFFFFFFFFFFFFFF AND PUSH20 0xFFFFFFFFFFFFFFFFFFFFFFFFFFFFFFFFFFFFFFFF AND DUP2 MSTORE PUSH1 0x20 ADD SWAP1 DUP2 MSTORE PUSH1 0x20 ADD PUSH0 KECCAK256 PUSH0 SWAP1 SLOAD SWAP1 PUSH2 0x100 EXP SWAP1 DIV PUSH1 0xFF AND ISZERO ISZERO EQ PUSH2 0x5CD JUMPI PUSH1 0x40 MLOAD PUSH32 0x8C379A000000000000000000000000000000000000000000000000000000000 DUP2 MSTORE PUSH1 0x4 ADD PUSH2 0x5C4 SWAP1 PUSH2 0x131C JUMP JUMPDEST PUSH1 0x40 MLOAD DUP1 SWAP2 SUB SWAP1 REVERT JUMPDEST PUSH1 0x1 DUP2 PUSH1 0x5 ADD PUSH0 CALLER PUSH20 0xFFFFFFFFFFFFFFFFFFFFFFFFFFFFFFFFFFFFFFFF AND PUSH20 0xFFFFFFFFFFFFFFFFFFFFFFFFFFFFFFFFFFFFFFFF AND DUP2 MSTORE PUSH1 0x20 ADD SWAP1 DUP2 MSTORE PUSH1 0x20 ADD PUSH0 KECCAK256 PUSH0 PUSH2 0x100 EXP DUP2 SLOAD DUP2 PUSH1 0xFF MUL NOT AND SWAP1 DUP4 ISZERO ISZERO MUL OR SWAP1 SSTORE POP DUP1 PUSH1 0x4 ADD PUSH0 DUP2 SLOAD DUP1 SWAP3 SWAP2 SWAP1 PUSH2 0x638 SWAP1 PUSH2 0xF34 JUMP JUMPDEST SWAP2 SWAP1 POP SSTORE POP POP POP JUMP JUMPDEST PUSH1 0x7 PUSH1 0x20 MSTORE DUP1 PUSH0 MSTORE PUSH1 0x40 PUSH0 KECCAK256 PUSH0 SWAP2 POP SWAP1 POP DUP1 PUSH0 ADD DUP1 SLOAD PUSH2 0x660 SWAP1 PUSH2 0xFA8 JUMP JUMPDEST DUP1 PUSH1 0x1F ADD PUSH1 0x20 DUP1 SWAP2 DIV MUL PUSH1 0x20 ADD PUSH1 0x40 MLOAD SWAP1 DUP2 ADD PUSH1 0x40 MSTORE DUP1 SWAP3 SWAP2 SWAP1 DUP2 DUP2 MSTORE PUSH1 0x20 ADD DUP3 DUP1 SLOAD PUSH2 0x68C SWAP1 PUSH2 0xFA8 JUMP JUMPDEST DUP1 ISZERO PUSH2 0x6D7 JUMPI DUP1 PUSH1 0x1F LT PUSH2 0x6AE JUMPI PUSH2 0x100 DUP1 DUP4 SLOAD DIV MUL DUP4 MSTORE SWAP2 PUSH1 0x20 ADD SWAP2 PUSH2 0x6D7 JUMP JUMPDEST DUP3 ADD SWAP2 SWAP1 PUSH0 MSTORE PUSH1 0x20 PUSH0 KECCAK256 SWAP1 JUMPDEST DUP2 SLOAD DUP2 MSTORE SWAP1 PUSH1 0x1 ADD SWAP1 PUSH1 0x20 ADD DUP1 DUP4 GT PUSH2 0x6BA JUMPI DUP3 SWAP1 SUB PUSH1 0x1F AND DUP3 ADD SWAP2 JUMPDEST POP POP POP POP POP SWAP1 DUP1 PUSH1 0x1 ADD PUSH0 SWAP1 SLOAD SWAP1 PUSH2 0x100 EXP SWAP1 DIV PUSH20 0xFFFFFFFFFFFFFFFFFFFFFFFFFFFFFFFFFFFFFFFF AND SWAP1 DUP1 PUSH1 0x2 ADD SLOAD SWAP1 DUP1 PUSH1 0x3 ADD PUSH0 SWAP1 SLOAD SWAP1 PUSH2 0x100 EXP SWAP1 DIV PUSH1 0xFF AND SWAP1 DUP1 PUSH1 0x4 ADD SLOAD SWAP1 POP DUP6 JUMP JUMPDEST TIMESTAMP PUSH1 0x4 SLOAD LT DUP1 ISZERO PUSH2 0x738 JUMPI POP PUSH1 0x3 SLOAD PUSH1 0x5 SLOAD LT JUMPDEST PUSH2 0x777 JUMPI PUSH1 0x40 MLOAD PUSH32 0x8C379A000000000000000000000000000000000000000000000000000000000 DUP2 MSTORE PUSH1 0x4 ADD PUSH2 0x76E SWAP1 PUSH2 0x13AA JUMP JUMPDEST PUSH1 0x40 MLOAD DUP1 SWAP2 SUB SWAP1 REVERT JUMPDEST PUSH0 DUP1 PUSH0 CALLER PUSH20 0xFFFFFFFFFFFFFFFFFFFFFFFFFFFFFFFFFFFFFFFF AND PUSH20 0xFFFFFFFFFFFFFFFFFFFFFFFFFFFFFFFFFFFFFFFF AND DUP2 MSTORE PUSH1 0x20 ADD SWAP1 DUP2 MSTORE PUSH1 0x20 ADD PUSH0 KECCAK256 SLOAD GT PUSH2 0x7F5 JUMPI PUSH1 0x40 MLOAD PUSH32 0x8C379A000000000000000000000000000000000000000000000000000000000 DUP2 MSTORE PUSH1 0x4 ADD PUSH2 0x7EC SWAP1 PUSH2 0x1412 JUMP JUMPDEST PUSH1 0x40 MLOAD DUP1 SWAP2 SUB SWAP1 REVERT JUMPDEST PUSH0 CALLER SWAP1 POP DUP1 PUSH20 0xFFFFFFFFFFFFFFFFFFFFFFFFFFFFFFFFFFFFFFFF AND PUSH2 0x8FC PUSH0 DUP1 CALLER PUSH20 0xFFFFFFFFFFFFFFFFFFFFFFFFFFFFFFFFFFFFFFFF AND PUSH20 0xFFFFFFFFFFFFFFFFFFFFFFFFFFFFFFFFFFFFFFFF AND DUP2 MSTORE PUSH1 0x20 ADD SWAP1 DUP2 MSTORE PUSH1 0x20 ADD PUSH0 KECCAK256 SLOAD SWAP1 DUP2 ISZERO MUL SWAP1 PUSH1 0x40 MLOAD PUSH0 PUSH1 0x40 MLOAD DUP1 DUP4 SUB DUP2 DUP6 DUP9 DUP9 CALL SWAP4 POP POP POP POP ISZERO DUP1 ISZERO PUSH2 0x878 JUMPI RETURNDATASIZE PUSH0 DUP1 RETURNDATACOPY RETURNDATASIZE PUSH0 REVERT JUMPDEST POP PUSH0 DUP1 PUSH0 CALLER PUSH20 0xFFFFFFFFFFFFFFFFFFFFFFFFFFFFFFFFFFFFFFFF AND PUSH20 0xFFFFFFFFFFFFFFFFFFFFFFFFFFFFFFFFFFFFFFFF AND DUP2 MSTORE PUSH1 0x20 ADD SWAP1 DUP2 MSTORE PUSH1 0x20 ADD PUSH0 KECCAK256 DUP2 SWAP1 SSTORE POP POP JUMP JUMPDEST TIMESTAMP PUSH1 0x4 SLOAD GT PUSH2 0x901 JUMPI PUSH1 0x40 MLOAD PUSH32 0x8C379A000000000000000000000000000000000000000000000000000000000 DUP2 MSTORE PUSH1 0x4 ADD PUSH2 0x8F8 SWAP1 PUSH2 0x14A0 JUMP JUMPDEST PUSH1 0x40 MLOAD DUP1 SWAP2 SUB SWAP1 REVERT JUMPDEST PUSH1 0x2 SLOAD CALLVALUE LT ISZERO PUSH2 0x946 JUMPI PUSH1 0x40 MLOAD PUSH32 0x8C379A000000000000000000000000000000000000000000000000000000000 DUP2 MSTORE PUSH1 0x4 ADD PUSH2 0x93D SWAP1 PUSH2 0x1508 JUMP JUMPDEST PUSH1 0x40 MLOAD DUP1 SWAP2 SUB SWAP1 REVERT JUMPDEST PUSH0 DUP1 PUSH0 CALLER PUSH20 0xFFFFFFFFFFFFFFFFFFFFFFFFFFFFFFFFFFFFFFFF AND PUSH20 0xFFFFFFFFFFFFFFFFFFFFFFFFFFFFFFFFFFFFFFFF AND DUP2 MSTORE PUSH1 0x20 ADD SWAP1 DUP2 MSTORE PUSH1 0x20 ADD PUSH0 KECCAK256 SLOAD SUB PUSH2 0x9A1 JUMPI PUSH1 0x6 PUSH0 DUP2 SLOAD DUP1 SWAP3 SWAP2 SWAP1 PUSH2 0x99B SWAP1 PUSH2 0xF34 JUMP JUMPDEST SWAP2 SWAP1 POP SSTORE POP JUMPDEST CALLVALUE PUSH0 DUP1 CALLER PUSH20 0xFFFFFFFFFFFFFFFFFFFFFFFFFFFFFFFFFFFFFFFF AND PUSH20 0xFFFFFFFFFFFFFFFFFFFFFFFFFFFFFFFFFFFFFFFF AND DUP2 MSTORE PUSH1 0x20 ADD SWAP1 DUP2 MSTORE PUSH1 0x20 ADD PUSH0 KECCAK256 SLOAD PUSH2 0x9E9 SWAP2 SWAP1 PUSH2 0x1526 JUMP JUMPDEST PUSH0 DUP1 CALLER PUSH20 0xFFFFFFFFFFFFFFFFFFFFFFFFFFFFFFFFFFFFFFFF AND PUSH20 0xFFFFFFFFFFFFFFFFFFFFFFFFFFFFFFFFFFFFFFFF AND DUP2 MSTORE PUSH1 0x20 ADD SWAP1 DUP2 MSTORE PUSH1 0x20 ADD PUSH0 KECCAK256 DUP2 SWAP1 SSTORE POP CALLVALUE PUSH1 0x5 SLOAD PUSH2 0xA37 SWAP2 SWAP1 PUSH2 0x1526 JUMP JUMPDEST PUSH1 0x5 DUP2 SWAP1 SSTORE POP JUMP JUMPDEST PUSH1 0x2 SLOAD DUP2 JUMP JUMPDEST PUSH1 0x5 SLOAD DUP2 JUMP JUMPDEST PUSH1 0x3 SLOAD DUP2 JUMP JUMPDEST PUSH1 0x8 SLOAD DUP2 JUMP JUMPDEST PUSH0 DUP2 SWAP1 POP SWAP2 SWAP1 POP JUMP JUMPDEST PUSH2 0xA69 DUP2 PUSH2 0xA57 JUMP JUMPDEST DUP3 MSTORE POP POP JUMP JUMPDEST PUSH0 PUSH1 0x20 DUP3 ADD SWAP1 POP PUSH2 0xA82 PUSH0 DUP4 ADD DUP5 PUSH2 0xA60 JUMP JUMPDEST SWAP3 SWAP2 POP POP JUMP JUMPDEST PUSH0 PUSH1 0x40 MLOAD SWAP1 POP SWAP1 JUMP JUMPDEST PUSH0 DUP1 REVERT JUMPDEST PUSH0 DUP1 REVERT JUMPDEST PUSH0 DUP1 REVERT JUMPDEST PUSH0 DUP1 REVERT JUMPDEST PUSH0 PUSH1 0x1F NOT PUSH1 0x1F DUP4 ADD AND SWAP1 POP SWAP2 SWAP1 POP JUMP JUMPDEST PUSH32 0x4E487B7100000000000000000000000000000000000000000000000000000000 PUSH0 MSTORE PUSH1 0x41 PUSH1 0x4 MSTORE PUSH1 0x24 PUSH0 REVERT JUMPDEST PUSH2 0xAE7 DUP3 PUSH2 0xAA1 JUMP JUMPDEST DUP2 ADD DUP2 DUP2 LT PUSH8 0xFFFFFFFFFFFFFFFF DUP3 GT OR ISZERO PUSH2 0xB06 JUMPI PUSH2 0xB05 PUSH2 0xAB1 JUMP JUMPDEST JUMPDEST DUP1 PUSH1 0x40 MSTORE POP POP POP JUMP JUMPDEST PUSH0 PUSH2 0xB18 PUSH2 0xA88 JUMP JUMPDEST SWAP1 POP PUSH2 0xB24 DUP3 DUP3 PUSH2 0xADE JUMP JUMPDEST SWAP2 SWAP1 POP JUMP JUMPDEST PUSH0 PUSH8 0xFFFFFFFFFFFFFFFF DUP3 GT ISZERO PUSH2 0xB43 JUMPI PUSH2 0xB42 PUSH2 0xAB1 JUMP JUMPDEST JUMPDEST PUSH2 0xB4C DUP3 PUSH2 0xAA1 JUMP JUMPDEST SWAP1 POP PUSH1 0x20 DUP2 ADD SWAP1 POP SWAP2 SWAP1 POP JUMP JUMPDEST DUP3 DUP2 DUP4 CALLDATACOPY PUSH0 DUP4 DUP4 ADD MSTORE POP POP POP JUMP JUMPDEST PUSH0 PUSH2 0xB79 PUSH2 0xB74 DUP5 PUSH2 0xB29 JUMP JUMPDEST PUSH2 0xB0F JUMP JUMPDEST SWAP1 POP DUP3 DUP2 MSTORE PUSH1 0x20 DUP2 ADD DUP5 DUP5 DUP5 ADD GT ISZERO PUSH2 0xB95 JUMPI PUSH2 0xB94 PUSH2 0xA9D JUMP JUMPDEST JUMPDEST PUSH2 0xBA0 DUP5 DUP3 DUP6 PUSH2 0xB59 JUMP JUMPDEST POP SWAP4 SWAP3 POP POP POP JUMP JUMPDEST PUSH0 DUP3 PUSH1 0x1F DUP4 ADD SLT PUSH2 0xBBC JUMPI PUSH2 0xBBB PUSH2 0xA99 JUMP JUMPDEST JUMPDEST DUP2 CALLDATALOAD PUSH2 0xBCC DUP5 DUP3 PUSH1 0x20 DUP7 ADD PUSH2 0xB67 JUMP JUMPDEST SWAP2 POP POP SWAP3 SWAP2 POP POP JUMP JUMPDEST PUSH0 PUSH20 0xFFFFFFFFFFFFFFFFFFFFFFFFFFFFFFFFFFFFFFFF DUP3 AND SWAP1 POP SWAP2 SWAP1 POP JUMP JUMPDEST PUSH0 PUSH2 0xBFE DUP3 PUSH2 0xBD5 JUMP JUMPDEST SWAP1 POP SWAP2 SWAP1 POP JUMP JUMPDEST PUSH2 0xC0E DUP2 PUSH2 0xBF4 JUMP JUMPDEST DUP2 EQ PUSH2 0xC18 JUMPI PUSH0 DUP1 REVERT JUMPDEST POP JUMP JUMPDEST PUSH0 DUP2 CALLDATALOAD SWAP1 POP PUSH2 0xC29 DUP2 PUSH2 0xC05 JUMP JUMPDEST SWAP3 SWAP2 POP POP JUMP JUMPDEST PUSH2 0xC38 DUP2 PUSH2 0xA57 JUMP JUMPDEST DUP2 EQ PUSH2 0xC42 JUMPI PUSH0 DUP1 REVERT JUMPDEST POP JUMP JUMPDEST PUSH0 DUP2 CALLDATALOAD SWAP1 POP PUSH2 0xC53 DUP2 PUSH2 0xC2F JUMP JUMPDEST SWAP3 SWAP2 POP POP JUMP JUMPDEST PUSH0 DUP1 PUSH0 PUSH1 0x60 DUP5 DUP7 SUB SLT ISZERO PUSH2 0xC70 JUMPI PUSH2 0xC6F PUSH2 0xA91 JUMP JUMPDEST JUMPDEST PUSH0 DUP5 ADD CALLDATALOAD PUSH8 0xFFFFFFFFFFFFFFFF DUP2 GT ISZERO PUSH2 0xC8D JUMPI PUSH2 0xC8C PUSH2 0xA95 JUMP JUMPDEST JUMPDEST PUSH2 0xC99 DUP7 DUP3 DUP8 ADD PUSH2 0xBA8 JUMP JUMPDEST SWAP4 POP POP PUSH1 0x20 PUSH2 0xCAA DUP7 DUP3 DUP8 ADD PUSH2 0xC1B JUMP JUMPDEST SWAP3 POP POP PUSH1 0x40 PUSH2 0xCBB DUP7 DUP3 DUP8 ADD PUSH2 0xC45 JUMP JUMPDEST SWAP2 POP POP SWAP3 POP SWAP3 POP SWAP3 JUMP JUMPDEST PUSH0 PUSH2 0xCCF DUP3 PUSH2 0xBD5 JUMP JUMPDEST SWAP1 POP SWAP2 SWAP1 POP JUMP JUMPDEST PUSH2 0xCDF DUP2 PUSH2 0xCC5 JUMP JUMPDEST DUP2 EQ PUSH2 0xCE9 JUMPI PUSH0 DUP1 REVERT JUMPDEST POP JUMP JUMPDEST PUSH0 DUP2 CALLDATALOAD SWAP1 POP PUSH2 0xCFA DUP2 PUSH2 0xCD6 JUMP JUMPDEST SWAP3 SWAP2 POP POP JUMP JUMPDEST PUSH0 PUSH1 0x20 DUP3 DUP5 SUB SLT ISZERO PUSH2 0xD15 JUMPI PUSH2 0xD14 PUSH2 0xA91 JUMP JUMPDEST JUMPDEST PUSH0 PUSH2 0xD22 DUP5 DUP3 DUP6 ADD PUSH2 0xCEC JUMP JUMPDEST SWAP2 POP POP SWAP3 SWAP2 POP POP JUMP JUMPDEST PUSH2 0xD34 DUP2 PUSH2 0xCC5 JUMP JUMPDEST DUP3 MSTORE POP POP JUMP JUMPDEST PUSH0 PUSH1 0x20 DUP3 ADD SWAP1 POP PUSH2 0xD4D PUSH0 DUP4 ADD DUP5 PUSH2 0xD2B JUMP JUMPDEST SWAP3 SWAP2 POP POP JUMP JUMPDEST PUSH0 PUSH1 0x20 DUP3 DUP5 SUB SLT ISZERO PUSH2 0xD68 JUMPI PUSH2 0xD67 PUSH2 0xA91 JUMP JUMPDEST JUMPDEST PUSH0 PUSH2 0xD75 DUP5 DUP3 DUP6 ADD PUSH2 0xC45 JUMP JUMPDEST SWAP2 POP POP SWAP3 SWAP2 POP POP JUMP JUMPDEST PUSH0 DUP2 MLOAD SWAP1 POP SWAP2 SWAP1 POP JUMP JUMPDEST PUSH0 DUP3 DUP3 MSTORE PUSH1 0x20 DUP3 ADD SWAP1 POP SWAP3 SWAP2 POP POP JUMP JUMPDEST PUSH0 JUMPDEST DUP4 DUP2 LT ISZERO PUSH2 0xDB5 JUMPI DUP1 DUP3 ADD MLOAD DUP2 DUP5 ADD MSTORE PUSH1 0x20 DUP2 ADD SWAP1 POP PUSH2 0xD9A JUMP JUMPDEST PUSH0 DUP5 DUP5 ADD MSTORE POP POP POP POP JUMP JUMPDEST PUSH0 PUSH2 0xDCA DUP3 PUSH2 0xD7E JUMP JUMPDEST PUSH2 0xDD4 DUP2 DUP6 PUSH2 0xD88 JUMP JUMPDEST SWAP4 POP PUSH2 0xDE4 DUP2 DUP6 PUSH1 0x20 DUP7 ADD PUSH2 0xD98 JUMP JUMPDEST PUSH2 0xDED DUP2 PUSH2 0xAA1 JUMP JUMPDEST DUP5 ADD SWAP2 POP POP SWAP3 SWAP2 POP POP JUMP JUMPDEST PUSH2 0xE01 DUP2 PUSH2 0xBF4 JUMP JUMPDEST DUP3 MSTORE POP POP JUMP JUMPDEST PUSH0 DUP2 ISZERO ISZERO SWAP1 POP SWAP2 SWAP1 POP JUMP JUMPDEST PUSH2 0xE1B DUP2 PUSH2 0xE07 JUMP JUMPDEST DUP3 MSTORE POP POP JUMP JUMPDEST PUSH0 PUSH1 0xA0 DUP3 ADD SWAP1 POP DUP2 DUP2 SUB PUSH0 DUP4 ADD MSTORE PUSH2 0xE39 DUP2 DUP9 PUSH2 0xDC0 JUMP JUMPDEST SWAP1 POP PUSH2 0xE48 PUSH1 0x20 DUP4 ADD DUP8 PUSH2 0xDF8 JUMP JUMPDEST PUSH2 0xE55 PUSH1 0x40 DUP4 ADD DUP7 PUSH2 0xA60 JUMP JUMPDEST PUSH2 0xE62 PUSH1 0x60 DUP4 ADD DUP6 PUSH2 0xE12 JUMP JUMPDEST PUSH2 0xE6F PUSH1 0x80 DUP4 ADD DUP5 PUSH2 0xA60 JUMP JUMPDEST SWAP7 SWAP6 POP POP POP POP POP POP JUMP JUMPDEST PUSH32 0x4F6E6C79206D616E616765722063616E2063616C6C20726769732066756E6374 PUSH0 DUP3 ADD MSTORE PUSH32 0x696F6E0000000000000000000000000000000000000000000000000000000000 PUSH1 0x20 DUP3 ADD MSTORE POP JUMP JUMPDEST PUSH0 PUSH2 0xED3 PUSH1 0x23 DUP4 PUSH2 0xD88 JUMP JUMPDEST SWAP2 POP PUSH2 0xEDE DUP3 PUSH2 0xE79 JUMP JUMPDEST PUSH1 0x40 DUP3 ADD SWAP1 POP SWAP2 SWAP1 POP JUMP JUMPDEST PUSH0 PUSH1 0x20 DUP3 ADD SWAP1 POP DUP2 DUP2 SUB PUSH0 DUP4 ADD MSTORE PUSH2 0xF00 DUP2 PUSH2 0xEC7 JUMP JUMPDEST SWAP1 POP SWAP2 SWAP1 POP JUMP JUMPDEST PUSH32 0x4E487B7100000000000000000000000000000000000000000000000000000000 PUSH0 MSTORE PUSH1 0x11 PUSH1 0x4 MSTORE PUSH1 0x24 PUSH0 REVERT JUMPDEST PUSH0 PUSH2 0xF3E DUP3 PUSH2 0xA57 JUMP JUMPDEST SWAP2 POP PUSH32 0xFFFFFFFFFFFFFFFFFFFFFFFFFFFFFFFFFFFFFFFFFFFFFFFFFFFFFFFFFFFFFFFF DUP3 SUB PUSH2 0xF70 JUMPI PUSH2 0xF6F PUSH2 0xF07 JUMP JUMPDEST JUMPDEST PUSH1 0x1 DUP3 ADD SWAP1 POP SWAP2 SWAP1 POP JUMP JUMPDEST PUSH32 0x4E487B7100000000000000000000000000000000000000000000000000000000 PUSH0 MSTORE PUSH1 0x22 PUSH1 0x4 MSTORE PUSH1 0x24 PUSH0 REVERT JUMPDEST PUSH0 PUSH1 0x2 DUP3 DIV SWAP1 POP PUSH1 0x1 DUP3 AND DUP1 PUSH2 0xFBF JUMPI PUSH1 0x7F DUP3 AND SWAP2 POP JUMPDEST PUSH1 0x20 DUP3 LT DUP2 SUB PUSH2 0xFD2 JUMPI PUSH2 0xFD1 PUSH2 0xF7B JUMP JUMPDEST JUMPDEST POP SWAP2 SWAP1 POP JUMP JUMPDEST PUSH0 DUP2 SWAP1 POP DUP2 PUSH0 MSTORE PUSH1 0x20 PUSH0 KECCAK256 SWAP1 POP SWAP2 SWAP1 POP JUMP JUMPDEST PUSH0 PUSH1 0x20 PUSH1 0x1F DUP4 ADD DIV SWAP1 POP SWAP2 SWAP1 POP JUMP JUMPDEST PUSH0 DUP3 DUP3 SHL SWAP1 POP SWAP3 SWAP2 POP POP JUMP JUMPDEST PUSH0 PUSH1 0x8 DUP4 MUL PUSH2 0x1034 PUSH32 0xFFFFFFFFFFFFFFFFFFFFFFFFFFFFFFFFFFFFFFFFFFFFFFFFFFFFFFFFFFFFFFFF DUP3 PUSH2 0xFF9 JUMP JUMPDEST PUSH2 0x103E DUP7 DUP4 PUSH2 0xFF9 JUMP JUMPDEST SWAP6 POP DUP1 NOT DUP5 AND SWAP4 POP DUP1 DUP7 AND DUP5 OR SWAP3 POP POP POP SWAP4 SWAP3 POP POP POP JUMP JUMPDEST PUSH0 DUP2 SWAP1 POP SWAP2 SWAP1 POP JUMP JUMPDEST PUSH0 PUSH2 0x1079 PUSH2 0x1074 PUSH2 0x106F DUP5 PUSH2 0xA57 JUMP JUMPDEST PUSH2 0x1056 JUMP JUMPDEST PUSH2 0xA57 JUMP JUMPDEST SWAP1 POP SWAP2 SWAP1 POP JUMP JUMPDEST PUSH0 DUP2 SWAP1 POP SWAP2 SWAP1 POP JUMP JUMPDEST PUSH2 0x1092 DUP4 PUSH2 0x105F JUMP JUMPDEST PUSH2 0x10A6 PUSH2 0x109E DUP3 PUSH2 0x1080 JUMP JUMPDEST DUP5 DUP5 SLOAD PUSH2 0x1005 JUMP JUMPDEST DUP3 SSTORE POP POP POP POP JUMP JUMPDEST PUSH0 SWAP1 JUMP JUMPDEST PUSH2 0x10BA PUSH2 0x10AE JUMP JUMPDEST PUSH2 0x10C5 DUP2 DUP5 DUP5 PUSH2 0x1089 JUMP JUMPDEST POP POP POP JUMP JUMPDEST JUMPDEST DUP2 DUP2 LT ISZERO PUSH2 0x10E8 JUMPI PUSH2 0x10DD PUSH0 DUP3 PUSH2 0x10B2 JUMP JUMPDEST PUSH1 0x1 DUP2 ADD SWAP1 POP PUSH2 0x10CB JUMP JUMPDEST POP POP JUMP JUMPDEST PUSH1 0x1F DUP3 GT ISZERO PUSH2 0x112D JUMPI PUSH2 0x10FE DUP2 PUSH2 0xFD8 JUMP JUMPDEST PUSH2 0x1107 DUP5 PUSH2 0xFEA JUMP JUMPDEST DUP2 ADD PUSH1 0x20 DUP6 LT ISZERO PUSH2 0x1116 JUMPI DUP2 SWAP1 POP JUMPDEST PUSH2 0x112A PUSH2 0x1122 DUP6 PUSH2 0xFEA JUMP JUMPDEST DUP4 ADD DUP3 PUSH2 0x10CA JUMP JUMPDEST POP POP JUMPDEST POP POP POP JUMP JUMPDEST PUSH0 DUP3 DUP3 SHR SWAP1 POP SWAP3 SWAP2 POP POP JUMP JUMPDEST PUSH0 PUSH2 0x114D PUSH0 NOT DUP5 PUSH1 0x8 MUL PUSH2 0x1132 JUMP JUMPDEST NOT DUP1 DUP4 AND SWAP2 POP POP SWAP3 SWAP2 POP POP JUMP JUMPDEST PUSH0 PUSH2 0x1165 DUP4 DUP4 PUSH2 0x113E JUMP JUMPDEST SWAP2 POP DUP3 PUSH1 0x2 MUL DUP3 OR SWAP1 POP SWAP3 SWAP2 POP POP JUMP JUMPDEST PUSH2 0x117E DUP3 PUSH2 0xD7E JUMP JUMPDEST PUSH8 0xFFFFFFFFFFFFFFFF DUP2 GT ISZERO PUSH2 0x1197 JUMPI PUSH2 0x1196 PUSH2 0xAB1 JUMP JUMPDEST JUMPDEST PUSH2 0x11A1 DUP3 SLOAD PUSH2 0xFA8 JUMP JUMPDEST PUSH2 0x11AC DUP3 DUP3 DUP6 PUSH2 0x10EC JUMP JUMPDEST PUSH0 PUSH1 0x20 SWAP1 POP PUSH1 0x1F DUP4 GT PUSH1 0x1 DUP2 EQ PUSH2 0x11DD JUMPI PUSH0 DUP5 ISZERO PUSH2 0x11CB JUMPI DUP3 DUP8 ADD MLOAD SWAP1 POP JUMPDEST PUSH2 0x11D5 DUP6 DUP3 PUSH2 0x115A JUMP JUMPDEST DUP7 SSTORE POP PUSH2 0x123C JUMP JUMPDEST PUSH1 0x1F NOT DUP5 AND PUSH2 0x11EB DUP7 PUSH2 0xFD8 JUMP JUMPDEST PUSH0 JUMPDEST DUP3 DUP2 LT ISZERO PUSH2 0x1212 JUMPI DUP5 DUP10 ADD MLOAD DUP3 SSTORE PUSH1 0x1 DUP3 ADD SWAP2 POP PUSH1 0x20 DUP6 ADD SWAP5 POP PUSH1 0x20 DUP2 ADD SWAP1 POP PUSH2 0x11ED JUMP JUMPDEST DUP7 DUP4 LT ISZERO PUSH2 0x122F JUMPI DUP5 DUP10 ADD MLOAD PUSH2 0x122B PUSH1 0x1F DUP10 AND DUP3 PUSH2 0x113E JUMP JUMPDEST DUP4 SSTORE POP JUMPDEST PUSH1 0x1 PUSH1 0x2 DUP9 MUL ADD DUP9 SSTORE POP POP POP JUMPDEST POP POP POP POP POP POP JUMP JUMPDEST PUSH32 0x596F75206D757374206265206120636F6E7472696275746F7220746F20706172 PUSH0 DUP3 ADD MSTORE PUSH32 0x746963697061746520696E20766F74696E670000000000000000000000000000 PUSH1 0x20 DUP3 ADD MSTORE POP JUMP JUMPDEST PUSH0 PUSH2 0x129E PUSH1 0x32 DUP4 PUSH2 0xD88 JUMP JUMPDEST SWAP2 POP PUSH2 0x12A9 DUP3 PUSH2 0x1244 JUMP JUMPDEST PUSH1 0x40 DUP3 ADD SWAP1 POP SWAP2 SWAP1 POP JUMP JUMPDEST PUSH0 PUSH1 0x20 DUP3 ADD SWAP1 POP DUP2 DUP2 SUB PUSH0 DUP4 ADD MSTORE PUSH2 0x12CB DUP2 PUSH2 0x1292 JUMP JUMPDEST SWAP1 POP SWAP2 SWAP1 POP JUMP JUMPDEST PUSH32 0x596F75206861766520616C726561647920766F74656400000000000000000000 PUSH0 DUP3 ADD MSTORE POP JUMP JUMPDEST PUSH0 PUSH2 0x1306 PUSH1 0x16 DUP4 PUSH2 0xD88 JUMP JUMPDEST SWAP2 POP PUSH2 0x1311 DUP3 PUSH2 0x12D2 JUMP JUMPDEST PUSH1 0x20 DUP3 ADD SWAP1 POP SWAP2 SWAP1 POP JUMP JUMPDEST PUSH0 PUSH1 0x20 DUP3 ADD SWAP1 POP DUP2 DUP2 SUB PUSH0 DUP4 ADD MSTORE PUSH2 0x1333 DUP2 PUSH2 0x12FA JUMP JUMPDEST SWAP1 POP SWAP2 SWAP1 POP JUMP JUMPDEST PUSH32 0x5269676874206E6F7720796F7520617265206E6F7420656C696769626C726520 PUSH0 DUP3 ADD MSTORE PUSH32 0x666F7220726566756E6420000000000000000000000000000000000000000000 PUSH1 0x20 DUP3 ADD MSTORE POP JUMP JUMPDEST PUSH0 PUSH2 0x1394 PUSH1 0x2B DUP4 PUSH2 0xD88 JUMP JUMPDEST SWAP2 POP PUSH2 0x139F DUP3 PUSH2 0x133A JUMP JUMPDEST PUSH1 0x40 DUP3 ADD SWAP1 POP SWAP2 SWAP1 POP JUMP JUMPDEST PUSH0 PUSH1 0x20 DUP3 ADD SWAP1 POP DUP2 DUP2 SUB PUSH0 DUP4 ADD MSTORE PUSH2 0x13C1 DUP2 PUSH2 0x1388 JUMP JUMPDEST SWAP1 POP SWAP2 SWAP1 POP JUMP JUMPDEST PUSH32 0x596F75206469646E7420706172746963697061746564206F6E6C790000000000 PUSH0 DUP3 ADD MSTORE POP JUMP JUMPDEST PUSH0 PUSH2 0x13FC PUSH1 0x1B DUP4 PUSH2 0xD88 JUMP JUMPDEST SWAP2 POP PUSH2 0x1407 DUP3 PUSH2 0x13C8 JUMP JUMPDEST PUSH1 0x20 DUP3 ADD SWAP1 POP SWAP2 SWAP1 POP JUMP JUMPDEST PUSH0 PUSH1 0x20 DUP3 ADD SWAP1 POP DUP2 DUP2 SUB PUSH0 DUP4 ADD MSTORE PUSH2 0x1429 DUP2 PUSH2 0x13F0 JUMP JUMPDEST SWAP1 POP SWAP2 SWAP1 POP JUMP JUMPDEST PUSH32 0x536F72727921446561646C696E652068617320616C7265616479207265616368 PUSH0 DUP3 ADD MSTORE PUSH32 0x6564000000000000000000000000000000000000000000000000000000000000 PUSH1 0x20 DUP3 ADD MSTORE POP JUMP JUMPDEST PUSH0 PUSH2 0x148A PUSH1 0x22 DUP4 PUSH2 0xD88 JUMP JUMPDEST SWAP2 POP PUSH2 0x1495 DUP3 PUSH2 0x1430 JUMP JUMPDEST PUSH1 0x40 DUP3 ADD SWAP1 POP SWAP2 SWAP1 POP JUMP JUMPDEST PUSH0 PUSH1 0x20 DUP3 ADD SWAP1 POP DUP2 DUP2 SUB PUSH0 DUP4 ADD MSTORE PUSH2 0x14B7 DUP2 PUSH2 0x147E JUMP JUMPDEST SWAP1 POP SWAP2 SWAP1 POP JUMP JUMPDEST PUSH32 0x4D696E696D756D20436F6E747269627574696F6E206973206E6F74206D657400 PUSH0 DUP3 ADD MSTORE POP JUMP JUMPDEST PUSH0 PUSH2 0x14F2 PUSH1 0x1F DUP4 PUSH2 0xD88 JUMP JUMPDEST SWAP2 POP PUSH2 0x14FD DUP3 PUSH2 0x14BE JUMP JUMPDEST PUSH1 0x20 DUP3 ADD SWAP1 POP SWAP2 SWAP1 POP JUMP JUMPDEST PUSH0 PUSH1 0x20 DUP3 ADD SWAP1 POP DUP2 DUP2 SUB PUSH0 DUP4 ADD MSTORE PUSH2 0x151F DUP2 PUSH2 0x14E6 JUMP JUMPDEST SWAP1 POP SWAP2 SWAP1 POP JUMP JUMPDEST PUSH0 PUSH2 0x1530 DUP3 PUSH2 0xA57 JUMP JUMPDEST SWAP2 POP PUSH2 0x153B DUP4 PUSH2 0xA57 JUMP JUMPDEST SWAP3 POP DUP3 DUP3 ADD SWAP1 POP DUP1 DUP3 GT ISZERO PUSH2 0x1553 JUMPI PUSH2 0x1552 PUSH2 0xF07 JUMP JUMPDEST JUMPDEST SWAP3 SWAP2 POP POP JUMP INVALID LOG2 PUSH5 0x6970667358 0x22 SLT KECCAK256 0xD3 CODECOPY LOG1 SWAP11 0xCF DUP8 0xE 0x4B DUP7 PREVRANDAO CALLDATALOAD 0x27 0xC6 LOG0 MLOAD 0xB3 STATICCALL DIV LOG0 SWAP7 0x2D RETURNDATACOPY SHL JUMPI PUSH1 0x26 0xFC 0xFB SHL PUSH31 0xE9B264736F6C63430008160033000000000000000000000000000000000000 "
				},
				"gasEstimates": {
					"creation": {
						"codeDepositCost": "1103800",
						"executionCost": "infinite",
						"totalCost": "infinite"
					},
					"external": {
						"contributors(address)": "2869",
						"createRequest(string,address,uint256)": "infinite",
						"deadline()": "2448",
						"getBalance()": "358",
						"manager()": "2575",
						"minContribution()": "2447",
						"noofContributors()": "2470",
						"noofrequest(uint256)": "infinite",
						"numrequest()": "2513",
						"raisedAmount()": "2469",
						"refund()": "infinite",
						"sendEthertocontract()": "infinite",
						"target()": "2491",
						"voteRequest(uint256)": "infinite"
					}
				},
				"methodIdentifiers": {
					"contributors(address)": "1f6d4942",
					"createRequest(string,address,uint256)": "1b16bb5c",
					"deadline()": "29dcb0cf",
					"getBalance()": "12065fe0",
					"manager()": "481c6a75",
					"minContribution()": "aaffadf3",
					"noofContributors()": "39cb69fc",
					"noofrequest(uint256)": "4cf2e1bc",
					"numrequest()": "fe7c1b8a",
					"raisedAmount()": "c59ee1dc",
					"refund()": "590e1ae3",
					"sendEthertocontract()": "8d9ad80e",
					"target()": "d4b83992",
					"voteRequest(uint256)": "4cb6f4a5"
				}
			},
			"storageLayout": {
				"storage": [
					{
						"astId": 5,
						"contract": "Project.sol:CrowdFunding",
						"label": "contributors",
						"offset": 0,
						"slot": "0",
						"type": "t_mapping(t_address,t_uint256)"
					},
					{
						"astId": 7,
						"contract": "Project.sol:CrowdFunding",
						"label": "manager",
						"offset": 0,
						"slot": "1",
						"type": "t_address"
					},
					{
						"astId": 9,
						"contract": "Project.sol:CrowdFunding",
						"label": "minContribution",
						"offset": 0,
						"slot": "2",
						"type": "t_uint256"
					},
					{
						"astId": 11,
						"contract": "Project.sol:CrowdFunding",
						"label": "target",
						"offset": 0,
						"slot": "3",
						"type": "t_uint256"
					},
					{
						"astId": 13,
						"contract": "Project.sol:CrowdFunding",
						"label": "deadline",
						"offset": 0,
						"slot": "4",
						"type": "t_uint256"
					},
					{
						"astId": 15,
						"contract": "Project.sol:CrowdFunding",
						"label": "raisedAmount",
						"offset": 0,
						"slot": "5",
						"type": "t_uint256"
					},
					{
						"astId": 17,
						"contract": "Project.sol:CrowdFunding",
						"label": "noofContributors",
						"offset": 0,
						"slot": "6",
						"type": "t_uint256"
					},
					{
						"astId": 181,
						"contract": "Project.sol:CrowdFunding",
						"label": "noofrequest",
						"offset": 0,
						"slot": "7",
						"type": "t_mapping(t_uint256,t_struct(request)176_storage)"
					},
					{
						"astId": 183,
						"contract": "Project.sol:CrowdFunding",
						"label": "numrequest",
						"offset": 0,
						"slot": "8",
						"type": "t_uint256"
					}
				],
				"types": {
					"t_address": {
						"encoding": "inplace",
						"label": "address",
						"numberOfBytes": "20"
					},
					"t_address_payable": {
						"encoding": "inplace",
						"label": "address payable",
						"numberOfBytes": "20"
					},
					"t_bool": {
						"encoding": "inplace",
						"label": "bool",
						"numberOfBytes": "1"
					},
					"t_mapping(t_address,t_bool)": {
						"encoding": "mapping",
						"key": "t_address",
						"label": "mapping(address => bool)",
						"numberOfBytes": "32",
						"value": "t_bool"
					},
					"t_mapping(t_address,t_uint256)": {
						"encoding": "mapping",
						"key": "t_address",
						"label": "mapping(address => uint256)",
						"numberOfBytes": "32",
						"value": "t_uint256"
					},
					"t_mapping(t_uint256,t_struct(request)176_storage)": {
						"encoding": "mapping",
						"key": "t_uint256",
						"label": "mapping(uint256 => struct CrowdFunding.request)",
						"numberOfBytes": "32",
						"value": "t_struct(request)176_storage"
					},
					"t_string_storage": {
						"encoding": "bytes",
						"label": "string",
						"numberOfBytes": "32"
					},
					"t_struct(request)176_storage": {
						"encoding": "inplace",
						"label": "struct CrowdFunding.request",
						"members": [
							{
								"astId": 162,
								"contract": "Project.sol:CrowdFunding",
								"label": "description",
								"offset": 0,
								"slot": "0",
								"type": "t_string_storage"
							},
							{
								"astId": 164,
								"contract": "Project.sol:CrowdFunding",
								"label": "recepient",
								"offset": 0,
								"slot": "1",
								"type": "t_address_payable"
							},
							{
								"astId": 166,
								"contract": "Project.sol:CrowdFunding",
								"label": "value",
								"offset": 0,
								"slot": "2",
								"type": "t_uint256"
							},
							{
								"astId": 169,
								"contract": "Project.sol:CrowdFunding",
								"label": "compeleted",
								"offset": 0,
								"slot": "3",
								"type": "t_bool"
							},
							{
								"astId": 171,
								"contract": "Project.sol:CrowdFunding",
								"label": "noofVoters",
								"offset": 0,
								"slot": "4",
								"type": "t_uint256"
							},
							{
								"astId": 175,
								"contract": "Project.sol:CrowdFunding",
								"label": "voters",
								"offset": 0,
								"slot": "5",
								"type": "t_mapping(t_address,t_bool)"
							}
						],
						"numberOfBytes": "192"
					},
					"t_uint256": {
						"encoding": "inplace",
						"label": "uint256",
						"numberOfBytes": "32"
					}
				}
			},
			"userdoc": {
				"kind": "user",
				"methods": {},
				"version": 1
			}
		}
	}
}